{
  "contractName": "MarketSan",
  "abi": [
    {
      "constant": true,
      "inputs": [],
      "name": "owner",
      "outputs": [
        {
          "name": "",
          "type": "address"
        }
      ],
      "payable": false,
      "stateMutability": "view",
      "type": "function"
    },
    {
      "constant": true,
      "inputs": [],
      "name": "tttTokenAddress",
      "outputs": [
        {
          "name": "",
          "type": "address"
        }
      ],
      "payable": false,
      "stateMutability": "view",
      "type": "function"
    },
    {
      "constant": true,
      "inputs": [
        {
          "name": "",
          "type": "uint256"
        }
      ],
      "name": "marketSans",
      "outputs": [
        {
          "name": "sanId",
          "type": "uint256"
        },
        {
          "name": "timeToMarket",
          "type": "uint256"
        },
        {
          "name": "owner",
          "type": "address"
        },
        {
          "name": "bidMin",
          "type": "uint256"
        },
        {
          "name": "currentBid",
          "type": "uint256"
        },
        {
          "name": "bidType",
          "type": "uint8"
        },
        {
          "name": "bidAuctionTime",
          "type": "uint256"
        }
      ],
      "payable": false,
      "stateMutability": "view",
      "type": "function"
    },
    {
      "constant": false,
      "inputs": [
        {
          "name": "newOwner",
          "type": "address"
        }
      ],
      "name": "transferOwnership",
      "outputs": [],
      "payable": false,
      "stateMutability": "nonpayable",
      "type": "function"
    },
    {
      "inputs": [],
      "payable": false,
      "stateMutability": "nonpayable",
      "type": "constructor"
    },
    {
      "anonymous": false,
      "inputs": [
        {
          "indexed": true,
          "name": "previousOwner",
          "type": "address"
        },
        {
          "indexed": true,
          "name": "newOwner",
          "type": "address"
        }
      ],
      "name": "OwnershipTransferred",
      "type": "event"
    },
    {
      "constant": false,
      "inputs": [
        {
          "name": "_sanName",
          "type": "string"
        },
        {
          "name": "_price",
          "type": "uint256"
        }
      ],
      "name": "addSanToMarket",
      "outputs": [],
      "payable": false,
      "stateMutability": "nonpayable",
      "type": "function"
    },
    {
      "constant": false,
      "inputs": [
        {
          "name": "_sanId",
          "type": "uint256"
        }
      ],
      "name": "marketDirectPurchaseTransfer",
      "outputs": [],
      "payable": true,
      "stateMutability": "payable",
      "type": "function"
    },
    {
      "constant": false,
      "inputs": [
        {
          "name": "_sanId",
          "type": "uint256"
        }
      ],
      "name": "marketDirectPurchase",
      "outputs": [],
      "payable": true,
      "stateMutability": "payable",
      "type": "function"
    },
    {
      "constant": false,
      "inputs": [
        {
          "name": "_sanId",
          "type": "uint256"
        },
        {
          "name": "_bidder",
          "type": "address"
        }
      ],
      "name": "acceptBid",
      "outputs": [],
      "payable": false,
      "stateMutability": "nonpayable",
      "type": "function"
    },
    {
      "constant": false,
      "inputs": [
        {
          "name": "_sanId",
          "type": "uint256"
        },
        {
          "name": "_bidder",
          "type": "address"
        }
      ],
      "name": "bidForSan",
      "outputs": [],
      "payable": false,
      "stateMutability": "nonpayable",
      "type": "function"
    },
    {
      "constant": false,
      "inputs": [
        {
          "name": "_sanAddress",
          "type": "address"
        }
      ],
      "name": "setSanAddress",
      "outputs": [],
      "payable": false,
      "stateMutability": "nonpayable",
      "type": "function"
    },
    {
      "constant": true,
      "inputs": [],
      "name": "getMarketSanCount",
      "outputs": [
        {
          "name": "",
          "type": "uint256"
        }
      ],
      "payable": false,
      "stateMutability": "view",
      "type": "function"
    },
    {
      "constant": true,
      "inputs": [
        {
          "name": "_index",
          "type": "uint256"
        }
      ],
      "name": "getMarketSanIdAt",
      "outputs": [
        {
          "name": "sanId",
          "type": "uint256"
        }
      ],
      "payable": false,
      "stateMutability": "view",
      "type": "function"
    }
  ],
  "bytecode": "0x6060604052733a518a5f5ac3f3dbf4ecd6b91dfbbb8422832996600160006101000a81548173ffffffffffffffffffffffffffffffffffffffff021916908373ffffffffffffffffffffffffffffffffffffffff160217905550341561006457600080fd5b336000806101000a81548173ffffffffffffffffffffffffffffffffffffffff021916908373ffffffffffffffffffffffffffffffffffffffff160217905550600160009054906101000a900473ffffffffffffffffffffffffffffffffffffffff16600260006101000a81548173ffffffffffffffffffffffffffffffffffffffff021916908373ffffffffffffffffffffffffffffffffffffffff160217905550611296806101166000396000f3006060604052600436106100ba576000357c0100000000000000000000000000000000000000000000000000000000900463ffffffff16806301827291146100bf57806302068664146100f8578063144812af1461013a5780632f38905c14610171578063575bb37f14610189578063843e081c146101a15780638da5cb5b146101d8578063a64ded311461022d578063a6bbbffd14610282578063b9bd65f0146102ab578063c42e4bb114610346578063f2fde38b14610388575b600080fd5b34156100ca57600080fd5b6100f6600480803573ffffffffffffffffffffffffffffffffffffffff169060200190919050506103c1565b005b341561010357600080fd5b610138600480803590602001909190803573ffffffffffffffffffffffffffffffffffffffff1690602001909190505061050a565b005b341561014557600080fd5b61016f60048080359060200190820180359060200191909192908035906020019091905050610725565b005b6101876004808035906020019091905050610abe565b005b61019f6004808035906020019091905050610cdf565b005b34156101ac57600080fd5b6101c26004808035906020019091905050610ce2565b6040518082815260200191505060405180910390f35b34156101e357600080fd5b6101eb610d0c565b604051808273ffffffffffffffffffffffffffffffffffffffff1673ffffffffffffffffffffffffffffffffffffffff16815260200191505060405180910390f35b341561023857600080fd5b610240610d31565b604051808273ffffffffffffffffffffffffffffffffffffffff1673ffffffffffffffffffffffffffffffffffffffff16815260200191505060405180910390f35b341561028d57600080fd5b610295610d57565b6040518082815260200191505060405180910390f35b34156102b657600080fd5b6102cc6004808035906020019091905050610d64565b604051808881526020018781526020018673ffffffffffffffffffffffffffffffffffffffff1673ffffffffffffffffffffffffffffffffffffffff16815260200185815260200184815260200183600181111561032657fe5b60ff16815260200182815260200197505050505050505060405180910390f35b341561035157600080fd5b610386600480803590602001909190803573ffffffffffffffffffffffffffffffffffffffff16906020019091905050610de2565b005b341561039357600080fd5b6103bf600480803573ffffffffffffffffffffffffffffffffffffffff16906020019091905050610de6565b005b6000809054906101000a900473ffffffffffffffffffffffffffffffffffffffff1673ffffffffffffffffffffffffffffffffffffffff163373ffffffffffffffffffffffffffffffffffffffff1614151561041c57600080fd5b6000600360009054906101000a900473ffffffffffffffffffffffffffffffffffffffff1673ffffffffffffffffffffffffffffffffffffffff1614151561046357600080fd5b80600360006101000a81548173ffffffffffffffffffffffffffffffffffffffff021916908373ffffffffffffffffffffffffffffffffffffffff160217905550600360009054906101000a900473ffffffffffffffffffffffffffffffffffffffff16600460006101000a81548173ffffffffffffffffffffffffffffffffffffffff021916908373ffffffffffffffffffffffffffffffffffffffff16021790555050565b600082600660003373ffffffffffffffffffffffffffffffffffffffff1673ffffffffffffffffffffffffffffffffffffffff1681526020019081526020016000205414151561055957600080fd5b600460009054906101000a900473ffffffffffffffffffffffffffffffffffffffff1673ffffffffffffffffffffffffffffffffffffffff1663901ae16083856040518363ffffffff167c0100000000000000000000000000000000000000000000000000000000028152600401808373ffffffffffffffffffffffffffffffffffffffff1673ffffffffffffffffffffffffffffffffffffffff16815260200182815260200192505050600060405180830381600087803b151561061d57600080fd5b5af1151561062a57600080fd5b505050600460009054906101000a900473ffffffffffffffffffffffffffffffffffffffff1673ffffffffffffffffffffffffffffffffffffffff166344add76433856040518363ffffffff167c0100000000000000000000000000000000000000000000000000000000028152600401808373ffffffffffffffffffffffffffffffffffffffff1673ffffffffffffffffffffffffffffffffffffffff16815260200182815260200192505050600060405180830381600087803b15156106f157600080fd5b5af115156106fe57600080fd5b5050506007600084815260200190815260200160002054905061072081610f3b565b505050565b600061072f611125565b6000600460009054906101000a900473ffffffffffffffffffffffffffffffffffffffff1673ffffffffffffffffffffffffffffffffffffffff166347f5666f87876040518363ffffffff167c01000000000000000000000000000000000000000000000000000000000281526004018080602001828103825284848281815260200192508082843782019150509350505050602060405180830381600087803b15156107db57600080fd5b5af115156107e857600080fd5b5050506040518051905092503373ffffffffffffffffffffffffffffffffffffffff16600460009054906101000a900473ffffffffffffffffffffffffffffffffffffffff1673ffffffffffffffffffffffffffffffffffffffff16636352211e856040518263ffffffff167c010000000000000000000000000000000000000000000000000000000002815260040180828152602001915050602060405180830381600087803b151561089b57600080fd5b5af115156108a857600080fd5b5050506040518051905073ffffffffffffffffffffffffffffffffffffffff161415156108d457600080fd5b6005600084815260200190815260200160002060009054906101000a900460ff1615151561090157600080fd5b60e0604051908101604052808481526020014281526020013373ffffffffffffffffffffffffffffffffffffffff168152602001858152602001600081526020016000600181111561094f57fe5b8152602001600081525091506001600880548060010182816109719190611184565b91600052602060002090600702016000859091909150600082015181600001556020820151816001015560408201518160020160006101000a81548173ffffffffffffffffffffffffffffffffffffffff021916908373ffffffffffffffffffffffffffffffffffffffff160217905550606082015181600301556080820151816004015560a08201518160050160006101000a81548160ff02191690836001811115610a1a57fe5b021790555060c08201518160060155505003905060016005600085815260200190815260200160002060006101000a81548160ff02191690831515021790555082600660003373ffffffffffffffffffffffffffffffffffffffff1673ffffffffffffffffffffffffffffffffffffffff16815260200190815260200160002081905550806007600085815260200190815260200160002081905550505050505050565b60008060076000848152602001908152602001600020549150600882815481101515610ae657fe5b90600052602060002090600702019050806003015434141515610b0557fe5b600460009054906101000a900473ffffffffffffffffffffffffffffffffffffffff1673ffffffffffffffffffffffffffffffffffffffff1663901ae16033856040518363ffffffff167c0100000000000000000000000000000000000000000000000000000000028152600401808373ffffffffffffffffffffffffffffffffffffffff1673ffffffffffffffffffffffffffffffffffffffff16815260200182815260200192505050600060405180830381600087803b1515610bc957600080fd5b5af11515610bd657600080fd5b505050600460009054906101000a900473ffffffffffffffffffffffffffffffffffffffff1673ffffffffffffffffffffffffffffffffffffffff166344add7648260020160009054906101000a900473ffffffffffffffffffffffffffffffffffffffff16856040518363ffffffff167c0100000000000000000000000000000000000000000000000000000000028152600401808373ffffffffffffffffffffffffffffffffffffffff1673ffffffffffffffffffffffffffffffffffffffff16815260200182815260200192505050600060405180830381600087803b1515610cc157600080fd5b5af11515610cce57600080fd5b505050610cda82610f3b565b505050565b50565b6000600882815481101515610cf357fe5b9060005260206000209060070201600001549050919050565b6000809054906101000a900473ffffffffffffffffffffffffffffffffffffffff1681565b600160009054906101000a900473ffffffffffffffffffffffffffffffffffffffff1681565b6000600880549050905090565b600881815481101515610d7357fe5b90600052602060002090600702016000915090508060000154908060010154908060020160009054906101000a900473ffffffffffffffffffffffffffffffffffffffff16908060030154908060040154908060050160009054906101000a900460ff16908060060154905087565b5050565b6000809054906101000a900473ffffffffffffffffffffffffffffffffffffffff1673ffffffffffffffffffffffffffffffffffffffff163373ffffffffffffffffffffffffffffffffffffffff16141515610e4157600080fd5b600073ffffffffffffffffffffffffffffffffffffffff168173ffffffffffffffffffffffffffffffffffffffff1614151515610e7d57600080fd5b8073ffffffffffffffffffffffffffffffffffffffff166000809054906101000a900473ffffffffffffffffffffffffffffffffffffffff1673ffffffffffffffffffffffffffffffffffffffff167f8be0079c531659141344cd1fd0a4f28419497f9722a3daafe3b4186f6b6457e060405160405180910390a3806000806101000a81548173ffffffffffffffffffffffffffffffffffffffff021916908373ffffffffffffffffffffffffffffffffffffffff16021790555050565b600060088054905082101515610f5057600080fd5b8190505b60016008805490500381101561108057600860018201815481101515610f7657fe5b9060005260206000209060070201600882815481101515610f9357fe5b906000526020600020906007020160008201548160000155600182015481600101556002820160009054906101000a900473ffffffffffffffffffffffffffffffffffffffff168160020160006101000a81548173ffffffffffffffffffffffffffffffffffffffff021916908373ffffffffffffffffffffffffffffffffffffffff16021790555060038201548160030155600482015481600401556005820160009054906101000a900460ff168160050160006101000a81548160ff0219169083600181111561106157fe5b0217905550600682015481600601559050508080600101915050610f54565b600860016008805490500381548110151561109757fe5b906000526020600020906007020160008082016000905560018201600090556002820160006101000a81549073ffffffffffffffffffffffffffffffffffffffff0219169055600382016000905560048201600090556005820160006101000a81549060ff021916905560068201600090555050600880548091906001900361112091906111b6565b505050565b60e0604051908101604052806000815260200160008152602001600073ffffffffffffffffffffffffffffffffffffffff16815260200160008152602001600081526020016000600181111561117757fe5b8152602001600081525090565b8154818355818115116111b1576007028160070283600052602060002091820191016111b091906111e8565b5b505050565b8154818355818115116111e3576007028160070283600052602060002091820191016111e291906111e8565b5b505050565b61126791905b808211156112635760008082016000905560018201600090556002820160006101000a81549073ffffffffffffffffffffffffffffffffffffffff0219169055600382016000905560048201600090556005820160006101000a81549060ff02191690556006820160009055506007016111ee565b5090565b905600a165627a7a723058200faee1e1de55e6559c4cd1f8332396de58cab1d9d646a64a6c3d5ec8adc36c300029",
  "source": "pragma solidity ^0.4.21;\r\n\r\nimport \"zeppelin-solidity/contracts//ownership/Ownable.sol\";\r\nimport \"./TTTSan.sol\";\r\n\r\n\r\ncontract MarketSan is Ownable {\r\n\r\n  address public tttTokenAddress = 0x3a518A5F5AC3F3dBF4ECd6b91dfBbb8422832996;\r\n  TTTToken ttt;\r\n  address sanAddress;\r\n  TTTSan tttSan;\r\n\r\n  mapping(uint256=>bool) isSanIdOnMarket;\r\n  mapping(address=>uint256) marketSanAddresOwnerToId;\r\n  mapping(uint256=>uint256) sanIdToMarketIdx;\r\n\r\n  enum MarketSANType {Direct, Auction}\r\n  struct MarketSAN {\r\n    uint256 sanId;\r\n    uint256 timeToMarket;\r\n    address owner;\r\n    uint256 bidMin;\r\n    uint256 currentBid;\r\n    MarketSANType bidType;\r\n    uint256 bidAuctionTime;\r\n  }\r\n  MarketSAN[] public marketSans;\r\n\r\n  function MarketSan() {\r\n    ttt = TTTToken(tttTokenAddress);\r\n  }\r\n\r\n  function addSanToMarket(string _sanName, uint256 _price) external {\r\n    uint256 _sanId = tttSan.getSanIdFromName(_sanName);\r\n    require(tttSan.ownerOf(_sanId) == msg.sender);\r\n    require(!isSanIdOnMarket[_sanId]);\r\n    MarketSAN memory ms = MarketSAN({\r\n        sanId: _sanId,\r\n        timeToMarket: block.timestamp,\r\n        owner: msg.sender,\r\n        bidMin: _price,\r\n        currentBid: 0,\r\n        bidType: MarketSANType.Direct,\r\n        bidAuctionTime: 0\r\n    });\r\n    uint256 marketId = marketSans.push(ms) - 1;\r\n    isSanIdOnMarket[_sanId] = true;\r\n    marketSanAddresOwnerToId[msg.sender] = _sanId;\r\n    sanIdToMarketIdx[_sanId] = marketId;\r\n    //event\r\n  }\r\n\r\n  function marketDirectPurchaseTransfer(uint _sanId) external payable {\r\n\r\n  }\r\n\r\n  function marketDirectPurchase(uint256 _sanId) external payable {\r\n    uint256 mi = sanIdToMarketIdx[_sanId];\r\n    MarketSAN ms = marketSans[mi];\r\n    assert(msg.value == ms.bidMin);\r\n\r\n    tttSan.addSANTo(msg.sender, _sanId);\r\n    tttSan.removeSANFrom(ms.owner, _sanId);\r\n    removeFromMarketSAN(mi);\r\n  }\r\n\r\n  function acceptBid(uint256 _sanId, address _bidder) external {\r\n    require(marketSanAddresOwnerToId[msg.sender] == _sanId);\r\n    tttSan.addSANTo(_bidder, _sanId);\r\n    tttSan.removeSANFrom(msg.sender, _sanId);\r\n    uint256 idxOfSan = sanIdToMarketIdx[_sanId];\r\n    removeFromMarketSAN(idxOfSan);\r\n    // event\r\n  }\r\n\r\n  function bidForSan(uint256 _sanId, address _bidder) external {\r\n    // only add a bid if it's higher than the current one\r\n  }\r\n\r\n  function setSanAddress(address _sanAddress) external onlyOwner {\r\n\t\trequire(sanAddress == 0x0);\r\n\t\tsanAddress = _sanAddress;\r\n\t\ttttSan = TTTSan(sanAddress);\r\n\t}\r\n\r\n  function getMarketSanCount() external view returns(uint256) {\r\n    return marketSans.length;\r\n  }\r\n\r\n  function getMarketSanIdAt(uint256 _index) external view returns(uint256 sanId) {\r\n    return marketSans[_index].sanId;\r\n  }\r\n\r\n  function removeFromMarketSAN(uint idx) internal {\r\n    require(idx < marketSans.length);\r\n    for (uint i = idx; i < marketSans.length - 1; i++){\r\n        marketSans[i] = marketSans[i+1];\r\n    }\r\n    delete marketSans[marketSans.length-1];\r\n    marketSans.length--;\r\n  }\r\n\r\n}\r\n",
  "sourcePath": "C:\\TTT_Platform\\contracts\\MarketSan.sol",
  "compiler": {
    "name": "solc",
    "version": "0.4.21+commit.dfe3193c.Emscripten.clang"
  },
  "schemaVersion": "2.0.0",
  "updatedAt": "2018-05-21T13:05:27.011Z"
}