{
  "contractName": "TTTSanMarket",
  "abi": [
    {
      "constant": true,
      "inputs": [],
      "name": "owner",
      "outputs": [
        {
          "name": "",
          "type": "address"
        }
      ],
      "payable": false,
      "stateMutability": "view",
      "type": "function"
    },
    {
      "constant": true,
      "inputs": [],
      "name": "tttTokenAddress",
      "outputs": [
        {
          "name": "",
          "type": "address"
        }
      ],
      "payable": false,
      "stateMutability": "view",
      "type": "function"
    },
    {
      "constant": true,
      "inputs": [
        {
          "name": "",
          "type": "uint256"
        }
      ],
      "name": "marketSans",
      "outputs": [
        {
          "name": "sanId",
          "type": "uint256"
        },
        {
          "name": "sanName",
          "type": "string"
        },
        {
          "name": "timeToMarket",
          "type": "uint256"
        },
        {
          "name": "owner",
          "type": "address"
        },
        {
          "name": "bidMin",
          "type": "uint256"
        },
        {
          "name": "currentBid",
          "type": "uint256"
        },
        {
          "name": "bidType",
          "type": "uint8"
        },
        {
          "name": "bidAuctionTime",
          "type": "uint256"
        },
        {
          "name": "claimed",
          "type": "bool"
        }
      ],
      "payable": false,
      "stateMutability": "view",
      "type": "function"
    },
    {
      "constant": false,
      "inputs": [
        {
          "name": "newOwner",
          "type": "address"
        }
      ],
      "name": "transferOwnership",
      "outputs": [],
      "payable": false,
      "stateMutability": "nonpayable",
      "type": "function"
    },
    {
      "inputs": [],
      "payable": false,
      "stateMutability": "nonpayable",
      "type": "constructor"
    },
    {
      "anonymous": false,
      "inputs": [
        {
          "indexed": false,
          "name": "sanId",
          "type": "uint256"
        },
        {
          "indexed": false,
          "name": "price",
          "type": "uint256"
        }
      ],
      "name": "SanAddedToMarket",
      "type": "event"
    },
    {
      "anonymous": false,
      "inputs": [
        {
          "indexed": false,
          "name": "newOwner",
          "type": "address"
        },
        {
          "indexed": false,
          "name": "sanId",
          "type": "uint256"
        },
        {
          "indexed": false,
          "name": "price",
          "type": "uint256"
        },
        {
          "indexed": false,
          "name": "time",
          "type": "uint256"
        }
      ],
      "name": "SanMarketDirectPurchase",
      "type": "event"
    },
    {
      "anonymous": false,
      "inputs": [
        {
          "indexed": false,
          "name": "to",
          "type": "address"
        },
        {
          "indexed": false,
          "name": "sanId",
          "type": "uint256"
        }
      ],
      "name": "MarketBidRefund",
      "type": "event"
    },
    {
      "anonymous": false,
      "inputs": [
        {
          "indexed": true,
          "name": "previousOwner",
          "type": "address"
        },
        {
          "indexed": true,
          "name": "newOwner",
          "type": "address"
        }
      ],
      "name": "OwnershipTransferred",
      "type": "event"
    },
    {
      "constant": true,
      "inputs": [
        {
          "name": "_idx",
          "type": "uint256"
        }
      ],
      "name": "getMarketSanTTM",
      "outputs": [
        {
          "name": "",
          "type": "uint256"
        }
      ],
      "payable": false,
      "stateMutability": "view",
      "type": "function"
    },
    {
      "constant": true,
      "inputs": [
        {
          "name": "_idx",
          "type": "uint256"
        }
      ],
      "name": "getMarketSanOwner",
      "outputs": [
        {
          "name": "",
          "type": "address"
        }
      ],
      "payable": false,
      "stateMutability": "view",
      "type": "function"
    },
    {
      "constant": true,
      "inputs": [
        {
          "name": "_idx",
          "type": "uint256"
        }
      ],
      "name": "getMarketSanBidMin",
      "outputs": [
        {
          "name": "",
          "type": "uint256"
        }
      ],
      "payable": false,
      "stateMutability": "view",
      "type": "function"
    },
    {
      "constant": true,
      "inputs": [
        {
          "name": "_idx",
          "type": "uint256"
        }
      ],
      "name": "getMarketSanBidAuctionTime",
      "outputs": [
        {
          "name": "",
          "type": "uint256"
        }
      ],
      "payable": false,
      "stateMutability": "view",
      "type": "function"
    },
    {
      "constant": true,
      "inputs": [
        {
          "name": "_idx",
          "type": "uint256"
        }
      ],
      "name": "getMarketSanInfo",
      "outputs": [
        {
          "name": "minBid",
          "type": "uint256"
        },
        {
          "name": "sanName",
          "type": "string"
        },
        {
          "name": "sanId",
          "type": "uint256"
        }
      ],
      "payable": false,
      "stateMutability": "view",
      "type": "function"
    },
    {
      "constant": false,
      "inputs": [
        {
          "name": "_sanId",
          "type": "uint256"
        },
        {
          "name": "_sanName",
          "type": "string"
        },
        {
          "name": "_price",
          "type": "uint256"
        }
      ],
      "name": "addSanToMarket",
      "outputs": [],
      "payable": false,
      "stateMutability": "nonpayable",
      "type": "function"
    },
    {
      "constant": false,
      "inputs": [
        {
          "name": "_sanId",
          "type": "uint256"
        },
        {
          "name": "_amount",
          "type": "uint256"
        }
      ],
      "name": "marketDirectPurchase",
      "outputs": [],
      "payable": false,
      "stateMutability": "nonpayable",
      "type": "function"
    },
    {
      "constant": false,
      "inputs": [
        {
          "name": "_to",
          "type": "address"
        },
        {
          "name": "_sanId",
          "type": "uint256"
        }
      ],
      "name": "refundMarketBid",
      "outputs": [],
      "payable": false,
      "stateMutability": "nonpayable",
      "type": "function"
    },
    {
      "constant": false,
      "inputs": [
        {
          "name": "_sanAddress",
          "type": "address"
        }
      ],
      "name": "setSanAddress",
      "outputs": [],
      "payable": false,
      "stateMutability": "nonpayable",
      "type": "function"
    },
    {
      "constant": true,
      "inputs": [],
      "name": "getMarketSanCount",
      "outputs": [
        {
          "name": "",
          "type": "uint256"
        }
      ],
      "payable": false,
      "stateMutability": "view",
      "type": "function"
    },
    {
      "constant": true,
      "inputs": [
        {
          "name": "_idx",
          "type": "uint256"
        }
      ],
      "name": "getMarketSanIdAt",
      "outputs": [
        {
          "name": "",
          "type": "uint256"
        }
      ],
      "payable": false,
      "stateMutability": "view",
      "type": "function"
    }
  ],
  "bytecode": "0x6060604052733a518a5f5ac3f3dbf4ecd6b91dfbbb8422832996600160006101000a81548173ffffffffffffffffffffffffffffffffffffffff021916908373ffffffffffffffffffffffffffffffffffffffff1602179055507375ffe84fe6cd8511461eba34419a8f52a76982ec600360006101000a81548173ffffffffffffffffffffffffffffffffffffffff021916908373ffffffffffffffffffffffffffffffffffffffff16021790555034156100b957600080fd5b336000806101000a81548173ffffffffffffffffffffffffffffffffffffffff021916908373ffffffffffffffffffffffffffffffffffffffff160217905550600160009054906101000a900473ffffffffffffffffffffffffffffffffffffffff16600260006101000a81548173ffffffffffffffffffffffffffffffffffffffff021916908373ffffffffffffffffffffffffffffffffffffffff160217905550600360009054906101000a900473ffffffffffffffffffffffffffffffffffffffff16600460006101000a81548173ffffffffffffffffffffffffffffffffffffffff021916908373ffffffffffffffffffffffffffffffffffffffff160217905550611ba5806101ce6000396000f3006060604052600436106100db576000357c0100000000000000000000000000000000000000000000000000000000900463ffffffff16806301827291146100e05780631bd5977a146101195780637c84db73146101595780637e5485cb14610190578063843e081c146101f35780638da5cb5b1461022a578063a64ded311461027f578063a6bbbffd146102d4578063ab11820f146102fd578063ae63c53914610334578063b646f5e81461036b578063b9bd65f0146103ad578063cf141162146104bf578063f2fde38b146104eb578063fa63c5ab14610524575b600080fd5b34156100eb57600080fd5b610117600480803573ffffffffffffffffffffffffffffffffffffffff169060200190919050506105ce565b005b341561012457600080fd5b610157600480803590602001909190803590602001908201803590602001919091929080359060200190919050506106d0565b005b341561016457600080fd5b61017a6004808035906020019091905050610b6b565b6040518082815260200191505060405180910390f35b341561019b57600080fd5b6101b16004808035906020019091905050610b95565b604051808273ffffffffffffffffffffffffffffffffffffffff1673ffffffffffffffffffffffffffffffffffffffff16815260200191505060405180910390f35b34156101fe57600080fd5b6102146004808035906020019091905050610bdf565b6040518082815260200191505060405180910390f35b341561023557600080fd5b61023d610c09565b604051808273ffffffffffffffffffffffffffffffffffffffff1673ffffffffffffffffffffffffffffffffffffffff16815260200191505060405180910390f35b341561028a57600080fd5b610292610c2e565b604051808273ffffffffffffffffffffffffffffffffffffffff1673ffffffffffffffffffffffffffffffffffffffff16815260200191505060405180910390f35b34156102df57600080fd5b6102e7610c54565b6040518082815260200191505060405180910390f35b341561030857600080fd5b61031e6004808035906020019091905050610c61565b6040518082815260200191505060405180910390f35b341561033f57600080fd5b6103556004808035906020019091905050610c8b565b6040518082815260200191505060405180910390f35b341561037657600080fd5b6103ab600480803573ffffffffffffffffffffffffffffffffffffffff16906020019091908035906020019091905050610cb5565b005b34156103b857600080fd5b6103ce6004808035906020019091905050610ea9565b604051808a8152602001806020018981526020018873ffffffffffffffffffffffffffffffffffffffff1673ffffffffffffffffffffffffffffffffffffffff16815260200187815260200186815260200185600181111561042c57fe5b60ff1681526020018481526020018315151515815260200182810382528a818151815260200191508051906020019080838360005b8381101561047c578082015181840152602081019050610461565b50505050905090810190601f1680156104a95780820380516001836020036101000a031916815260200191505b509a505050505050505050505060405180910390f35b34156104ca57600080fd5b6104e96004808035906020019091908035906020019091905050610fd8565b005b34156104f657600080fd5b610522600480803573ffffffffffffffffffffffffffffffffffffffff169060200190919050506113c4565b005b341561052f57600080fd5b6105456004808035906020019091905050611519565b6040518084815260200180602001838152602001828103825284818151815260200191508051906020019080838360005b83811015610591578082015181840152602081019050610576565b50505050905090810190601f1680156105be5780820380516001836020036101000a031916815260200191505b5094505050505060405180910390f35b6000809054906101000a900473ffffffffffffffffffffffffffffffffffffffff1673ffffffffffffffffffffffffffffffffffffffff163373ffffffffffffffffffffffffffffffffffffffff1614151561062957600080fd5b80600360006101000a81548173ffffffffffffffffffffffffffffffffffffffff021916908373ffffffffffffffffffffffffffffffffffffffff160217905550600360009054906101000a900473ffffffffffffffffffffffffffffffffffffffff16600460006101000a81548173ffffffffffffffffffffffffffffffffffffffff021916908373ffffffffffffffffffffffffffffffffffffffff16021790555050565b6106d861185d565b60003373ffffffffffffffffffffffffffffffffffffffff16600460009054906101000a900473ffffffffffffffffffffffffffffffffffffffff1673ffffffffffffffffffffffffffffffffffffffff16636352211e886040518263ffffffff167c010000000000000000000000000000000000000000000000000000000002815260040180828152602001915050602060405180830381600087803b151561078157600080fd5b5af1151561078e57600080fd5b5050506040518051905073ffffffffffffffffffffffffffffffffffffffff161415156107ba57600080fd5b6005600087815260200190815260200160002060009054906101000a900460ff161515156107e757600080fd5b6101206040519081016040528087815260200186868080601f01602080910402602001604051908101604052809392919081815260200183838082843782019150505050505081526020014281526020013373ffffffffffffffffffffffffffffffffffffffff168152602001848152602001600081526020016000600181111561086e57fe5b81526020016000815260200160001515815250915060016008805480600101828161089991906118d3565b916000526020600020906009020160008590919091506000820151816000015560208201518160010190805190602001906108d5929190611905565b506040820151816002015560608201518160030160006101000a81548173ffffffffffffffffffffffffffffffffffffffff021916908373ffffffffffffffffffffffffffffffffffffffff1602179055506080820151816004015560a0820151816005015560c08201518160060160006101000a81548160ff0219169083600181111561095f57fe5b021790555060e082015181600701556101008201518160080160006101000a81548160ff021916908315150217905550505003905060016005600088815260200190815260200160002060006101000a81548160ff02191690831515021790555085600660003373ffffffffffffffffffffffffffffffffffffffff1673ffffffffffffffffffffffffffffffffffffffff16815260200190815260200160002081905550806007600088815260200190815260200160002081905550600460009054906101000a900473ffffffffffffffffffffffffffffffffffffffff1673ffffffffffffffffffffffffffffffffffffffff166323b872dd3330896040518463ffffffff167c0100000000000000000000000000000000000000000000000000000000028152600401808473ffffffffffffffffffffffffffffffffffffffff1673ffffffffffffffffffffffffffffffffffffffff1681526020018373ffffffffffffffffffffffffffffffffffffffff1673ffffffffffffffffffffffffffffffffffffffff1681526020018281526020019350505050600060405180830381600087803b1515610b1457600080fd5b5af11515610b2157600080fd5b5050507f3bfac85e641edd3aecabee7c966bac1539a1a5382406effa63696b8fdc8fc6ca8684604051808381526020018281526020019250505060405180910390a1505050505050565b6000600882815481101515610b7c57fe5b9060005260206000209060090201600701549050919050565b6000600882815481101515610ba657fe5b906000526020600020906009020160030160009054906101000a900473ffffffffffffffffffffffffffffffffffffffff169050919050565b6000600882815481101515610bf057fe5b9060005260206000209060090201600001549050919050565b6000809054906101000a900473ffffffffffffffffffffffffffffffffffffffff1681565b600160009054906101000a900473ffffffffffffffffffffffffffffffffffffffff1681565b6000600880549050905090565b6000600882815481101515610c7257fe5b9060005260206000209060090201600201549050919050565b6000600882815481101515610c9c57fe5b9060005260206000209060090201600401549050919050565b60008060009054906101000a900473ffffffffffffffffffffffffffffffffffffffff1673ffffffffffffffffffffffffffffffffffffffff163373ffffffffffffffffffffffffffffffffffffffff16141515610d1257600080fd5b600460009054906101000a900473ffffffffffffffffffffffffffffffffffffffff1673ffffffffffffffffffffffffffffffffffffffff166323b872dd3085856040518463ffffffff167c0100000000000000000000000000000000000000000000000000000000028152600401808473ffffffffffffffffffffffffffffffffffffffff1673ffffffffffffffffffffffffffffffffffffffff1681526020018373ffffffffffffffffffffffffffffffffffffffff1673ffffffffffffffffffffffffffffffffffffffff1681526020018281526020019350505050600060405180830381600087803b1515610e0a57600080fd5b5af11515610e1757600080fd5b50505060076000838152602001908152602001600020549050610e39816115fa565b7ffbb8510bbab44d16a1fbc6454d9a416138b7818c5c901167c90fb8175a3e5beb8383604051808373ffffffffffffffffffffffffffffffffffffffff1673ffffffffffffffffffffffffffffffffffffffff1681526020018281526020019250505060405180910390a1505050565b600881815481101515610eb857fe5b9060005260206000209060090201600091509050806000015490806001018054600181600116156101000203166002900480601f016020809104026020016040519081016040528092919081815260200182805460018160011615610100020316600290048015610f6a5780601f10610f3f57610100808354040283529160200191610f6a565b820191906000526020600020905b815481529060010190602001808311610f4d57829003601f168201915b5050505050908060020154908060030160009054906101000a900473ffffffffffffffffffffffffffffffffffffffff16908060040154908060050154908060060160009054906101000a900460ff16908060070154908060080160009054906101000a900460ff16905089565b60008082600260009054906101000a900473ffffffffffffffffffffffffffffffffffffffff1673ffffffffffffffffffffffffffffffffffffffff166370a08231336040518263ffffffff167c0100000000000000000000000000000000000000000000000000000000028152600401808273ffffffffffffffffffffffffffffffffffffffff1673ffffffffffffffffffffffffffffffffffffffff168152602001915050602060405180830381600087803b151561109857600080fd5b5af115156110a557600080fd5b50505060405180519050101580156110c1575080600401548310155b15156110c957fe5b600760008581526020019081526020016000205491506008828154811015156110ee57fe5b90600052602060002090600902019050600260009054906101000a900473ffffffffffffffffffffffffffffffffffffffff1673ffffffffffffffffffffffffffffffffffffffff166323b872dd338360030160009054906101000a900473ffffffffffffffffffffffffffffffffffffffff16866040518463ffffffff167c0100000000000000000000000000000000000000000000000000000000028152600401808473ffffffffffffffffffffffffffffffffffffffff1673ffffffffffffffffffffffffffffffffffffffff1681526020018373ffffffffffffffffffffffffffffffffffffffff1673ffffffffffffffffffffffffffffffffffffffff1681526020018281526020019350505050602060405180830381600087803b151561121a57600080fd5b5af1151561122757600080fd5b5050506040518051905050600460009054906101000a900473ffffffffffffffffffffffffffffffffffffffff1673ffffffffffffffffffffffffffffffffffffffff166323b872dd3033876040518463ffffffff167c0100000000000000000000000000000000000000000000000000000000028152600401808473ffffffffffffffffffffffffffffffffffffffff1673ffffffffffffffffffffffffffffffffffffffff1681526020018373ffffffffffffffffffffffffffffffffffffffff1673ffffffffffffffffffffffffffffffffffffffff1681526020018281526020019350505050600060405180830381600087803b151561132a57600080fd5b5af1151561133757600080fd5b505050611343846115fa565b7f377b0207b5e7725997bd896a4430eff1affca6f254450d3b41378d992e81583e33858542604051808573ffffffffffffffffffffffffffffffffffffffff1673ffffffffffffffffffffffffffffffffffffffff16815260200184815260200183815260200182815260200194505050505060405180910390a150505050565b6000809054906101000a900473ffffffffffffffffffffffffffffffffffffffff1673ffffffffffffffffffffffffffffffffffffffff163373ffffffffffffffffffffffffffffffffffffffff1614151561141f57600080fd5b600073ffffffffffffffffffffffffffffffffffffffff168173ffffffffffffffffffffffffffffffffffffffff161415151561145b57600080fd5b8073ffffffffffffffffffffffffffffffffffffffff166000809054906101000a900473ffffffffffffffffffffffffffffffffffffffff1673ffffffffffffffffffffffffffffffffffffffff167f8be0079c531659141344cd1fd0a4f28419497f9722a3daafe3b4186f6b6457e060405160405180910390a3806000806101000a81548173ffffffffffffffffffffffffffffffffffffffff021916908373ffffffffffffffffffffffffffffffffffffffff16021790555050565b6000611523611985565b60008060088581548110151561153557fe5b9060005260206000209060090201905080600401549350806001018054600181600116156101000203166002900480601f0160208091040260200160405190810160405280929190818152602001828054600181600116156101000203166002900480156115e45780601f106115b9576101008083540402835291602001916115e4565b820191906000526020600020905b8154815290600101906020018083116115c757829003601f168201915b5050505050925080600001549150509193909250565b60006008805490508210151561160f57600080fd5b8190505b6001600880549050038110156117945760086001820181548110151561163557fe5b906000526020600020906009020160088281548110151561165257fe5b90600052602060002090600902016000820154816000015560018201816001019080546001816001161561010002031660029004611691929190611999565b50600282015481600201556003820160009054906101000a900473ffffffffffffffffffffffffffffffffffffffff168160030160006101000a81548173ffffffffffffffffffffffffffffffffffffffff021916908373ffffffffffffffffffffffffffffffffffffffff16021790555060048201548160040155600582015481600501556006820160009054906101000a900460ff168160060160006101000a81548160ff0219169083600181111561174857fe5b0217905550600782015481600701556008820160009054906101000a900460ff168160080160006101000a81548160ff0219169083151502179055509050508080600101915050611613565b60086001600880549050038154811015156117ab57fe5b90600052602060002090600902016000808201600090556001820160006117d29190611a20565b60028201600090556003820160006101000a81549073ffffffffffffffffffffffffffffffffffffffff0219169055600482016000905560058201600090556006820160006101000a81549060ff021916905560078201600090556008820160006101000a81549060ff0219169055505060088054809190600190036118589190611a68565b505050565b6101206040519081016040528060008152602001611879611a9a565b815260200160008152602001600073ffffffffffffffffffffffffffffffffffffffff1681526020016000815260200160008152602001600060018111156118bd57fe5b8152602001600081526020016000151581525090565b815481835581811511611900576009028160090283600052602060002091820191016118ff9190611aae565b5b505050565b828054600181600116156101000203166002900490600052602060002090601f016020900481019282601f1061194657805160ff1916838001178555611974565b82800160010185558215611974579182015b82811115611973578251825591602001919060010190611958565b5b5090506119819190611b54565b5090565b602060405190810160405280600081525090565b828054600181600116156101000203166002900490600052602060002090601f016020900481019282601f106119d25780548555611a0f565b82800160010185558215611a0f57600052602060002091601f016020900482015b82811115611a0e5782548255916001019190600101906119f3565b5b509050611a1c9190611b54565b5090565b50805460018160011615610100020316600290046000825580601f10611a465750611a65565b601f016020900490600052602060002090810190611a649190611b54565b5b50565b815481835581811511611a9557600902816009028360005260206000209182019101611a949190611aae565b5b505050565b602060405190810160405280600081525090565b611b5191905b80821115611b4d57600080820160009055600182016000611ad59190611a20565b60028201600090556003820160006101000a81549073ffffffffffffffffffffffffffffffffffffffff0219169055600482016000905560058201600090556006820160006101000a81549060ff021916905560078201600090556008820160006101000a81549060ff021916905550600901611ab4565b5090565b90565b611b7691905b80821115611b72576000816000905550600101611b5a565b5090565b905600a165627a7a72305820b5e8ed42e23e8c734d3a02aa385c88bbd497a58b598be948490b31db6e5cbae30029",
  "source": "pragma solidity ^0.4.21;\r\n\r\nimport \"./TTTSan.sol\";\r\n\r\n\r\ncontract TTTSanMarket is Ownable {\r\n\r\n  address public tttTokenAddress = 0x3a518A5F5AC3F3dBF4ECd6b91dfBbb8422832996;\r\n  TTTToken ttt;\r\n  address sanAddress = 0x75ffe84fe6cd8511461eba34419a8f52a76982ec;\r\n  TTTSan tttSan;\r\n\r\n  mapping(uint256=>bool) isSanIdOnMarket;\r\n  mapping(address=>uint256) marketSanAddresOwnerToId;\r\n  mapping(uint256=>uint256) sanIdToMarketIdx;\r\n\r\n  enum MarketSANType {Direct, Auction}\r\n  struct MarketSAN {\r\n    uint256 sanId;\r\n    string sanName;\r\n    uint256 timeToMarket;\r\n    address owner;\r\n    uint256 bidMin;\r\n    uint256 currentBid;\r\n    MarketSANType bidType;\r\n    uint256 bidAuctionTime;\r\n    bool claimed;\r\n  }\r\n  MarketSAN[] public marketSans;\r\n\r\n  event SanAddedToMarket(uint256 sanId, uint256 price);\r\n  event SanMarketDirectPurchase(address newOwner, uint256 sanId, uint256 price, uint256 time);\r\n  event MarketBidRefund(address to, uint256 sanId);\r\n\r\n  function TTTSanMarket() {\r\n    ttt = TTTToken(tttTokenAddress);\r\n    tttSan = TTTSan(sanAddress);\r\n  }\r\n\r\n  function getMarketSanTTM(uint256 _idx) public view returns(uint256) {\r\n    return marketSans[_idx].timeToMarket;\r\n  }\r\n\r\n  function getMarketSanOwner(uint256 _idx) public view returns(address) {\r\n    return marketSans[_idx].owner;\r\n  }\r\n\r\n  function getMarketSanBidMin(uint256 _idx) public view returns(uint256) {\r\n    return marketSans[_idx].bidMin;\r\n  }\r\n\r\n  function getMarketSanBidAuctionTime(uint256 _idx) public view returns(uint256) {\r\n    return marketSans[_idx].bidAuctionTime;\r\n  }\r\n\r\n  function getMarketSanInfo(uint256 _idx) public view returns(\r\n      uint256 minBid, string sanName, uint256 sanId\r\n    ) {\r\n    MarketSAN ms = marketSans[_idx];\r\n    minBid = ms.bidMin;\r\n    sanName = ms.sanName;\r\n    sanId = ms.sanId;\r\n  }\r\n\r\n  function addSanToMarket(uint256 _sanId, string _sanName, uint256 _price) external {\r\n    require(tttSan.ownerOf(_sanId) == msg.sender);\r\n    require(!isSanIdOnMarket[_sanId]);\r\n    MarketSAN memory ms = MarketSAN({\r\n        sanId: _sanId,\r\n        sanName: _sanName,\r\n        timeToMarket: block.timestamp,\r\n        owner: msg.sender,\r\n        bidMin: _price,\r\n        currentBid: 0,\r\n        bidType: MarketSANType.Direct,\r\n        bidAuctionTime: 0,\r\n        claimed: false\r\n    });\r\n\r\n    uint256 marketId = marketSans.push(ms) - 1;\r\n    isSanIdOnMarket[_sanId] = true;\r\n    marketSanAddresOwnerToId[msg.sender] = _sanId;\r\n    sanIdToMarketIdx[_sanId] = marketId;\r\n    tttSan.transferFrom(msg.sender, this, _sanId);\r\n    emit SanAddedToMarket(_sanId, _price);\r\n  }\r\n\r\n  function owns(uint256 _sanId, address _owner) internal view returns (bool) {\r\n    return (tttSan.ownerOf(_sanId) == _owner);\r\n  }\r\n\r\n  function marketDirectPurchase(uint256 _sanId, uint256 _amount) external {\r\n    assert(ttt.balanceOf(msg.sender) >= _amount && _amount >= ms.bidMin);\r\n    uint256 mi = sanIdToMarketIdx[_sanId];\r\n    MarketSAN ms = marketSans[mi];\r\n    ttt.transferFrom(msg.sender, ms.owner, _amount);\r\n    tttSan.transferFrom(this, msg.sender, _sanId);\r\n    removeFromMarketSAN(_sanId);\r\n    emit SanMarketDirectPurchase(msg.sender, _sanId, _amount, block.timestamp);\r\n  }\r\n\r\n  // TODO\r\n  /*\r\n  function acceptBid(uint256 _sanId, address _bidder) external {\r\n    require(marketSanAddresOwnerToId[msg.sender] == _sanId);\r\n    ttt.transferFrom(msg.sender, ms.owner, _amount);\r\n    tttSan.transferFrom(this, msg.sender, _sanId);\r\n    uint256 idxOfSan = sanIdToMarketIdx[_sanId];\r\n    removeFromMarketSAN(idxOfSan);\r\n\r\n  }\r\n\r\n  function bidForSan(uint256 _sanId, address _bidder) external {\r\n    // only add a bid if it's higher than the current one\r\n  }\r\n\r\n  */\r\n\r\n  function refundMarketBid(address _to, uint256 _sanId) external onlyOwner {\r\n    tttSan.transferFrom(this, _to, _sanId);\r\n    uint256 idxOfSan = sanIdToMarketIdx[_sanId];\r\n    removeFromMarketSAN(idxOfSan);\r\n    emit MarketBidRefund(_to, _sanId);\r\n  }\r\n\r\n  function setSanAddress(address _sanAddress) external onlyOwner {\r\n    sanAddress = _sanAddress;\r\n    tttSan = TTTSan(sanAddress);\r\n  }\r\n\r\n  function getMarketSanCount() external view returns(uint256) {\r\n    return marketSans.length;\r\n  }\r\n\r\n  function getMarketSanIdAt(uint256 _idx) external view returns(uint256) {\r\n    return marketSans[_idx].sanId;\r\n  }\r\n\r\n  function removeFromMarketSAN(uint256 _idx) internal {\r\n    require(_idx < marketSans.length);\r\n    for (uint256 i = _idx; i < marketSans.length - 1; i++){\r\n        marketSans[i] = marketSans[i+1];\r\n    }\r\n    delete marketSans[marketSans.length-1];\r\n    marketSans.length--;\r\n  }\r\n\r\n}\r\n",
  "sourcePath": "C:\\TTT_Platform\\contracts\\TTTSanMarket.sol",
  "compiler": {
    "name": "solc",
    "version": "0.4.21+commit.dfe3193c.Emscripten.clang"
  },
  "schemaVersion": "2.0.0",
  "updatedAt": "2018-06-23T14:18:22.616Z"
}