{
  "contractName": "TTTSan",
  "abi": [
    {
      "constant": true,
      "inputs": [],
      "name": "name",
      "outputs": [
        {
          "name": "",
          "type": "string"
        }
      ],
      "payable": false,
      "stateMutability": "view",
      "type": "function"
    },
    {
      "constant": true,
      "inputs": [
        {
          "name": "_tokenId",
          "type": "uint256"
        }
      ],
      "name": "getApproved",
      "outputs": [
        {
          "name": "",
          "type": "address"
        }
      ],
      "payable": false,
      "stateMutability": "view",
      "type": "function"
    },
    {
      "constant": true,
      "inputs": [],
      "name": "sanMaxFree",
      "outputs": [
        {
          "name": "",
          "type": "uint256"
        }
      ],
      "payable": false,
      "stateMutability": "view",
      "type": "function"
    },
    {
      "constant": false,
      "inputs": [
        {
          "name": "_to",
          "type": "address"
        },
        {
          "name": "_tokenId",
          "type": "uint256"
        }
      ],
      "name": "approve",
      "outputs": [],
      "payable": false,
      "stateMutability": "nonpayable",
      "type": "function"
    },
    {
      "constant": true,
      "inputs": [],
      "name": "sanMaxLength",
      "outputs": [
        {
          "name": "",
          "type": "uint256"
        }
      ],
      "payable": false,
      "stateMutability": "view",
      "type": "function"
    },
    {
      "constant": true,
      "inputs": [],
      "name": "totalSupply",
      "outputs": [
        {
          "name": "",
          "type": "uint256"
        }
      ],
      "payable": false,
      "stateMutability": "view",
      "type": "function"
    },
    {
      "constant": false,
      "inputs": [
        {
          "name": "_from",
          "type": "address"
        },
        {
          "name": "_to",
          "type": "address"
        },
        {
          "name": "_tokenId",
          "type": "uint256"
        }
      ],
      "name": "transferFrom",
      "outputs": [],
      "payable": false,
      "stateMutability": "nonpayable",
      "type": "function"
    },
    {
      "constant": true,
      "inputs": [
        {
          "name": "_owner",
          "type": "address"
        },
        {
          "name": "_index",
          "type": "uint256"
        }
      ],
      "name": "tokenOfOwnerByIndex",
      "outputs": [
        {
          "name": "",
          "type": "uint256"
        }
      ],
      "payable": false,
      "stateMutability": "view",
      "type": "function"
    },
    {
      "constant": false,
      "inputs": [
        {
          "name": "_from",
          "type": "address"
        },
        {
          "name": "_to",
          "type": "address"
        },
        {
          "name": "_tokenId",
          "type": "uint256"
        }
      ],
      "name": "safeTransferFrom",
      "outputs": [],
      "payable": false,
      "stateMutability": "nonpayable",
      "type": "function"
    },
    {
      "constant": true,
      "inputs": [
        {
          "name": "_tokenId",
          "type": "uint256"
        }
      ],
      "name": "exists",
      "outputs": [
        {
          "name": "",
          "type": "bool"
        }
      ],
      "payable": false,
      "stateMutability": "view",
      "type": "function"
    },
    {
      "constant": true,
      "inputs": [
        {
          "name": "_index",
          "type": "uint256"
        }
      ],
      "name": "tokenByIndex",
      "outputs": [
        {
          "name": "",
          "type": "uint256"
        }
      ],
      "payable": false,
      "stateMutability": "view",
      "type": "function"
    },
    {
      "constant": true,
      "inputs": [],
      "name": "wallet",
      "outputs": [
        {
          "name": "",
          "type": "address"
        }
      ],
      "payable": false,
      "stateMutability": "view",
      "type": "function"
    },
    {
      "constant": true,
      "inputs": [],
      "name": "baseUrl",
      "outputs": [
        {
          "name": "",
          "type": "string"
        }
      ],
      "payable": false,
      "stateMutability": "view",
      "type": "function"
    },
    {
      "constant": true,
      "inputs": [],
      "name": "sanCurrentTotal",
      "outputs": [
        {
          "name": "",
          "type": "uint256"
        }
      ],
      "payable": false,
      "stateMutability": "view",
      "type": "function"
    },
    {
      "constant": true,
      "inputs": [
        {
          "name": "_tokenId",
          "type": "uint256"
        }
      ],
      "name": "ownerOf",
      "outputs": [
        {
          "name": "",
          "type": "address"
        }
      ],
      "payable": false,
      "stateMutability": "view",
      "type": "function"
    },
    {
      "constant": true,
      "inputs": [],
      "name": "sanMaxAmount",
      "outputs": [
        {
          "name": "",
          "type": "uint256"
        }
      ],
      "payable": false,
      "stateMutability": "view",
      "type": "function"
    },
    {
      "constant": true,
      "inputs": [
        {
          "name": "_owner",
          "type": "address"
        }
      ],
      "name": "balanceOf",
      "outputs": [
        {
          "name": "",
          "type": "uint256"
        }
      ],
      "payable": false,
      "stateMutability": "view",
      "type": "function"
    },
    {
      "constant": true,
      "inputs": [],
      "name": "owner",
      "outputs": [
        {
          "name": "",
          "type": "address"
        }
      ],
      "payable": false,
      "stateMutability": "view",
      "type": "function"
    },
    {
      "constant": true,
      "inputs": [],
      "name": "marketAddress",
      "outputs": [
        {
          "name": "",
          "type": "address"
        }
      ],
      "payable": false,
      "stateMutability": "view",
      "type": "function"
    },
    {
      "constant": true,
      "inputs": [],
      "name": "symbol",
      "outputs": [
        {
          "name": "",
          "type": "string"
        }
      ],
      "payable": false,
      "stateMutability": "view",
      "type": "function"
    },
    {
      "constant": false,
      "inputs": [
        {
          "name": "_to",
          "type": "address"
        },
        {
          "name": "_approved",
          "type": "bool"
        }
      ],
      "name": "setApprovalForAll",
      "outputs": [],
      "payable": false,
      "stateMutability": "nonpayable",
      "type": "function"
    },
    {
      "constant": true,
      "inputs": [],
      "name": "tttTokenAddress",
      "outputs": [
        {
          "name": "",
          "type": "address"
        }
      ],
      "payable": false,
      "stateMutability": "view",
      "type": "function"
    },
    {
      "constant": true,
      "inputs": [],
      "name": "sanMinLength",
      "outputs": [
        {
          "name": "",
          "type": "uint256"
        }
      ],
      "payable": false,
      "stateMutability": "view",
      "type": "function"
    },
    {
      "constant": false,
      "inputs": [
        {
          "name": "_from",
          "type": "address"
        },
        {
          "name": "_to",
          "type": "address"
        },
        {
          "name": "_tokenId",
          "type": "uint256"
        },
        {
          "name": "_data",
          "type": "bytes"
        }
      ],
      "name": "safeTransferFrom",
      "outputs": [],
      "payable": false,
      "stateMutability": "nonpayable",
      "type": "function"
    },
    {
      "constant": true,
      "inputs": [
        {
          "name": "",
          "type": "uint256"
        }
      ],
      "name": "sans",
      "outputs": [
        {
          "name": "sanName",
          "type": "string"
        },
        {
          "name": "timeAlive",
          "type": "uint256"
        },
        {
          "name": "timeLastMove",
          "type": "uint256"
        },
        {
          "name": "prevOwner",
          "type": "address"
        },
        {
          "name": "sanageLink",
          "type": "string"
        }
      ],
      "payable": false,
      "stateMutability": "view",
      "type": "function"
    },
    {
      "constant": true,
      "inputs": [
        {
          "name": "_tokenId",
          "type": "uint256"
        }
      ],
      "name": "tokenURI",
      "outputs": [
        {
          "name": "",
          "type": "string"
        }
      ],
      "payable": false,
      "stateMutability": "view",
      "type": "function"
    },
    {
      "constant": true,
      "inputs": [
        {
          "name": "_owner",
          "type": "address"
        },
        {
          "name": "_operator",
          "type": "address"
        }
      ],
      "name": "isApprovedForAll",
      "outputs": [
        {
          "name": "",
          "type": "bool"
        }
      ],
      "payable": false,
      "stateMutability": "view",
      "type": "function"
    },
    {
      "constant": false,
      "inputs": [
        {
          "name": "newOwner",
          "type": "address"
        }
      ],
      "name": "transferOwnership",
      "outputs": [],
      "payable": false,
      "stateMutability": "nonpayable",
      "type": "function"
    },
    {
      "constant": true,
      "inputs": [],
      "name": "sanTTTCost",
      "outputs": [
        {
          "name": "",
          "type": "uint256"
        }
      ],
      "payable": false,
      "stateMutability": "view",
      "type": "function"
    },
    {
      "inputs": [],
      "payable": false,
      "stateMutability": "nonpayable",
      "type": "constructor"
    },
    {
      "payable": true,
      "stateMutability": "payable",
      "type": "fallback"
    },
    {
      "anonymous": false,
      "inputs": [
        {
          "indexed": false,
          "name": "sanOwner",
          "type": "address"
        },
        {
          "indexed": false,
          "name": "sanId",
          "type": "uint256"
        },
        {
          "indexed": false,
          "name": "sanName",
          "type": "string"
        }
      ],
      "name": "SanMinted",
      "type": "event"
    },
    {
      "anonymous": false,
      "inputs": [
        {
          "indexed": false,
          "name": "sanOwner",
          "type": "address"
        },
        {
          "indexed": false,
          "name": "amt",
          "type": "uint256"
        }
      ],
      "name": "SanSlotPurchase",
      "type": "event"
    },
    {
      "anonymous": false,
      "inputs": [
        {
          "indexed": false,
          "name": "cost",
          "type": "uint256"
        }
      ],
      "name": "SanCostUpdated",
      "type": "event"
    },
    {
      "anonymous": false,
      "inputs": [
        {
          "indexed": false,
          "name": "sanMinLength",
          "type": "uint256"
        },
        {
          "indexed": false,
          "name": "sanMaxLength",
          "type": "uint256"
        }
      ],
      "name": "SanLengthReqChange",
      "type": "event"
    },
    {
      "anonymous": false,
      "inputs": [
        {
          "indexed": false,
          "name": "sanMaxAmount",
          "type": "uint256"
        }
      ],
      "name": "SanMaxAmountChange",
      "type": "event"
    },
    {
      "anonymous": false,
      "inputs": [
        {
          "indexed": true,
          "name": "previousOwner",
          "type": "address"
        },
        {
          "indexed": true,
          "name": "newOwner",
          "type": "address"
        }
      ],
      "name": "OwnershipTransferred",
      "type": "event"
    },
    {
      "anonymous": false,
      "inputs": [
        {
          "indexed": true,
          "name": "_from",
          "type": "address"
        },
        {
          "indexed": true,
          "name": "_to",
          "type": "address"
        },
        {
          "indexed": false,
          "name": "_tokenId",
          "type": "uint256"
        }
      ],
      "name": "Transfer",
      "type": "event"
    },
    {
      "anonymous": false,
      "inputs": [
        {
          "indexed": true,
          "name": "_owner",
          "type": "address"
        },
        {
          "indexed": true,
          "name": "_approved",
          "type": "address"
        },
        {
          "indexed": false,
          "name": "_tokenId",
          "type": "uint256"
        }
      ],
      "name": "Approval",
      "type": "event"
    },
    {
      "anonymous": false,
      "inputs": [
        {
          "indexed": true,
          "name": "_owner",
          "type": "address"
        },
        {
          "indexed": true,
          "name": "_operator",
          "type": "address"
        },
        {
          "indexed": false,
          "name": "_approved",
          "type": "bool"
        }
      ],
      "name": "ApprovalForAll",
      "type": "event"
    },
    {
      "constant": false,
      "inputs": [
        {
          "name": "_sanName",
          "type": "string"
        },
        {
          "name": "_sanageUri",
          "type": "string"
        }
      ],
      "name": "sanMint",
      "outputs": [
        {
          "name": "",
          "type": "string"
        }
      ],
      "payable": false,
      "stateMutability": "nonpayable",
      "type": "function"
    },
    {
      "constant": true,
      "inputs": [
        {
          "name": "_sanId",
          "type": "uint256"
        }
      ],
      "name": "getSANOwner",
      "outputs": [
        {
          "name": "",
          "type": "address"
        }
      ],
      "payable": false,
      "stateMutability": "view",
      "type": "function"
    },
    {
      "constant": true,
      "inputs": [
        {
          "name": "_sanName",
          "type": "string"
        }
      ],
      "name": "getSanIdFromName",
      "outputs": [
        {
          "name": "",
          "type": "uint256"
        }
      ],
      "payable": false,
      "stateMutability": "view",
      "type": "function"
    },
    {
      "constant": true,
      "inputs": [
        {
          "name": "_sanId",
          "type": "uint256"
        }
      ],
      "name": "getSanName",
      "outputs": [
        {
          "name": "",
          "type": "string"
        }
      ],
      "payable": false,
      "stateMutability": "view",
      "type": "function"
    },
    {
      "constant": true,
      "inputs": [
        {
          "name": "_sanId",
          "type": "uint256"
        }
      ],
      "name": "getSanageLink",
      "outputs": [
        {
          "name": "",
          "type": "string"
        }
      ],
      "payable": false,
      "stateMutability": "view",
      "type": "function"
    },
    {
      "constant": true,
      "inputs": [
        {
          "name": "_sanId",
          "type": "uint256"
        }
      ],
      "name": "getSanTimeAlive",
      "outputs": [
        {
          "name": "",
          "type": "uint256"
        }
      ],
      "payable": false,
      "stateMutability": "view",
      "type": "function"
    },
    {
      "constant": true,
      "inputs": [
        {
          "name": "_sanId",
          "type": "uint256"
        }
      ],
      "name": "getSanTimeLastMove",
      "outputs": [
        {
          "name": "",
          "type": "uint256"
        }
      ],
      "payable": false,
      "stateMutability": "view",
      "type": "function"
    },
    {
      "constant": true,
      "inputs": [
        {
          "name": "_sanId",
          "type": "uint256"
        }
      ],
      "name": "getSanPrevOwner",
      "outputs": [
        {
          "name": "",
          "type": "address"
        }
      ],
      "payable": false,
      "stateMutability": "view",
      "type": "function"
    },
    {
      "constant": true,
      "inputs": [
        {
          "name": "_sanName",
          "type": "string"
        }
      ],
      "name": "getAddressFromSan",
      "outputs": [
        {
          "name": "",
          "type": "address"
        }
      ],
      "payable": false,
      "stateMutability": "view",
      "type": "function"
    },
    {
      "constant": true,
      "inputs": [
        {
          "name": "_sanOwner",
          "type": "address"
        }
      ],
      "name": "getSanSlots",
      "outputs": [
        {
          "name": "",
          "type": "uint256"
        }
      ],
      "payable": false,
      "stateMutability": "view",
      "type": "function"
    },
    {
      "constant": true,
      "inputs": [
        {
          "name": "_sanName",
          "type": "string"
        }
      ],
      "name": "getSANitized",
      "outputs": [
        {
          "name": "",
          "type": "string"
        }
      ],
      "payable": false,
      "stateMutability": "view",
      "type": "function"
    },
    {
      "constant": false,
      "inputs": [
        {
          "name": "_sanOwner",
          "type": "address"
        },
        {
          "name": "_tip",
          "type": "uint256"
        }
      ],
      "name": "buySanSlot",
      "outputs": [
        {
          "name": "",
          "type": "bool"
        }
      ],
      "payable": false,
      "stateMutability": "nonpayable",
      "type": "function"
    },
    {
      "constant": false,
      "inputs": [
        {
          "name": "_sanId",
          "type": "uint256"
        },
        {
          "name": "_sanName",
          "type": "string"
        },
        {
          "name": "_prevOwner",
          "type": "address"
        },
        {
          "name": "_newOwner",
          "type": "address"
        }
      ],
      "name": "marketSale",
      "outputs": [],
      "payable": false,
      "stateMutability": "nonpayable",
      "type": "function"
    },
    {
      "constant": false,
      "inputs": [
        {
          "name": "_cost",
          "type": "uint256"
        }
      ],
      "name": "setSanTTTCost",
      "outputs": [],
      "payable": false,
      "stateMutability": "nonpayable",
      "type": "function"
    },
    {
      "constant": false,
      "inputs": [
        {
          "name": "_length",
          "type": "uint256"
        },
        {
          "name": "_pos",
          "type": "uint256"
        }
      ],
      "name": "setSanLength",
      "outputs": [],
      "payable": false,
      "stateMutability": "nonpayable",
      "type": "function"
    },
    {
      "constant": false,
      "inputs": [
        {
          "name": "_amount",
          "type": "uint256"
        }
      ],
      "name": "setSanMaxAmount",
      "outputs": [],
      "payable": false,
      "stateMutability": "nonpayable",
      "type": "function"
    },
    {
      "constant": false,
      "inputs": [
        {
          "name": "_sanMaxFree",
          "type": "uint256"
        }
      ],
      "name": "setSanMaxFree",
      "outputs": [],
      "payable": false,
      "stateMutability": "nonpayable",
      "type": "function"
    },
    {
      "constant": false,
      "inputs": [
        {
          "name": "_sanOwner",
          "type": "address"
        },
        {
          "name": "_slotCount",
          "type": "uint256"
        }
      ],
      "name": "ownerAddSanSlot",
      "outputs": [],
      "payable": false,
      "stateMutability": "nonpayable",
      "type": "function"
    },
    {
      "constant": false,
      "inputs": [
        {
          "name": "_sanOwner",
          "type": "address[]"
        },
        {
          "name": "_slotCount",
          "type": "uint256[]"
        }
      ],
      "name": "ownerAddSanSlotBatch",
      "outputs": [],
      "payable": false,
      "stateMutability": "nonpayable",
      "type": "function"
    },
    {
      "constant": false,
      "inputs": [
        {
          "name": "_marketAddress",
          "type": "address"
        }
      ],
      "name": "setMarketAddress",
      "outputs": [],
      "payable": false,
      "stateMutability": "nonpayable",
      "type": "function"
    },
    {
      "constant": false,
      "inputs": [
        {
          "name": "_baseUrl",
          "type": "string"
        }
      ],
      "name": "setBaseUrl",
      "outputs": [],
      "payable": false,
      "stateMutability": "nonpayable",
      "type": "function"
    },
    {
      "constant": false,
      "inputs": [
        {
          "name": "_wallet",
          "type": "address"
        }
      ],
      "name": "setOwnerWallet",
      "outputs": [],
      "payable": false,
      "stateMutability": "nonpayable",
      "type": "function"
    },
    {
      "constant": false,
      "inputs": [
        {
          "name": "_sanId",
          "type": "uint256"
        },
        {
          "name": "_newUri",
          "type": "string"
        }
      ],
      "name": "updateTokenUri",
      "outputs": [],
      "payable": false,
      "stateMutability": "nonpayable",
      "type": "function"
    },
    {
      "constant": false,
      "inputs": [],
      "name": "emptyTTT",
      "outputs": [],
      "payable": false,
      "stateMutability": "nonpayable",
      "type": "function"
    },
    {
      "constant": false,
      "inputs": [],
      "name": "emptyEther",
      "outputs": [],
      "payable": false,
      "stateMutability": "nonpayable",
      "type": "function"
    },
    {
      "constant": false,
      "inputs": [
        {
          "name": "_sanName",
          "type": "string"
        },
        {
          "name": "_sanageUri",
          "type": "string"
        },
        {
          "name": "_address",
          "type": "address"
        }
      ],
      "name": "specialSanMint",
      "outputs": [
        {
          "name": "",
          "type": "string"
        }
      ],
      "payable": false,
      "stateMutability": "nonpayable",
      "type": "function"
    }
  ],
  "bytecode": "0x608060405273515165a6511734a4efb5cfb531955cf420b2725b600c60006101000a81548173ffffffffffffffffffffffffffffffffffffffff021916908373ffffffffffffffffffffffffffffffffffffffff1602179055507324358430f5b1f947b04d9d1a22beb6de01cabea2600d60006101000a81548173ffffffffffffffffffffffffffffffffffffffff021916908373ffffffffffffffffffffffffffffffffffffffff1602179055506040805190810160405280601f81526020017f68747470733a2f2f746865746970746f6b656e2e696f2f6172762f696d672f0081525060159080519060200190620000fb92919062001023565b503480156200010957600080fd5b50606062000116620010aa565b60006040805190810160405280600681526020017f54545453414e00000000000000000000000000000000000000000000000000008152506040805190810160405280600481526020017f545454530000000000000000000000000000000000000000000000000000000081525081600490805190602001906200019c92919062001023565b508060059080519060200190620001b592919062001023565b50505033600b60006101000a81548173ffffffffffffffffffffffffffffffffffffffff021916908373ffffffffffffffffffffffffffffffffffffffff160217905550678ac7230489e80000600f8190555060108081905550600260118190555060646012819055506101f4601381905550600d60009054906101000a900473ffffffffffffffffffffffffffffffffffffffff16601c60006101000a81548173ffffffffffffffffffffffffffffffffffffffff021916908373ffffffffffffffffffffffffffffffffffffffff160217905550606060405190810160405280602881526020017f4e65766572476f6e6e6147697665596f7555702e4e65766572476f6e6e614c6581526020017f74596f75446f776e000000000000000000000000000000000000000000000000815250925060a0604051908101604052808481526020014281526020014281526020013373ffffffffffffffffffffffffffffffffffffffff1681526020016040805190810160405280600281526020017f307800000000000000000000000000000000000000000000000000000000000081525081525091506200044b6001601b84908060018154018082558091505090600182039060005260206000209060050201600090919290919091506000820151816000019080519060200190620003b1929190620010f0565b50602082015181600101556040820151816002015560608201518160030160006101000a81548173ffffffffffffffffffffffffffffffffffffffff021916908373ffffffffffffffffffffffffffffffffffffffff16021790555060808201518160040190805190602001906200042b929190620010f0565b5050506200052e64010000000002620049b5179091906401000000009004565b905060016016846040518082805190602001908083835b60208310151562000489578051825260208201915060208101905060208303925062000462565b6001836020036101000a038019825116818451168082178552505050505050905001915050908152602001604051809103902060006101000a81548160ff0219169083151502179055506200052581336040805190810160405280600981526020017f67656e302e6a70656700000000000000000000000000000000000000000000008152508662000548640100000000026401000000009004565b5050506200119f565b60008282111515156200053d57fe5b818303905092915050565b601254601860008573ffffffffffffffffffffffffffffffffffffffff1673ffffffffffffffffffffffffffffffffffffffff1681526020019081526020016000205410151562000601576040517f08c379a000000000000000000000000000000000000000000000000000000000815260040180806020018281038252600d8152602001807f6d61782073616e206f776e65640000000000000000000000000000000000000081525060200191505060405180910390fd5b836019826040518082805190602001908083835b6020831015156200063c578051825260208201915060208101905060208303925062000615565b6001836020036101000a03801982511681845116808217855250505050505090500191505090815260200160405180910390208190555082601a826040518082805190602001908083835b602083101515620006ae578051825260208201915060208101905060208303925062000687565b6001836020036101000a038019825116818451168082178552505050505050905001915050908152602001604051809103902060006101000a81548173ffffffffffffffffffffffffffffffffffffffff021916908373ffffffffffffffffffffffffffffffffffffffff160217905550620007826001601860008673ffffffffffffffffffffffffffffffffffffffff1673ffffffffffffffffffffffffffffffffffffffff16815260200190815260200160002054620009c064010000000002620049ce179091906401000000009004565b601860008573ffffffffffffffffffffffffffffffffffffffff1673ffffffffffffffffffffffffffffffffffffffff16815260200190815260200160002081905550620007eb6001601454620009c064010000000002620049ce179091906401000000009004565b6014819055506200080c8385620009df640100000000026401000000009004565b620008df84620008ca60158054600181600116156101000203166002900480601f016020809104026020016040519081016040528092919081815260200182805460018160011615610100020316600290048015620008af5780601f106200088357610100808354040283529160200191620008af565b820191906000526020600020905b8154815290600101906020018083116200089157829003601f168201915b50505050508562000a4c640100000000026401000000009004565b62000c46640100000000026401000000009004565b7fdf5fffc2bd8c53e0c41aa67368817a9fb69561752c912bb1fa2e04d64d564f55838583604051808473ffffffffffffffffffffffffffffffffffffffff1673ffffffffffffffffffffffffffffffffffffffff16815260200183815260200180602001828103825283818151815260200191508051906020019080838360005b838110156200097d57808201518184015260208101905062000960565b50505050905090810190601f168015620009ab5780820380516001836020036101000a031916815260200191505b5094505050505060405180910390a150505050565b6000808284019050838110151515620009d557fe5b8091505092915050565b620009ff828262000c9a6401000000000262005cbe176401000000009004565b600880549050600960008381526020019081526020016000208190555060088190806001815401808255809150509060018203906000526020600020016000909192909190915055505050565b606080606080606060008088955087945062000a8285518751620009c064010000000002620049ce179091906401000000009004565b6040519080825280601f01601f19166020018201604052801562000ab55781602001602082028038833980820191505090505b50935083925060009150600090505b855181101562000b7b57858181518110151562000add57fe5b9060200101517f010000000000000000000000000000000000000000000000000000000000000090047f010000000000000000000000000000000000000000000000000000000000000002838380600101945081518110151562000b3d57fe5b9060200101907effffffffffffffffffffffffffffffffffffffffffffffffffffffffffffff1916908160001a905350808060010191505062000ac4565b600090505b845181101562000c3757848181518110151562000b9957fe5b9060200101517f010000000000000000000000000000000000000000000000000000000000000090047f010000000000000000000000000000000000000000000000000000000000000002838380600101945081518110151562000bf957fe5b9060200101907effffffffffffffffffffffffffffffffffffffffffffffffffffffffffffff1916908160001a905350808060010191505062000b80565b82965050505050505092915050565b62000c608262000d5c640100000000026401000000009004565b151562000c6c57600080fd5b80600a6000848152602001908152602001600020908051906020019062000c9592919062001023565b505050565b600073ffffffffffffffffffffffffffffffffffffffff168273ffffffffffffffffffffffffffffffffffffffff161415151562000cd757600080fd5b62000cf2828262000dcd640100000000026401000000009004565b8173ffffffffffffffffffffffffffffffffffffffff16600073ffffffffffffffffffffffffffffffffffffffff167fddf252ad1be2c89b69c2b068fc378daa952ba7f163c4a11628f55a4df523b3ef836040518082815260200191505060405180910390a35050565b60008060008084815260200190815260200160002060009054906101000a900473ffffffffffffffffffffffffffffffffffffffff169050600073ffffffffffffffffffffffffffffffffffffffff168173ffffffffffffffffffffffffffffffffffffffff161415915050919050565b600062000def838362000eba64010000000002620054c4176401000000009004565b600660008473ffffffffffffffffffffffffffffffffffffffff1673ffffffffffffffffffffffffffffffffffffffff168152602001908152602001600020805490509050600660008473ffffffffffffffffffffffffffffffffffffffff1673ffffffffffffffffffffffffffffffffffffffff168152602001908152602001600020829080600181540180825580915050906001820390600052602060002001600090919290919091505550806007600084815260200190815260200160002081905550505050565b600073ffffffffffffffffffffffffffffffffffffffff1660008083815260200190815260200160002060009054906101000a900473ffffffffffffffffffffffffffffffffffffffff1673ffffffffffffffffffffffffffffffffffffffff1614151562000f2857600080fd5b8160008083815260200190815260200160002060006101000a81548173ffffffffffffffffffffffffffffffffffffffff021916908373ffffffffffffffffffffffffffffffffffffffff16021790555062000fdc6001600260008573ffffffffffffffffffffffffffffffffffffffff1673ffffffffffffffffffffffffffffffffffffffff16815260200190815260200160002054620009c064010000000002620049ce179091906401000000009004565b600260008473ffffffffffffffffffffffffffffffffffffffff1673ffffffffffffffffffffffffffffffffffffffff168152602001908152602001600020819055505050565b828054600181600116156101000203166002900490600052602060002090601f016020900481019282601f106200106657805160ff191683800117855562001097565b8280016001018555821562001097579182015b828111156200109657825182559160200191906001019062001079565b5b509050620010a6919062001177565b5090565b60a060405190810160405280606081526020016000815260200160008152602001600073ffffffffffffffffffffffffffffffffffffffff168152602001606081525090565b828054600181600116156101000203166002900490600052602060002090601f016020900481019282601f106200113357805160ff191683800117855562001164565b8280016001018555821562001164579182015b828111156200116357825182559160200191906001019062001146565b5b50905062001173919062001177565b5090565b6200119c91905b80821115620011985760008160009055506001016200117e565b5090565b90565b61606f80620011af6000396000f300608060405260043610610293576000357c0100000000000000000000000000000000000000000000000000000000900463ffffffff16806306fdde0314610298578063081812fc146103285780630821c87e14610395578063095ea7b3146103c057806310adb0ea1461040d57806318160ddd1461043857806319236b4e146104635780632317f9f3146104a457806323b872dd146104d15780632712d9161461053e5780632f745c591461056b5780633289fba6146105cc57806332c35352146106395780633303a9d8146106be57806341c838cb146107aa57806342842e0e1461085e57806347f5666f146108cb57806348a87fa8146109485780634d40ed9c1461095f5780634f558e791461098c5780634f6ccce7146109d157806350b7972214610a12578063521eb27314610a495780635bcabf0414610aa05780635e1d9aba14610b305780636352211e14610b5b57806367fbb7ba14610bc8578063682ed9ea14610c1b5780636dd6e67314610c4657806370a0823114610cab5780638da5cb5b14610d02578063922f17ce14610d595780639562364114610d7057806395d89b4114610dc7578063975c5cab14610e57578063a22cb46514610efd578063a64ded3114610f4c578063a9eeaeee14610fa3578063aaf4991014610ffa578063ab91154e14611025578063b70fadb714611072578063b88d4fde1461111b578063bb542ef0146111ce578063be9ddfed14611211578063c294c93b14611252578063c30d9a7e146112bf578063c7c3268b14611412578063c87b56dd1461147b578063d31af48414611521578063d812d96114611594578063d88905fa1461163a578063e985e9c514611706578063f2fde38b14611781578063f569626d146117c4578063fae92612146117ef575b600080fd5b3480156102a457600080fd5b506102ad611832565b6040518080602001828103825283818151815260200191508051906020019080838360005b838110156102ed5780820151818401526020810190506102d2565b50505050905090810190601f16801561031a5780820380516001836020036101000a031916815260200191505b509250505060405180910390f35b34801561033457600080fd5b50610353600480360381019080803590602001909291905050506118d4565b604051808273ffffffffffffffffffffffffffffffffffffffff1673ffffffffffffffffffffffffffffffffffffffff16815260200191505060405180910390f35b3480156103a157600080fd5b506103aa611911565b6040518082815260200191505060405180910390f35b3480156103cc57600080fd5b5061040b600480360381019080803573ffffffffffffffffffffffffffffffffffffffff16906020019092919080359060200190929190505050611917565b005b34801561041957600080fd5b50610422611add565b6040518082815260200191505060405180910390f35b34801561044457600080fd5b5061044d611ae3565b6040518082815260200191505060405180910390f35b34801561046f57600080fd5b5061048e60048036038101908080359060200190929190505050611af0565b6040518082815260200191505060405180910390f35b3480156104b057600080fd5b506104cf60048036038101908080359060200190929190505050611b1a565b005b3480156104dd57600080fd5b5061053c600480360381019080803573ffffffffffffffffffffffffffffffffffffffff169060200190929190803573ffffffffffffffffffffffffffffffffffffffff16906020019092919080359060200190929190505050611bb9565b005b34801561054a57600080fd5b5061056960048036038101908080359060200190929190505050611cd0565b005b34801561057757600080fd5b506105b6600480360381019080803573ffffffffffffffffffffffffffffffffffffffff16906020019092919080359060200190929190505050611d6f565b6040518082815260200191505060405180910390f35b3480156105d857600080fd5b506105f760048036038101908080359060200190929190505050611de6565b604051808273ffffffffffffffffffffffffffffffffffffffff1673ffffffffffffffffffffffffffffffffffffffff16815260200191505060405180910390f35b34801561064557600080fd5b506106bc60048036038101908080359060200190929190803590602001908201803590602001919091929391929390803573ffffffffffffffffffffffffffffffffffffffff169060200190929190803573ffffffffffffffffffffffffffffffffffffffff169060200190929190505050611e30565b005b3480156106ca57600080fd5b5061072f600480360381019080803590602001908201803590602001919091929391929390803590602001908201803590602001919091929391929390803573ffffffffffffffffffffffffffffffffffffffff1690602001909291905050506121ca565b6040518080602001828103825283818151815260200191508051906020019080838360005b8381101561076f578082015181840152602081019050610754565b50505050905090810190601f16801561079c5780820380516001836020036101000a031916815260200191505b509250505060405180910390f35b3480156107b657600080fd5b506107e3600480360381019080803590602001908201803590602001919091929391929390505050612460565b6040518080602001828103825283818151815260200191508051906020019080838360005b83811015610823578082015181840152602081019050610808565b50505050905090810190601f1680156108505780820380516001836020036101000a031916815260200191505b509250505060405180910390f35b34801561086a57600080fd5b506108c9600480360381019080803573ffffffffffffffffffffffffffffffffffffffff169060200190929190803573ffffffffffffffffffffffffffffffffffffffff169060200190929190803590602001909291905050506124a5565b005b3480156108d757600080fd5b50610932600480360381019080803590602001908201803590602001908080601f01602080910402602001604051908101604052809392919081815260200183838082843782019150505050505091929192905050506124dd565b6040518082815260200191505060405180910390f35b34801561095457600080fd5b5061095d612552565b005b34801561096b57600080fd5b5061098a600480360381019080803590602001909291905050506127a8565b005b34801561099857600080fd5b506109b76004803603810190808035906020019092919050505061280e565b604051808215151515815260200191505060405180910390f35b3480156109dd57600080fd5b506109fc6004803603810190808035906020019092919050505061287f565b6040518082815260200191505060405180910390f35b348015610a1e57600080fd5b50610a4760048036038101908080359060200190929190803590602001909291905050506128b7565b005b348015610a5557600080fd5b50610a5e612986565b604051808273ffffffffffffffffffffffffffffffffffffffff1673ffffffffffffffffffffffffffffffffffffffff16815260200191505060405180910390f35b348015610aac57600080fd5b50610ab56129ac565b6040518080602001828103825283818151815260200191508051906020019080838360005b83811015610af5578082015181840152602081019050610ada565b50505050905090810190601f168015610b225780820380516001836020036101000a031916815260200191505b509250505060405180910390f35b348015610b3c57600080fd5b50610b45612a4a565b6040518082815260200191505060405180910390f35b348015610b6757600080fd5b50610b8660048036038101908080359060200190929190505050612a50565b604051808273ffffffffffffffffffffffffffffffffffffffff1673ffffffffffffffffffffffffffffffffffffffff16815260200191505060405180910390f35b348015610bd457600080fd5b50610c19600480360381019080803590602001908201803590602001919091929391929390803590602001908201803590602001919091929391929390505050612acd565b005b348015610c2757600080fd5b50610c30612e19565b6040518082815260200191505060405180910390f35b348015610c5257600080fd5b50610c91600480360381019080803573ffffffffffffffffffffffffffffffffffffffff16906020019092919080359060200190929190505050612e1f565b604051808215151515815260200191505060405180910390f35b348015610cb757600080fd5b50610cec600480360381019080803573ffffffffffffffffffffffffffffffffffffffff1690602001909291905050506131b6565b6040518082815260200191505060405180910390f35b348015610d0e57600080fd5b50610d1761323a565b604051808273ffffffffffffffffffffffffffffffffffffffff1673ffffffffffffffffffffffffffffffffffffffff16815260200191505060405180910390f35b348015610d6557600080fd5b50610d6e613260565b005b348015610d7c57600080fd5b50610d8561333e565b604051808273ffffffffffffffffffffffffffffffffffffffff1673ffffffffffffffffffffffffffffffffffffffff16815260200191505060405180910390f35b348015610dd357600080fd5b50610ddc613364565b6040518080602001828103825283818151815260200191508051906020019080838360005b83811015610e1c578082015181840152602081019050610e01565b50505050905090810190601f168015610e495780820380516001836020036101000a031916815260200191505b509250505060405180910390f35b348015610e6357600080fd5b50610e8260048036038101908080359060200190929190505050613406565b6040518080602001828103825283818151815260200191508051906020019080838360005b83811015610ec2578082015181840152602081019050610ea7565b50505050905090810190601f168015610eef5780820380516001836020036101000a031916815260200191505b509250505060405180910390f35b348015610f0957600080fd5b50610f4a600480360381019080803573ffffffffffffffffffffffffffffffffffffffff1690602001909291908035151590602001909291905050506134c8565b005b348015610f5857600080fd5b50610f61613604565b604051808273ffffffffffffffffffffffffffffffffffffffff1673ffffffffffffffffffffffffffffffffffffffff16815260200191505060405180910390f35b348015610faf57600080fd5b50610fe4600480360381019080803573ffffffffffffffffffffffffffffffffffffffff16906020019092919050505061362a565b6040518082815260200191505060405180910390f35b34801561100657600080fd5b5061100f613673565b6040518082815260200191505060405180910390f35b34801561103157600080fd5b50611070600480360381019080803573ffffffffffffffffffffffffffffffffffffffff16906020019092919080359060200190929190505050613679565b005b34801561107e57600080fd5b506110d9600480360381019080803590602001908201803590602001908080601f01602080910402602001604051908101604052809392919081815260200183838082843782019150505050505091929192905050506137da565b604051808273ffffffffffffffffffffffffffffffffffffffff1673ffffffffffffffffffffffffffffffffffffffff16815260200191505060405180910390f35b34801561112757600080fd5b506111cc600480360381019080803573ffffffffffffffffffffffffffffffffffffffff169060200190929190803573ffffffffffffffffffffffffffffffffffffffff16906020019092919080359060200190929190803590602001908201803590602001908080601f016020809104026020016040519081016040528093929190818152602001838380828437820191505050505050919291929050505061386f565b005b3480156111da57600080fd5b5061120f600480360381019080803573ffffffffffffffffffffffffffffffffffffffff1690602001909291905050506138ae565b005b34801561121d57600080fd5b5061123c6004803603810190808035906020019092919050505061394e565b6040518082815260200191505060405180910390f35b34801561125e57600080fd5b5061127d60048036038101908080359060200190929190505050613978565b604051808273ffffffffffffffffffffffffffffffffffffffff1673ffffffffffffffffffffffffffffffffffffffff16815260200191505060405180910390f35b3480156112cb57600080fd5b506112ea6004803603810190808035906020019092919050505061398a565b60405180806020018681526020018581526020018473ffffffffffffffffffffffffffffffffffffffff1673ffffffffffffffffffffffffffffffffffffffff16815260200180602001838103835288818151815260200191508051906020019080838360005b8381101561136c578082015181840152602081019050611351565b50505050905090810190601f1680156113995780820380516001836020036101000a031916815260200191505b50838103825284818151815260200191508051906020019080838360005b838110156113d25780820151818401526020810190506113b7565b50505050905090810190601f1680156113ff5780820380516001836020036101000a031916815260200191505b5097505050505050505060405180910390f35b34801561141e57600080fd5b50611479600480360381019080803590602001908201803590602001908080601f0160208091040260200160405190810160405280939291908181526020018383808284378201915050505050509192919290505050613b1f565b005b34801561148757600080fd5b506114a660048036038101908080359060200190929190505050613b95565b6040518080602001828103825283818151815260200191508051906020019080838360005b838110156114e65780820151818401526020810190506114cb565b50505050905090810190601f1680156115135780820380516001836020036101000a031916815260200191505b509250505060405180910390f35b34801561152d57600080fd5b5061159260048036038101908080359060200190929190803590602001908201803590602001908080601f0160208091040260200160405190810160405280939291908181526020018383808284378201915050505050509192919290505050613c5e565b005b3480156115a057600080fd5b506115bf60048036038101908080359060200190929190505050613da6565b6040518080602001828103825283818151815260200191508051906020019080838360005b838110156115ff5780820151818401526020810190506115e4565b50505050905090810190601f16801561162c5780820380516001836020036101000a031916815260200191505b509250505060405180910390f35b34801561164657600080fd5b5061168b600480360381019080803590602001908201803590602001919091929391929390803590602001908201803590602001919091929391929390505050613e68565b6040518080602001828103825283818151815260200191508051906020019080838360005b838110156116cb5780820151818401526020810190506116b0565b50505050905090810190601f1680156116f85780820380516001836020036101000a031916815260200191505b509250505060405180910390f35b34801561171257600080fd5b50611767600480360381019080803573ffffffffffffffffffffffffffffffffffffffff169060200190929190803573ffffffffffffffffffffffffffffffffffffffff169060200190929190505050614236565b604051808215151515815260200191505060405180910390f35b34801561178d57600080fd5b506117c2600480360381019080803573ffffffffffffffffffffffffffffffffffffffff1690602001909291905050506142ca565b005b3480156117d057600080fd5b506117d9614422565b6040518082815260200191505060405180910390f35b3480156117fb57600080fd5b50611830600480360381019080803573ffffffffffffffffffffffffffffffffffffffff169060200190929190505050614428565b005b606060048054600181600116156101000203166002900480601f0160208091040260200160405190810160405280929190818152602001828054600181600116156101000203166002900480156118ca5780601f1061189f576101008083540402835291602001916118ca565b820191906000526020600020905b8154815290600101906020018083116118ad57829003601f168201915b5050505050905090565b60006001600083815260200190815260200160002060009054906101000a900473ffffffffffffffffffffffffffffffffffffffff169050919050565b60135481565b600061192282612a50565b90508073ffffffffffffffffffffffffffffffffffffffff168373ffffffffffffffffffffffffffffffffffffffff161415151561195f57600080fd5b8073ffffffffffffffffffffffffffffffffffffffff163373ffffffffffffffffffffffffffffffffffffffff16148061199f575061199e8133614236565b5b15156119aa57600080fd5b600073ffffffffffffffffffffffffffffffffffffffff166119cb836118d4565b73ffffffffffffffffffffffffffffffffffffffff16141580611a1b5750600073ffffffffffffffffffffffffffffffffffffffff168373ffffffffffffffffffffffffffffffffffffffff1614155b15611ad857826001600084815260200190815260200160002060006101000a81548173ffffffffffffffffffffffffffffffffffffffff021916908373ffffffffffffffffffffffffffffffffffffffff1602179055508273ffffffffffffffffffffffffffffffffffffffff168173ffffffffffffffffffffffffffffffffffffffff167f8c5be1e5ebec7d5bd14f71427d1e84f3dd0314c0f7b2291e5b200ac8c7c3b925846040518082815260200191505060405180910390a35b505050565b60105481565b6000600880549050905090565b6000601b82815481101515611b0157fe5b9060005260206000209060050201600101549050919050565b600b60009054906101000a900473ffffffffffffffffffffffffffffffffffffffff1673ffffffffffffffffffffffffffffffffffffffff163373ffffffffffffffffffffffffffffffffffffffff16141515611b7657600080fd5b806012819055507f439c1f741a67df0d21dffd7ac786b0e68b02909477420bfaa4866a75733c68076012546040518082815260200191505060405180910390a150565b80611bc433826144c8565b1515611bcf57600080fd5b600073ffffffffffffffffffffffffffffffffffffffff168473ffffffffffffffffffffffffffffffffffffffff1614151515611c0b57600080fd5b600073ffffffffffffffffffffffffffffffffffffffff168373ffffffffffffffffffffffffffffffffffffffff1614151515611c4757600080fd5b611c51848361455d565b611c5b84836146c6565b611c6583836148de565b8273ffffffffffffffffffffffffffffffffffffffff168473ffffffffffffffffffffffffffffffffffffffff167fddf252ad1be2c89b69c2b068fc378daa952ba7f163c4a11628f55a4df523b3ef846040518082815260200191505060405180910390a350505050565b600b60009054906101000a900473ffffffffffffffffffffffffffffffffffffffff1673ffffffffffffffffffffffffffffffffffffffff163373ffffffffffffffffffffffffffffffffffffffff16141515611d2c57600080fd5b80600f819055507f1bc6f82d618975ff4242b334df6c761706538b8ec1b621d49c12bb53c1059f1a600f546040518082815260200191505060405180910390a150565b6000611d7a836131b6565b82101515611d8757600080fd5b600660008473ffffffffffffffffffffffffffffffffffffffff1673ffffffffffffffffffffffffffffffffffffffff16815260200190815260200160002082815481101515611dd357fe5b9060005260206000200154905092915050565b6000601b82815481101515611df757fe5b906000526020600020906005020160030160009054906101000a900473ffffffffffffffffffffffffffffffffffffffff169050919050565b6000600e60009054906101000a900473ffffffffffffffffffffffffffffffffffffffff1673ffffffffffffffffffffffffffffffffffffffff163373ffffffffffffffffffffffffffffffffffffffff16141515611e8e57600080fd5b601b86815481101515611e9d57fe5b90600052602060002090600502019050828160030160006101000a81548173ffffffffffffffffffffffffffffffffffffffff021916908373ffffffffffffffffffffffffffffffffffffffff16021790555042816002018190555081601a868660405180838380828437820191505092505050908152602001604051809103902060006101000a81548173ffffffffffffffffffffffffffffffffffffffff021916908373ffffffffffffffffffffffffffffffffffffffff160217905550601354601454111561209657611fbc6001601760008673ffffffffffffffffffffffffffffffffffffffff1673ffffffffffffffffffffffffffffffffffffffff168152602001908152602001600020546149b590919063ffffffff16565b601760008573ffffffffffffffffffffffffffffffffffffffff1673ffffffffffffffffffffffffffffffffffffffff168152602001908152602001600020819055506120526001601760008573ffffffffffffffffffffffffffffffffffffffff1673ffffffffffffffffffffffffffffffffffffffff168152602001908152602001600020546149ce90919063ffffffff16565b601760008473ffffffffffffffffffffffffffffffffffffffff1673ffffffffffffffffffffffffffffffffffffffff168152602001908152602001600020819055505b6120e96001601860008673ffffffffffffffffffffffffffffffffffffffff1673ffffffffffffffffffffffffffffffffffffffff168152602001908152602001600020546149b590919063ffffffff16565b601860008573ffffffffffffffffffffffffffffffffffffffff1673ffffffffffffffffffffffffffffffffffffffff1681526020019081526020016000208190555061217f6001601860008573ffffffffffffffffffffffffffffffffffffffff1673ffffffffffffffffffffffffffffffffffffffff168152602001908152602001600020546149ce90919063ffffffff16565b601860008473ffffffffffffffffffffffffffffffffffffffff1673ffffffffffffffffffffffffffffffffffffffff16815260200190815260200160002081905550505050505050565b60606121d4615eac565b6000600b60009054906101000a900473ffffffffffffffffffffffffffffffffffffffff1673ffffffffffffffffffffffffffffffffffffffff163373ffffffffffffffffffffffffffffffffffffffff1614151561223257600080fd5b60a06040519081016040528089898080601f01602080910402602001604051908101604052809392919081815260200183838082843782019150505050505081526020014281526020014281526020018573ffffffffffffffffffffffffffffffffffffffff16815260200187878080601f01602080910402602001604051908101604052809392919081815260200183838082843782019150505050505081525091506123ae6001601b84908060018154018082558091505090600182039060005260206000209060050201600090919290919091506000820151816000019080519060200190612325929190615ef2565b50602082015181600101556040820151816002015560608201518160030160006101000a81548173ffffffffffffffffffffffffffffffffffffffff021916908373ffffffffffffffffffffffffffffffffffffffff160217905550608082015181600401908051906020019061239d929190615ef2565b5050506149b590919063ffffffff16565b9050612420818588888080601f0160208091040260200160405190810160405280939291908181526020018383808284378201915050505050508b8b8080601f0160208091040260200160405190810160405280939291908181526020018383808284378201915050505050506149ec565b87878080601f0160208091040260200160405190810160405280939291908181526020018383808284378201915050505050509250505095945050505050565b606061249d83838080601f016020809104026020016040519081016040528093929190818152602001838380828437820191505050505050614e05565b905092915050565b806124b033826144c8565b15156124bb57600080fd5b6124d7848484602060405190810160405280600081525061386f565b50505050565b60006019826040518082805190602001908083835b60208310151561251757805182526020820191506020810190506020830392506124f2565b6001836020036101000a0380198251168184511680821785525050505050509050019150509081526020016040518091039020549050919050565b600b60009054906101000a900473ffffffffffffffffffffffffffffffffffffffff1673ffffffffffffffffffffffffffffffffffffffff163373ffffffffffffffffffffffffffffffffffffffff161415156125ae57600080fd5b601c60009054906101000a900473ffffffffffffffffffffffffffffffffffffffff1673ffffffffffffffffffffffffffffffffffffffff1663a9059cbb33601c60009054906101000a900473ffffffffffffffffffffffffffffffffffffffff1673ffffffffffffffffffffffffffffffffffffffff166370a08231306040518263ffffffff167c0100000000000000000000000000000000000000000000000000000000028152600401808273ffffffffffffffffffffffffffffffffffffffff1673ffffffffffffffffffffffffffffffffffffffff168152602001915050602060405180830381600087803b1580156126aa57600080fd5b505af11580156126be573d6000803e3d6000fd5b505050506040513d60208110156126d457600080fd5b81019080805190602001909291905050506040518363ffffffff167c0100000000000000000000000000000000000000000000000000000000028152600401808373ffffffffffffffffffffffffffffffffffffffff1673ffffffffffffffffffffffffffffffffffffffff16815260200182815260200192505050602060405180830381600087803b15801561276a57600080fd5b505af115801561277e573d6000803e3d6000fd5b505050506040513d602081101561279457600080fd5b810190808051906020019092919050505050565b600b60009054906101000a900473ffffffffffffffffffffffffffffffffffffffff1673ffffffffffffffffffffffffffffffffffffffff163373ffffffffffffffffffffffffffffffffffffffff1614151561280457600080fd5b8060138190555050565b60008060008084815260200190815260200160002060009054906101000a900473ffffffffffffffffffffffffffffffffffffffff169050600073ffffffffffffffffffffffffffffffffffffffff168173ffffffffffffffffffffffffffffffffffffffff161415915050919050565b6000612889611ae3565b8210151561289657600080fd5b6008828154811015156128a557fe5b90600052602060002001549050919050565b600b60009054906101000a900473ffffffffffffffffffffffffffffffffffffffff1673ffffffffffffffffffffffffffffffffffffffff163373ffffffffffffffffffffffffffffffffffffffff1614151561291357600080fd5b60008211151561292257600080fd5b6000811415612937578160118190555061293f565b816010819055505b7fa1732dafb1d0db5738eecd8b449c6cf9e7e2e0cd1002bc70aff943f513411c98601154601054604051808381526020018281526020019250505060405180910390a15050565b600c60009054906101000a900473ffffffffffffffffffffffffffffffffffffffff1681565b60158054600181600116156101000203166002900480601f016020809104026020016040519081016040528092919081815260200182805460018160011615610100020316600290048015612a425780601f10612a1757610100808354040283529160200191612a42565b820191906000526020600020905b815481529060010190602001808311612a2557829003601f168201915b505050505081565b60145481565b60008060008084815260200190815260200160002060009054906101000a900473ffffffffffffffffffffffffffffffffffffffff169050600073ffffffffffffffffffffffffffffffffffffffff168173ffffffffffffffffffffffffffffffffffffffff1614151515612ac457600080fd5b80915050919050565b6000600b60009054906101000a900473ffffffffffffffffffffffffffffffffffffffff1673ffffffffffffffffffffffffffffffffffffffff163373ffffffffffffffffffffffffffffffffffffffff16141515612b2b57600080fd5b8282905085859050141515612b3f57600080fd5b60648585905011151515612b5257600080fd5b600090505b848490508160ff161015612e1257600083838360ff168181101515612b7857fe5b90506020020135118015612ba5575060125483838360ff168181101515612b9b57fe5b9050602002013511155b1515612c19576040517f08c379a00000000000000000000000000000000000000000000000000000000081526004018080602001828103825260148152602001807f696e636f727265637420736c6f7420636f756e7400000000000000000000000081525060200191505060405180910390fd5b612caf83838360ff168181101515612c2d57fe5b905060200201356017600088888660ff168181101515612c4957fe5b9050602002013573ffffffffffffffffffffffffffffffffffffffff1673ffffffffffffffffffffffffffffffffffffffff1673ffffffffffffffffffffffffffffffffffffffff168152602001908152602001600020546149ce90919063ffffffff16565b6017600087878560ff168181101515612cc457fe5b9050602002013573ffffffffffffffffffffffffffffffffffffffff1673ffffffffffffffffffffffffffffffffffffffff1673ffffffffffffffffffffffffffffffffffffffff168152602001908152602001600020819055506012546017600087878560ff168181101515612d3757fe5b9050602002013573ffffffffffffffffffffffffffffffffffffffff1673ffffffffffffffffffffffffffffffffffffffff1673ffffffffffffffffffffffffffffffffffffffff1681526020019081526020016000205411151515612e05576040517f08c379a00000000000000000000000000000000000000000000000000000000081526004018080602001828103825260138152602001807f6d61782073616e20736c6f7473206f776e65640000000000000000000000000081525060200191505060405180910390fd5b8080600101915050612b57565b5050505050565b60125481565b6000600f548210151515612e9b576040517f08c379a00000000000000000000000000000000000000000000000000000000081526004018080602001828103825260168152602001807f746970206c657373207468616e2073616e20636f73740000000000000000000081525060200191505060405180910390fd5b601254601760008573ffffffffffffffffffffffffffffffffffffffff1673ffffffffffffffffffffffffffffffffffffffff16815260200190815260200160002054101515612f53576040517f08c379a00000000000000000000000000000000000000000000000000000000081526004018080602001828103825260138152602001807f6d61782073616e20736c6f7473206f776e65640000000000000000000000000081525060200191505060405180910390fd5b612fa66001601760008673ffffffffffffffffffffffffffffffffffffffff1673ffffffffffffffffffffffffffffffffffffffff168152602001908152602001600020546149ce90919063ffffffff16565b601760008573ffffffffffffffffffffffffffffffffffffffff1673ffffffffffffffffffffffffffffffffffffffff16815260200190815260200160002081905550601c60009054906101000a900473ffffffffffffffffffffffffffffffffffffffff1673ffffffffffffffffffffffffffffffffffffffff166323b872dd33600c60009054906101000a900473ffffffffffffffffffffffffffffffffffffffff16856040518463ffffffff167c0100000000000000000000000000000000000000000000000000000000028152600401808473ffffffffffffffffffffffffffffffffffffffff1673ffffffffffffffffffffffffffffffffffffffff1681526020018373ffffffffffffffffffffffffffffffffffffffff1673ffffffffffffffffffffffffffffffffffffffff1681526020018281526020019350505050602060405180830381600087803b15801561310457600080fd5b505af1158015613118573d6000803e3d6000fd5b505050506040513d602081101561312e57600080fd5b8101908080519060200190929190505050507fe1f97067fba5a383414b6cdc20d71c41d2b897088dc264e8590c013d7a26a554836001604051808373ffffffffffffffffffffffffffffffffffffffff1673ffffffffffffffffffffffffffffffffffffffff1681526020018281526020019250505060405180910390a16001905092915050565b60008073ffffffffffffffffffffffffffffffffffffffff168273ffffffffffffffffffffffffffffffffffffffff16141515156131f357600080fd5b600260008373ffffffffffffffffffffffffffffffffffffffff1673ffffffffffffffffffffffffffffffffffffffff168152602001908152602001600020549050919050565b600b60009054906101000a900473ffffffffffffffffffffffffffffffffffffffff1681565b600b60009054906101000a900473ffffffffffffffffffffffffffffffffffffffff1673ffffffffffffffffffffffffffffffffffffffff163373ffffffffffffffffffffffffffffffffffffffff161415156132bc57600080fd5b600b60009054906101000a900473ffffffffffffffffffffffffffffffffffffffff1673ffffffffffffffffffffffffffffffffffffffff166108fc3073ffffffffffffffffffffffffffffffffffffffff16319081150290604051600060405180830381858888f1935050505015801561333b573d6000803e3d6000fd5b50565b600e60009054906101000a900473ffffffffffffffffffffffffffffffffffffffff1681565b606060058054600181600116156101000203166002900480601f0160208091040260200160405190810160405280929190818152602001828054600181600116156101000203166002900480156133fc5780601f106133d1576101008083540402835291602001916133fc565b820191906000526020600020905b8154815290600101906020018083116133df57829003601f168201915b5050505050905090565b6060601b8281548110151561341757fe5b90600052602060002090600502016004018054600181600116156101000203166002900480601f0160208091040260200160405190810160405280929190818152602001828054600181600116156101000203166002900480156134bc5780601f10613491576101008083540402835291602001916134bc565b820191906000526020600020905b81548152906001019060200180831161349f57829003601f168201915b50505050509050919050565b3373ffffffffffffffffffffffffffffffffffffffff168273ffffffffffffffffffffffffffffffffffffffff161415151561350357600080fd5b80600360003373ffffffffffffffffffffffffffffffffffffffff1673ffffffffffffffffffffffffffffffffffffffff16815260200190815260200160002060008473ffffffffffffffffffffffffffffffffffffffff1673ffffffffffffffffffffffffffffffffffffffff16815260200190815260200160002060006101000a81548160ff0219169083151502179055508173ffffffffffffffffffffffffffffffffffffffff163373ffffffffffffffffffffffffffffffffffffffff167f17307eab39ab6107e8899845ad3d59bd9653f200f220920489ca2b5937696c3183604051808215151515815260200191505060405180910390a35050565b600d60009054906101000a900473ffffffffffffffffffffffffffffffffffffffff1681565b6000601760008373ffffffffffffffffffffffffffffffffffffffff1673ffffffffffffffffffffffffffffffffffffffff168152602001908152602001600020549050919050565b60115481565b600b60009054906101000a900473ffffffffffffffffffffffffffffffffffffffff1673ffffffffffffffffffffffffffffffffffffffff163373ffffffffffffffffffffffffffffffffffffffff161415156136d557600080fd5b6000811180156136e757506012548111155b15156136f257600080fd5b601254601760008473ffffffffffffffffffffffffffffffffffffffff1673ffffffffffffffffffffffffffffffffffffffff1681526020019081526020016000205410151561374157600080fd5b61379381601760008573ffffffffffffffffffffffffffffffffffffffff1673ffffffffffffffffffffffffffffffffffffffff168152602001908152602001600020546149ce90919063ffffffff16565b601760008473ffffffffffffffffffffffffffffffffffffffff1673ffffffffffffffffffffffffffffffffffffffff168152602001908152602001600020819055505050565b6000601a826040518082805190602001908083835b60208310151561381457805182526020820191506020810190506020830392506137ef565b6001836020036101000a038019825116818451168082178552505050505050905001915050908152602001604051809103902060009054906101000a900473ffffffffffffffffffffffffffffffffffffffff169050919050565b8161387a33826144c8565b151561388557600080fd5b613890858585611bb9565b61389c85858585614f87565b15156138a757600080fd5b5050505050565b600b60009054906101000a900473ffffffffffffffffffffffffffffffffffffffff1673ffffffffffffffffffffffffffffffffffffffff163373ffffffffffffffffffffffffffffffffffffffff1614151561390a57600080fd5b80600c60006101000a81548173ffffffffffffffffffffffffffffffffffffffff021916908373ffffffffffffffffffffffffffffffffffffffff16021790555050565b6000601b8281548110151561395f57fe5b9060005260206000209060050201600201549050919050565b600061398382612a50565b9050919050565b601b8181548110151561399957fe5b9060005260206000209060050201600091509050806000018054600181600116156101000203166002900480601f016020809104026020016040519081016040528092919081815260200182805460018160011615610100020316600290048015613a455780601f10613a1a57610100808354040283529160200191613a45565b820191906000526020600020905b815481529060010190602001808311613a2857829003601f168201915b5050505050908060010154908060020154908060030160009054906101000a900473ffffffffffffffffffffffffffffffffffffffff1690806004018054600181600116156101000203166002900480601f016020809104026020016040519081016040528092919081815260200182805460018160011615610100020316600290048015613b155780601f10613aea57610100808354040283529160200191613b15565b820191906000526020600020905b815481529060010190602001808311613af857829003601f168201915b5050505050905085565b600b60009054906101000a900473ffffffffffffffffffffffffffffffffffffffff1673ffffffffffffffffffffffffffffffffffffffff163373ffffffffffffffffffffffffffffffffffffffff16141515613b7b57600080fd5b8060159080519060200190613b91929190615f72565b5050565b6060613ba08261280e565b1515613bab57600080fd5b600a60008381526020019081526020016000208054600181600116156101000203166002900480601f016020809104026020016040519081016040528092919081815260200182805460018160011615610100020316600290048015613c525780601f10613c2757610100808354040283529160200191613c52565b820191906000526020600020905b815481529060010190602001808311613c3557829003601f168201915b50505050509050919050565b6000600b60009054906101000a900473ffffffffffffffffffffffffffffffffffffffff1673ffffffffffffffffffffffffffffffffffffffff163373ffffffffffffffffffffffffffffffffffffffff16141515613cbc57600080fd5b601b83815481101515613ccb57fe5b9060005260206000209060050201905081816004019080519060200190613cf3929190615f72565b50613da183613d9c60158054600181600116156101000203166002900480601f016020809104026020016040519081016040528092919081815260200182805460018160011615610100020316600290048015613d915780601f10613d6657610100808354040283529160200191613d91565b820191906000526020600020905b815481529060010190602001808311613d7457829003601f168201915b505050505085615175565b615356565b505050565b6060601b82815481101515613db757fe5b90600052602060002090600502016000018054600181600116156101000203166002900480601f016020809104026020016040519081016040528092919081815260200182805460018160011615610100020316600290048015613e5c5780601f10613e3157610100808354040283529160200191613e5c565b820191906000526020600020905b815481529060010190602001808311613e3f57829003601f168201915b50505050509050919050565b606080613e73615eac565b60006013546014541115613f3a576001601760003373ffffffffffffffffffffffffffffffffffffffff1673ffffffffffffffffffffffffffffffffffffffff1681526020019081526020016000205410151515613f39576040517f08c379a00000000000000000000000000000000000000000000000000000000081526004018080602001828103825260168152602001807f6e6f2073616e20736c6f747320617661696c61626c650000000000000000000081525060200191505060405180910390fd5b5b613f7588888080601f016020809104026020016040519081016040528093929190818152602001838380828437820191505050505050614e05565b925060a0604051908101604052808481526020014281526020014281526020013373ffffffffffffffffffffffffffffffffffffffff16815260200187878080601f01602080910402602001604051908101604052809392919081815260200183838082843782019150505050505081525091506140c16001601b84908060018154018082558091505090600182039060005260206000209060050201600090919290919091506000820151816000019080519060200190614038929190615ef2565b50602082015181600101556040820151816002015560608201518160030160006101000a81548173ffffffffffffffffffffffffffffffffffffffff021916908373ffffffffffffffffffffffffffffffffffffffff16021790555060808201518160040190805190602001906140b0929190615ef2565b5050506149b590919063ffffffff16565b905060016016846040518082805190602001908083835b6020831015156140fd57805182526020820191506020810190506020830392506140d8565b6001836020036101000a038019825116818451168082178552505050505050905001915050908152602001604051809103902060006101000a81548160ff02191690831515021790555060135460145411156141ea576141a66001601760003373ffffffffffffffffffffffffffffffffffffffff1673ffffffffffffffffffffffffffffffffffffffff168152602001908152602001600020546149b590919063ffffffff16565b601760003373ffffffffffffffffffffffffffffffffffffffff1673ffffffffffffffffffffffffffffffffffffffff168152602001908152602001600020819055505b614228813388888080601f016020809104026020016040519081016040528093929190818152602001838380828437820191505050505050866149ec565b829350505050949350505050565b6000600360008473ffffffffffffffffffffffffffffffffffffffff1673ffffffffffffffffffffffffffffffffffffffff16815260200190815260200160002060008373ffffffffffffffffffffffffffffffffffffffff1673ffffffffffffffffffffffffffffffffffffffff16815260200190815260200160002060009054906101000a900460ff16905092915050565b600b60009054906101000a900473ffffffffffffffffffffffffffffffffffffffff1673ffffffffffffffffffffffffffffffffffffffff163373ffffffffffffffffffffffffffffffffffffffff1614151561432657600080fd5b600073ffffffffffffffffffffffffffffffffffffffff168173ffffffffffffffffffffffffffffffffffffffff161415151561436257600080fd5b8073ffffffffffffffffffffffffffffffffffffffff16600b60009054906101000a900473ffffffffffffffffffffffffffffffffffffffff1673ffffffffffffffffffffffffffffffffffffffff167f8be0079c531659141344cd1fd0a4f28419497f9722a3daafe3b4186f6b6457e060405160405180910390a380600b60006101000a81548173ffffffffffffffffffffffffffffffffffffffff021916908373ffffffffffffffffffffffffffffffffffffffff16021790555050565b600f5481565b600b60009054906101000a900473ffffffffffffffffffffffffffffffffffffffff1673ffffffffffffffffffffffffffffffffffffffff163373ffffffffffffffffffffffffffffffffffffffff1614151561448457600080fd5b80600e60006101000a81548173ffffffffffffffffffffffffffffffffffffffff021916908373ffffffffffffffffffffffffffffffffffffffff16021790555050565b6000806144d483612a50565b90508073ffffffffffffffffffffffffffffffffffffffff168473ffffffffffffffffffffffffffffffffffffffff16148061454357508373ffffffffffffffffffffffffffffffffffffffff1661452b846118d4565b73ffffffffffffffffffffffffffffffffffffffff16145b8061455457506145538185614236565b5b91505092915050565b8173ffffffffffffffffffffffffffffffffffffffff1661457d82612a50565b73ffffffffffffffffffffffffffffffffffffffff1614151561459f57600080fd5b600073ffffffffffffffffffffffffffffffffffffffff166001600083815260200190815260200160002060009054906101000a900473ffffffffffffffffffffffffffffffffffffffff1673ffffffffffffffffffffffffffffffffffffffff161415156146c25760006001600083815260200190815260200160002060006101000a81548173ffffffffffffffffffffffffffffffffffffffff021916908373ffffffffffffffffffffffffffffffffffffffff160217905550600073ffffffffffffffffffffffffffffffffffffffff168273ffffffffffffffffffffffffffffffffffffffff167f8c5be1e5ebec7d5bd14f71427d1e84f3dd0314c0f7b2291e5b200ac8c7c3b925836040518082815260200191505060405180910390a35b5050565b60008060006146d58585615396565b600760008581526020019081526020016000205492506147416001600660008873ffffffffffffffffffffffffffffffffffffffff1673ffffffffffffffffffffffffffffffffffffffff168152602001908152602001600020805490506149b590919063ffffffff16565b9150600660008673ffffffffffffffffffffffffffffffffffffffff1673ffffffffffffffffffffffffffffffffffffffff1681526020019081526020016000208281548110151561478f57fe5b9060005260206000200154905080600660008773ffffffffffffffffffffffffffffffffffffffff1673ffffffffffffffffffffffffffffffffffffffff168152602001908152602001600020848154811015156147e957fe5b90600052602060002001819055506000600660008773ffffffffffffffffffffffffffffffffffffffff1673ffffffffffffffffffffffffffffffffffffffff1681526020019081526020016000208381548110151561484557fe5b9060005260206000200181905550600660008673ffffffffffffffffffffffffffffffffffffffff1673ffffffffffffffffffffffffffffffffffffffff1681526020019081526020016000208054809190600190036148a59190615ff2565b50600060076000868152602001908152602001600020819055508260076000838152602001908152602001600020819055505050505050565b60006148ea83836154c4565b600660008473ffffffffffffffffffffffffffffffffffffffff1673ffffffffffffffffffffffffffffffffffffffff168152602001908152602001600020805490509050600660008473ffffffffffffffffffffffffffffffffffffffff1673ffffffffffffffffffffffffffffffffffffffff168152602001908152602001600020829080600181540180825580915050906001820390600052602060002001600090919290919091505550806007600084815260200190815260200160002081905550505050565b60008282111515156149c357fe5b818303905092915050565b60008082840190508381101515156149e257fe5b8091505092915050565b601254601860008573ffffffffffffffffffffffffffffffffffffffff1673ffffffffffffffffffffffffffffffffffffffff16815260200190815260200160002054101515614aa4576040517f08c379a000000000000000000000000000000000000000000000000000000000815260040180806020018281038252600d8152602001807f6d61782073616e206f776e65640000000000000000000000000000000000000081525060200191505060405180910390fd5b836019826040518082805190602001908083835b602083101515614add5780518252602082019150602081019050602083039250614ab8565b6001836020036101000a03801982511681845116808217855250505050505090500191505090815260200160405180910390208190555082601a826040518082805190602001908083835b602083101515614b4d5780518252602082019150602081019050602083039250614b28565b6001836020036101000a038019825116818451168082178552505050505050905001915050908152602001604051809103902060006101000a81548173ffffffffffffffffffffffffffffffffffffffff021916908373ffffffffffffffffffffffffffffffffffffffff160217905550614c116001601860008673ffffffffffffffffffffffffffffffffffffffff1673ffffffffffffffffffffffffffffffffffffffff168152602001908152602001600020546149ce90919063ffffffff16565b601860008573ffffffffffffffffffffffffffffffffffffffff1673ffffffffffffffffffffffffffffffffffffffff16815260200190815260200160002081905550614c6a60016014546149ce90919063ffffffff16565b601481905550614c7a838561561c565b614d2784614d2260158054600181600116156101000203166002900480601f016020809104026020016040519081016040528092919081815260200182805460018160011615610100020316600290048015614d175780601f10614cec57610100808354040283529160200191614d17565b820191906000526020600020905b815481529060010190602001808311614cfa57829003601f168201915b505050505085615175565b615356565b7fdf5fffc2bd8c53e0c41aa67368817a9fb69561752c912bb1fa2e04d64d564f55838583604051808473ffffffffffffffffffffffffffffffffffffffff1673ffffffffffffffffffffffffffffffffffffffff16815260200183815260200180602001828103825283818151815260200191508051906020019080838360005b83811015614dc3578082015181840152602081019050614da8565b50505050905090810190601f168015614df05780820380516001836020036101000a031916815260200191505b5094505050505060405180910390a150505050565b606080614e1183615673565b9050614e1c8161573f565b1515614e90576040517f08c379a00000000000000000000000000000000000000000000000000000000081526004018080602001828103825260108152602001807f73616e206973206e6f742076616c69640000000000000000000000000000000081525060200191505060405180910390fd5b6016816040518082805190602001908083835b602083101515614ec85780518252602082019150602081019050602083039250614ea3565b6001836020036101000a038019825116818451168082178552505050505050905001915050908152602001604051809103902060009054906101000a900460ff16151515614f7e576040517f08c379a00000000000000000000000000000000000000000000000000000000081526004018080602001828103825260118152602001807f73616e206973206e6f7420756e6971756500000000000000000000000000000081525060200191505060405180910390fd5b80915050919050565b600080614fa98573ffffffffffffffffffffffffffffffffffffffff16615cab565b1515614fb8576001915061516c565b8473ffffffffffffffffffffffffffffffffffffffff1663f0b9e5ba8786866040518463ffffffff167c0100000000000000000000000000000000000000000000000000000000028152600401808473ffffffffffffffffffffffffffffffffffffffff1673ffffffffffffffffffffffffffffffffffffffff16815260200183815260200180602001828103825283818151815260200191508051906020019080838360005b8381101561507a57808201518184015260208101905061505f565b50505050905090810190601f1680156150a75780820380516001836020036101000a031916815260200191505b50945050505050602060405180830381600087803b1580156150c857600080fd5b505af11580156150dc573d6000803e3d6000fd5b505050506040513d60208110156150f257600080fd5b8101908080519060200190929190505050905063f0b9e5ba7c0100000000000000000000000000000000000000000000000000000000027bffffffffffffffffffffffffffffffffffffffffffffffffffffffff1916817bffffffffffffffffffffffffffffffffffffffffffffffffffffffff19161491505b50949350505050565b606080606080606060008088955087945061519b855187516149ce90919063ffffffff16565b6040519080825280601f01601f1916602001820160405280156151cd5781602001602082028038833980820191505090505b50935083925060009150600090505b855181101561528f5785818151811015156151f357fe5b9060200101517f010000000000000000000000000000000000000000000000000000000000000090047f010000000000000000000000000000000000000000000000000000000000000002838380600101945081518110151561525257fe5b9060200101907effffffffffffffffffffffffffffffffffffffffffffffffffffffffffffff1916908160001a90535080806001019150506151dc565b600090505b84518110156153475784818151811015156152ab57fe5b9060200101517f010000000000000000000000000000000000000000000000000000000000000090047f010000000000000000000000000000000000000000000000000000000000000002838380600101945081518110151561530a57fe5b9060200101907effffffffffffffffffffffffffffffffffffffffffffffffffffffffffffff1916908160001a9053508080600101915050615294565b82965050505050505092915050565b61535f8261280e565b151561536a57600080fd5b80600a60008481526020019081526020016000209080519060200190615391929190615f72565b505050565b8173ffffffffffffffffffffffffffffffffffffffff166153b682612a50565b73ffffffffffffffffffffffffffffffffffffffff161415156153d857600080fd5b61542b6001600260008573ffffffffffffffffffffffffffffffffffffffff1673ffffffffffffffffffffffffffffffffffffffff168152602001908152602001600020546149b590919063ffffffff16565b600260008473ffffffffffffffffffffffffffffffffffffffff1673ffffffffffffffffffffffffffffffffffffffff16815260200190815260200160002081905550600080600083815260200190815260200160002060006101000a81548173ffffffffffffffffffffffffffffffffffffffff021916908373ffffffffffffffffffffffffffffffffffffffff1602179055505050565b600073ffffffffffffffffffffffffffffffffffffffff1660008083815260200190815260200160002060009054906101000a900473ffffffffffffffffffffffffffffffffffffffff1673ffffffffffffffffffffffffffffffffffffffff1614151561553157600080fd5b8160008083815260200190815260200160002060006101000a81548173ffffffffffffffffffffffffffffffffffffffff021916908373ffffffffffffffffffffffffffffffffffffffff1602179055506155d56001600260008573ffffffffffffffffffffffffffffffffffffffff1673ffffffffffffffffffffffffffffffffffffffff168152602001908152602001600020546149ce90919063ffffffff16565b600260008473ffffffffffffffffffffffffffffffffffffffff1673ffffffffffffffffffffffffffffffffffffffff168152602001908152602001600020819055505050565b6156268282615cbe565b600880549050600960008381526020019081526020016000208190555060088190806001815401808255809150509060018203906000526020600020016000909192909190915055505050565b6060806000839150600090505b8151811015615735576156ea828281518110151561569a57fe5b9060200101517f010000000000000000000000000000000000000000000000000000000000000090047f010000000000000000000000000000000000000000000000000000000000000002615d6e565b82828151811015156156f857fe5b9060200101907effffffffffffffffffffffffffffffffffffffffffffffffffffffffffffff1916908160001a9053508080600101915050615680565b8192505050919050565b600060606000806000806000806000806000808c9a508a5199506010548a118061576b57506011548a11155b156157795760009b50615c9b565b60207f0100000000000000000000000000000000000000000000000000000000000000029850602e7f010000000000000000000000000000000000000000000000000000000000000002975060657f010000000000000000000000000000000000000000000000000000000000000002965060747f010000000000000000000000000000000000000000000000000000000000000002955060687f0100000000000000000000000000000000000000000000000000000000000000029450600093506000925060009150600090505b89811015615c5b57887effffffffffffffffffffffffffffffffffffffffffffffffffffffffffffff19168b8281518110151561588157fe5b9060200101517f010000000000000000000000000000000000000000000000000000000000000090047f0100000000000000000000000000000000000000000000000000000000000000027effffffffffffffffffffffffffffffffffffffffffffffffffffffffffffff191614156158fd5760009b50615c9b565b877effffffffffffffffffffffffffffffffffffffffffffffffffffffffffffff19168b8281518110151561592e57fe5b9060200101517f010000000000000000000000000000000000000000000000000000000000000090047f0100000000000000000000000000000000000000000000000000000000000000027effffffffffffffffffffffffffffffffffffffffffffffffffffffffffffff191614156159d2576159b56001856149ce90919063ffffffff16565b935060018411156159c95760009b50615c9b565b60019250615c4e565b6000831180156159e25750600583105b15615c4d576001831415615aac57867effffffffffffffffffffffffffffffffffffffffffffffffffffffffffffff19168b82815181101515615a2157fe5b9060200101517f010000000000000000000000000000000000000000000000000000000000000090047f0100000000000000000000000000000000000000000000000000000000000000027effffffffffffffffffffffffffffffffffffffffffffffffffffffffffffff19161415615aab57615aa86001836149ce90919063ffffffff16565b91505b5b6002831415615b7157857effffffffffffffffffffffffffffffffffffffffffffffffffffffffffffff19168b82815181101515615ae657fe5b9060200101517f010000000000000000000000000000000000000000000000000000000000000090047f0100000000000000000000000000000000000000000000000000000000000000027effffffffffffffffffffffffffffffffffffffffffffffffffffffffffffff19161415615b7057615b6d6001836149ce90919063ffffffff16565b91505b5b6003831415615c3657847effffffffffffffffffffffffffffffffffffffffffffffffffffffffffffff19168b82815181101515615bab57fe5b9060200101517f010000000000000000000000000000000000000000000000000000000000000090047f0100000000000000000000000000000000000000000000000000000000000000027effffffffffffffffffffffffffffffffffffffffffffffffffffffffffffff19161415615c3557615c326001836149ce90919063ffffffff16565b91505b5b615c4a6001846149ce90919063ffffffff16565b92505b5b8080600101915050615848565b6000841415615c6d5760009b50615c9b565b600382148015615c7d5750600483145b80615c885750600183145b15615c965760009b50615c9b565b60019b505b5050505050505050505050919050565b600080823b905060008111915050919050565b600073ffffffffffffffffffffffffffffffffffffffff168273ffffffffffffffffffffffffffffffffffffffff1614151515615cfa57600080fd5b615d0482826148de565b8173ffffffffffffffffffffffffffffffffffffffff16600073ffffffffffffffffffffffffffffffffffffffff167fddf252ad1be2c89b69c2b068fc378daa952ba7f163c4a11628f55a4df523b3ef836040518082815260200191505060405180910390a35050565b600060417f0100000000000000000000000000000000000000000000000000000000000000027effffffffffffffffffffffffffffffffffffffffffffffffffffffffffffff1916827effffffffffffffffffffffffffffffffffffffffffffffffffffffffffffff191610158015615e4e5750605a7f0100000000000000000000000000000000000000000000000000000000000000027effffffffffffffffffffffffffffffffffffffffffffffffffffffffffffff1916827effffffffffffffffffffffffffffffffffffffffffffffffffffffffffffff191611155b15615ea3576020827f01000000000000000000000000000000000000000000000000000000000000009004017f0100000000000000000000000000000000000000000000000000000000000000029050615ea7565b8190505b919050565b60a060405190810160405280606081526020016000815260200160008152602001600073ffffffffffffffffffffffffffffffffffffffff168152602001606081525090565b828054600181600116156101000203166002900490600052602060002090601f016020900481019282601f10615f3357805160ff1916838001178555615f61565b82800160010185558215615f61579182015b82811115615f60578251825591602001919060010190615f45565b5b509050615f6e919061601e565b5090565b828054600181600116156101000203166002900490600052602060002090601f016020900481019282601f10615fb357805160ff1916838001178555615fe1565b82800160010185558215615fe1579182015b82811115615fe0578251825591602001919060010190615fc5565b5b509050615fee919061601e565b5090565b81548183558181111561601957818360005260206000209182019101616018919061601e565b5b505050565b61604091905b8082111561603c576000816000905550600101616024565b5090565b905600a165627a7a72305820f46a5422e7df67f65ee182eaceb7fa3b2a70a0e6094b73cd805913683f142e640029",
  "source": "// @title The Tip Tokn SAN (Short Address Name)\r\n// @author Jonathan Teel (jonathan.teel@thetiptoken.io)\r\n// @dev First 500 SANs do no require a slot\r\n\r\npragma solidity ^0.4.24;\r\n\r\nimport \"zeppelin-solidity/contracts/token/ERC721/ERC721Token.sol\";\r\nimport \"zeppelin-solidity/contracts/ownership/Ownable.sol\";\r\n\r\ncontract TTTToken {\r\n  function transfer(address _to, uint256 _amount) public returns (bool success);\r\n  function transferFrom(address from, address to, uint tokens) public returns (bool success);\r\n  function balanceOf(address tokenOwner) public constant returns (uint balance);\r\n}\r\n\r\ncontract TTTSan is ERC721Token, Ownable {\r\n\r\n  address public wallet = 0x515165A6511734A4eFB5Cfb531955cf420b2725B;\r\n  address public tttTokenAddress = 0x24358430f5b1f947B04D9d1a22bEb6De01CaBea2;\r\n  address public marketAddress;\r\n\r\n  uint256 public sanTTTCost;\r\n  uint256 public sanMaxLength;\r\n  uint256 public sanMinLength;\r\n  uint256 public sanMaxAmount;\r\n  uint256 public sanMaxFree;\r\n  uint256 public sanCurrentTotal;\r\n\r\n  string public baseUrl = \"https://thetiptoken.io/arv/img/\";\r\n\r\n  mapping(string=>bool) sanOwnership;\r\n  mapping(address=>uint256) sanSlots;\r\n  mapping(address=>uint256) sanOwnerAmount;\r\n  mapping(string=>uint256) sanNameToId;\r\n  mapping(string=>address) sanNameToAddress;\r\n\r\n  struct SAN {\r\n    string sanName;\r\n    uint256 timeAlive;\r\n    uint256 timeLastMove;\r\n    address prevOwner;\r\n    string sanageLink;\r\n  }\r\n\r\n  SAN[] public sans;\r\n\r\n  TTTToken ttt;\r\n\r\n  modifier isMarketAddress() {\r\n\t\trequire(msg.sender == marketAddress);\r\n\t\t_;\r\n\t}\r\n\r\n  event SanMinted(address sanOwner, uint256 sanId, string sanName);\r\n  event SanSlotPurchase(address sanOwner, uint256 amt);\r\n  event SanCostUpdated(uint256 cost);\r\n  event SanLengthReqChange(uint256 sanMinLength, uint256 sanMaxLength);\r\n  event SanMaxAmountChange(uint256 sanMaxAmount);\r\n\r\n  constructor() public ERC721Token(\"TTTSAN\", \"TTTS\") {\r\n    sanTTTCost = 10 ether;\r\n    sanMaxLength = 16;\r\n    sanMinLength = 2;\r\n    sanMaxAmount = 100;\r\n    sanMaxFree = 500;\r\n    ttt = TTTToken(tttTokenAddress);\r\n    // gen0 san\r\n  /* \"NeverGonnaGiveYouUp.NeverGonnaLetYouDown\" */\r\n    string memory gen0 = \"NeverGonnaGiveYouUp.NeverGonnaLetYouDown\";\r\n    SAN memory s = SAN({\r\n        sanName: gen0,\r\n        timeAlive: block.timestamp,\r\n        timeLastMove: block.timestamp,\r\n        prevOwner: msg.sender,\r\n        sanageLink: \"0x\"\r\n    });\r\n    uint256 sanId = sans.push(s).sub(1);\r\n    sanOwnership[gen0] = true;\r\n    _sanMint(sanId, msg.sender, \"gen0.jpeg\", gen0);\r\n  }\r\n\r\n  function sanMint(string _sanName, string _sanageUri) external returns (string) {\r\n    // first 500 SANs do not require a slot\r\n    if(sanCurrentTotal > sanMaxFree)\r\n      require(sanSlots[msg.sender] >= 1, \"no san slots available\");\r\n    string memory sn = sanitize(_sanName);\r\n    SAN memory s = SAN({\r\n        sanName: sn,\r\n        timeAlive: block.timestamp,\r\n        timeLastMove: block.timestamp,\r\n        prevOwner: msg.sender,\r\n        sanageLink: _sanageUri\r\n    });\r\n    uint256 sanId = sans.push(s).sub(1);\r\n    sanOwnership[sn] = true;\r\n    if(sanCurrentTotal > sanMaxFree)\r\n      sanSlots[msg.sender] = sanSlots[msg.sender].sub(1);\r\n    _sanMint(sanId, msg.sender, _sanageUri, sn);\r\n    return sn;\r\n  }\r\n\r\n  function getSANOwner(uint256 _sanId) public view returns (address) {\r\n    return ownerOf(_sanId);\r\n  }\r\n\r\n  function getSanIdFromName(string _sanName) public view returns (uint256) {\r\n    return sanNameToId[_sanName];\r\n  }\r\n\r\n  function getSanName(uint256 _sanId) public view returns (string) {\r\n    return sans[_sanId].sanName;\r\n  }\r\n\r\n  function getSanageLink(uint256 _sanId) public view returns (string) {\r\n    return sans[_sanId].sanageLink;\r\n  }\r\n\r\n  function getSanTimeAlive(uint256 _sanId) public view returns (uint256) {\r\n    return sans[_sanId].timeAlive;\r\n  }\r\n\r\n  function getSanTimeLastMove(uint256 _sanId) public view returns (uint256) {\r\n    return sans[_sanId].timeLastMove;\r\n  }\r\n\r\n  function getSanPrevOwner(uint256 _sanId) public view returns (address) {\r\n    return sans[_sanId].prevOwner;\r\n  }\r\n\r\n  function getAddressFromSan(string _sanName) public view returns (address) {\r\n    return sanNameToAddress[_sanName];\r\n  }\r\n\r\n  function getSanSlots(address _sanOwner) public view returns(uint256) {\r\n    return sanSlots[_sanOwner];\r\n  }\r\n\r\n  // used for initial check to not waste gas\r\n  function getSANitized(string _sanName) external view returns (string) {\r\n    return sanitize(_sanName);\r\n  }\r\n\r\n  function buySanSlot(address _sanOwner,  uint256 _tip) external returns(bool) {\r\n    require(_tip >= sanTTTCost, \"tip less than san cost\");\r\n    require(sanSlots[_sanOwner] < sanMaxAmount, \"max san slots owned\");\r\n    sanSlots[_sanOwner] = sanSlots[_sanOwner].add(1);\r\n    ttt.transferFrom(msg.sender, wallet, _tip);\r\n    emit SanSlotPurchase(_sanOwner, 1);\r\n    return true;\r\n  }\r\n\r\n  function marketSale(uint256 _sanId, string _sanName, address _prevOwner, address _newOwner) external isMarketAddress {\r\n    SAN storage s = sans[_sanId];\r\n    s.prevOwner = _prevOwner;\r\n    s.timeLastMove = block.timestamp;\r\n    sanNameToAddress[_sanName] = _newOwner;\r\n    // no slot movements for first 500 SANs\r\n    if(sanCurrentTotal > sanMaxFree) {\r\n      sanSlots[_prevOwner] = sanSlots[_prevOwner].sub(1);\r\n      sanSlots[_newOwner] = sanSlots[_newOwner].add(1);\r\n    }\r\n    sanOwnerAmount[_prevOwner] = sanOwnerAmount[_prevOwner].sub(1);\r\n    sanOwnerAmount[_newOwner] = sanOwnerAmount[_newOwner].add(1);\r\n  }\r\n\r\n  function() public payable { revert(); }\r\n\r\n  // OWNER FUNCTIONS\r\n\r\n  function setSanTTTCost(uint256 _cost) external onlyOwner {\r\n    sanTTTCost = _cost;\r\n    emit SanCostUpdated(sanTTTCost);\r\n  }\r\n\r\n  function setSanLength(uint256 _length, uint256 _pos) external onlyOwner {\r\n    require(_length > 0);\r\n    if(_pos == 0) sanMinLength = _length;\r\n    else sanMaxLength = _length;\r\n    emit SanLengthReqChange(sanMinLength, sanMaxLength);\r\n  }\r\n\r\n  function setSanMaxAmount(uint256 _amount) external onlyOwner {\r\n    sanMaxAmount = _amount;\r\n    emit SanMaxAmountChange(sanMaxAmount);\r\n  }\r\n\r\n  function setSanMaxFree(uint256 _sanMaxFree) external onlyOwner {\r\n    sanMaxFree = _sanMaxFree;\r\n  }\r\n\r\n  function ownerAddSanSlot(address _sanOwner, uint256 _slotCount) external onlyOwner {\r\n    require(_slotCount > 0 && _slotCount <= sanMaxAmount);\r\n    require(sanSlots[_sanOwner] < sanMaxAmount);\r\n    sanSlots[_sanOwner] = sanSlots[_sanOwner].add(_slotCount);\r\n  }\r\n\r\n  // owner can add slots in batches, 100 max\r\n  function ownerAddSanSlotBatch(address[] _sanOwner, uint256[] _slotCount) external onlyOwner {\r\n    require(_sanOwner.length == _slotCount.length);\r\n    require(_sanOwner.length <= 100);\r\n    for(uint8 i = 0; i < _sanOwner.length; i++) {\r\n      require(_slotCount[i] > 0 && _slotCount[i] <= sanMaxAmount, \"incorrect slot count\");\r\n      sanSlots[_sanOwner[i]] = sanSlots[_sanOwner[i]].add(_slotCount[i]);\r\n      require(sanSlots[_sanOwner[i]] <= sanMaxAmount, \"max san slots owned\");\r\n    }\r\n  }\r\n\r\n  function setMarketAddress(address _marketAddress) public onlyOwner {\r\n    marketAddress = _marketAddress;\r\n  }\r\n\r\n  function setBaseUrl(string _baseUrl) public onlyOwner {\r\n    baseUrl = _baseUrl;\r\n  }\r\n\r\n  function setOwnerWallet(address _wallet) public onlyOwner {\r\n    wallet = _wallet;\r\n  }\r\n\r\n  function updateTokenUri(uint256 _sanId, string _newUri) public onlyOwner {\r\n    SAN storage s = sans[_sanId];\r\n    s.sanageLink = _newUri;\r\n    _setTokenURI(_sanId, strConcat(baseUrl, _newUri));\r\n  }\r\n\r\n  function emptyTTT() external onlyOwner {\r\n    ttt.transfer(msg.sender, ttt.balanceOf(address(this)));\r\n  }\r\n\r\n  function emptyEther() external onlyOwner {\r\n    owner.transfer(address(this).balance);\r\n  }\r\n\r\n  // owner can mint special sans for an address\r\n  function specialSanMint(string _sanName, string _sanageUri, address _address) external onlyOwner returns (string) {\r\n    SAN memory s = SAN({\r\n        sanName: _sanName,\r\n        timeAlive: block.timestamp,\r\n        timeLastMove: block.timestamp,\r\n        prevOwner: _address,\r\n        sanageLink: _sanageUri\r\n    });\r\n    uint256 sanId = sans.push(s).sub(1);\r\n    _sanMint(sanId, _address, _sanageUri, _sanName);\r\n    return _sanName;\r\n  }\r\n\r\n  // INTERNAL FUNCTIONS\r\n\r\n  function sanitize(string _sanName) internal view returns(string) {\r\n    string memory sn = sanToLower(_sanName);\r\n    require(isValidSan(sn), \"san is not valid\");\r\n    require(!sanOwnership[sn], \"san is not unique\");\r\n    return sn;\r\n  }\r\n\r\n  function _sanMint(uint256 _sanId, address _owner, string _sanageUri, string _sanName) internal {\r\n    require(sanOwnerAmount[_owner] < sanMaxAmount, \"max san owned\");\r\n    sanNameToId[_sanName] = _sanId;\r\n    sanNameToAddress[_sanName] = _owner;\r\n    sanOwnerAmount[_owner] = sanOwnerAmount[_owner].add(1);\r\n    sanCurrentTotal = sanCurrentTotal.add(1);\r\n    _mint(_owner, _sanId);\r\n    _setTokenURI(_sanId, strConcat(baseUrl, _sanageUri));\r\n    emit SanMinted(_owner, _sanId, _sanName);\r\n  }\r\n\r\n  function isValidSan(string _sanName) internal view returns(bool) {\r\n    bytes memory wb = bytes(_sanName);\r\n    uint slen = wb.length;\r\n    if (slen > sanMaxLength || slen <= sanMinLength) return false;\r\n    bytes1 space = bytes1(0x20);\r\n    bytes1 period = bytes1(0x2E);\r\n    // san can not end in .eth - added to avoid conflicts with ens\r\n    bytes1 e = bytes1(0x65);\r\n    bytes1 t = bytes1(0x74);\r\n    bytes1 h = bytes1(0x68);\r\n    uint256 dCount = 0;\r\n    uint256 eCount = 0;\r\n    uint256 eth = 0;\r\n    for(uint256 i = 0; i < slen; i++) {\r\n        if(wb[i] == space) return false;\r\n        else if(wb[i] == period) {\r\n          dCount = dCount.add(1);\r\n          // only 1 '.'\r\n          if(dCount > 1) return false;\r\n          eCount = 1;\r\n        } else if(eCount > 0 && eCount < 5) {\r\n          if(eCount == 1) if(wb[i] == e) eth = eth.add(1);\r\n          if(eCount == 2) if(wb[i] == t) eth = eth.add(1);\r\n          if(eCount == 3) if(wb[i] == h) eth = eth.add(1);\r\n          eCount = eCount.add(1);\r\n        }\r\n    }\r\n    if(dCount == 0) return false;\r\n    if((eth == 3 && eCount == 4) || eCount == 1) return false;\r\n    return true;\r\n  }\r\n\r\n  function sanToLower(string _sanName) internal pure returns(string) {\r\n    bytes memory b = bytes(_sanName);\r\n    for(uint256 i = 0; i < b.length; i++) {\r\n      b[i] = byteToLower(b[i]);\r\n    }\r\n    return string(b);\r\n  }\r\n\r\n  function byteToLower(bytes1 _b) internal pure returns (bytes1) {\r\n    if(_b >= bytes1(0x41) && _b <= bytes1(0x5A))\r\n      return bytes1(uint8(_b) + 32);\r\n    return _b;\r\n  }\r\n\r\n  function strConcat(string _a, string _b) internal pure returns (string) {\r\n    bytes memory _ba = bytes(_a);\r\n    bytes memory _bb = bytes(_b);\r\n    string memory ab = new string(_ba.length.add(_bb.length));\r\n    bytes memory bab = bytes(ab);\r\n    uint256 k = 0;\r\n    for (uint256 i = 0; i < _ba.length; i++) bab[k++] = _ba[i];\r\n    for (i = 0; i < _bb.length; i++) bab[k++] = _bb[i];\r\n    return string(bab);\r\n  }\r\n\r\n}\r\n",
  "sourcePath": "C:\\TTT_Platform\\contracts\\TTTSan.sol",
  "compiler": {
    "name": "solc",
    "version": "0.4.24+commit.e67f0147.Emscripten.clang"
  },
  "schemaVersion": "2.0.1",
  "updatedAt": "2018-07-30T04:11:57.873Z"
}