{
  "contractName": "TTTSan",
  "abi": [
    {
      "constant": true,
      "inputs": [],
      "name": "name",
      "outputs": [
        {
          "name": "",
          "type": "string"
        }
      ],
      "payable": false,
      "stateMutability": "view",
      "type": "function"
    },
    {
      "constant": true,
      "inputs": [
        {
          "name": "_tokenId",
          "type": "uint256"
        }
      ],
      "name": "getApproved",
      "outputs": [
        {
          "name": "",
          "type": "address"
        }
      ],
      "payable": false,
      "stateMutability": "view",
      "type": "function"
    },
    {
      "constant": false,
      "inputs": [
        {
          "name": "_to",
          "type": "address"
        },
        {
          "name": "_tokenId",
          "type": "uint256"
        }
      ],
      "name": "approve",
      "outputs": [],
      "payable": false,
      "stateMutability": "nonpayable",
      "type": "function"
    },
    {
      "constant": true,
      "inputs": [],
      "name": "sanMaxLength",
      "outputs": [
        {
          "name": "",
          "type": "uint256"
        }
      ],
      "payable": false,
      "stateMutability": "view",
      "type": "function"
    },
    {
      "constant": true,
      "inputs": [],
      "name": "totalSupply",
      "outputs": [
        {
          "name": "",
          "type": "uint256"
        }
      ],
      "payable": false,
      "stateMutability": "view",
      "type": "function"
    },
    {
      "constant": false,
      "inputs": [
        {
          "name": "_from",
          "type": "address"
        },
        {
          "name": "_to",
          "type": "address"
        },
        {
          "name": "_tokenId",
          "type": "uint256"
        }
      ],
      "name": "transferFrom",
      "outputs": [],
      "payable": false,
      "stateMutability": "nonpayable",
      "type": "function"
    },
    {
      "constant": true,
      "inputs": [
        {
          "name": "_owner",
          "type": "address"
        },
        {
          "name": "_index",
          "type": "uint256"
        }
      ],
      "name": "tokenOfOwnerByIndex",
      "outputs": [
        {
          "name": "",
          "type": "uint256"
        }
      ],
      "payable": false,
      "stateMutability": "view",
      "type": "function"
    },
    {
      "constant": false,
      "inputs": [
        {
          "name": "_from",
          "type": "address"
        },
        {
          "name": "_to",
          "type": "address"
        },
        {
          "name": "_tokenId",
          "type": "uint256"
        }
      ],
      "name": "safeTransferFrom",
      "outputs": [],
      "payable": false,
      "stateMutability": "nonpayable",
      "type": "function"
    },
    {
      "constant": true,
      "inputs": [
        {
          "name": "_tokenId",
          "type": "uint256"
        }
      ],
      "name": "exists",
      "outputs": [
        {
          "name": "",
          "type": "bool"
        }
      ],
      "payable": false,
      "stateMutability": "view",
      "type": "function"
    },
    {
      "constant": true,
      "inputs": [
        {
          "name": "_index",
          "type": "uint256"
        }
      ],
      "name": "tokenByIndex",
      "outputs": [
        {
          "name": "",
          "type": "uint256"
        }
      ],
      "payable": false,
      "stateMutability": "view",
      "type": "function"
    },
    {
      "constant": true,
      "inputs": [],
      "name": "wallet",
      "outputs": [
        {
          "name": "",
          "type": "address"
        }
      ],
      "payable": false,
      "stateMutability": "view",
      "type": "function"
    },
    {
      "constant": true,
      "inputs": [],
      "name": "baseUrl",
      "outputs": [
        {
          "name": "",
          "type": "string"
        }
      ],
      "payable": false,
      "stateMutability": "view",
      "type": "function"
    },
    {
      "constant": true,
      "inputs": [
        {
          "name": "_tokenId",
          "type": "uint256"
        }
      ],
      "name": "ownerOf",
      "outputs": [
        {
          "name": "",
          "type": "address"
        }
      ],
      "payable": false,
      "stateMutability": "view",
      "type": "function"
    },
    {
      "constant": true,
      "inputs": [
        {
          "name": "_owner",
          "type": "address"
        }
      ],
      "name": "balanceOf",
      "outputs": [
        {
          "name": "",
          "type": "uint256"
        }
      ],
      "payable": false,
      "stateMutability": "view",
      "type": "function"
    },
    {
      "constant": true,
      "inputs": [],
      "name": "owner",
      "outputs": [
        {
          "name": "",
          "type": "address"
        }
      ],
      "payable": false,
      "stateMutability": "view",
      "type": "function"
    },
    {
      "constant": true,
      "inputs": [],
      "name": "marketAddress",
      "outputs": [
        {
          "name": "",
          "type": "address"
        }
      ],
      "payable": false,
      "stateMutability": "view",
      "type": "function"
    },
    {
      "constant": true,
      "inputs": [],
      "name": "symbol",
      "outputs": [
        {
          "name": "",
          "type": "string"
        }
      ],
      "payable": false,
      "stateMutability": "view",
      "type": "function"
    },
    {
      "constant": false,
      "inputs": [
        {
          "name": "_to",
          "type": "address"
        },
        {
          "name": "_approved",
          "type": "bool"
        }
      ],
      "name": "setApprovalForAll",
      "outputs": [],
      "payable": false,
      "stateMutability": "nonpayable",
      "type": "function"
    },
    {
      "constant": true,
      "inputs": [],
      "name": "tttTokenAddress",
      "outputs": [
        {
          "name": "",
          "type": "address"
        }
      ],
      "payable": false,
      "stateMutability": "view",
      "type": "function"
    },
    {
      "constant": true,
      "inputs": [],
      "name": "sanMinLength",
      "outputs": [
        {
          "name": "",
          "type": "uint256"
        }
      ],
      "payable": false,
      "stateMutability": "view",
      "type": "function"
    },
    {
      "constant": false,
      "inputs": [
        {
          "name": "_from",
          "type": "address"
        },
        {
          "name": "_to",
          "type": "address"
        },
        {
          "name": "_tokenId",
          "type": "uint256"
        },
        {
          "name": "_data",
          "type": "bytes"
        }
      ],
      "name": "safeTransferFrom",
      "outputs": [],
      "payable": false,
      "stateMutability": "nonpayable",
      "type": "function"
    },
    {
      "constant": true,
      "inputs": [
        {
          "name": "",
          "type": "uint256"
        }
      ],
      "name": "sans",
      "outputs": [
        {
          "name": "sanName",
          "type": "string"
        },
        {
          "name": "timeAlive",
          "type": "uint256"
        },
        {
          "name": "timeLastMove",
          "type": "uint256"
        },
        {
          "name": "prevOwner",
          "type": "address"
        }
      ],
      "payable": false,
      "stateMutability": "view",
      "type": "function"
    },
    {
      "constant": true,
      "inputs": [
        {
          "name": "_tokenId",
          "type": "uint256"
        }
      ],
      "name": "tokenURI",
      "outputs": [
        {
          "name": "",
          "type": "string"
        }
      ],
      "payable": false,
      "stateMutability": "view",
      "type": "function"
    },
    {
      "constant": true,
      "inputs": [
        {
          "name": "_owner",
          "type": "address"
        },
        {
          "name": "_operator",
          "type": "address"
        }
      ],
      "name": "isApprovedForAll",
      "outputs": [
        {
          "name": "",
          "type": "bool"
        }
      ],
      "payable": false,
      "stateMutability": "view",
      "type": "function"
    },
    {
      "constant": false,
      "inputs": [
        {
          "name": "newOwner",
          "type": "address"
        }
      ],
      "name": "transferOwnership",
      "outputs": [],
      "payable": false,
      "stateMutability": "nonpayable",
      "type": "function"
    },
    {
      "constant": true,
      "inputs": [],
      "name": "sanTTTCost",
      "outputs": [
        {
          "name": "",
          "type": "uint256"
        }
      ],
      "payable": false,
      "stateMutability": "view",
      "type": "function"
    },
    {
      "inputs": [],
      "payable": false,
      "stateMutability": "nonpayable",
      "type": "constructor"
    },
    {
      "anonymous": false,
      "inputs": [
        {
          "indexed": false,
          "name": "sanOwner",
          "type": "address"
        },
        {
          "indexed": false,
          "name": "sanId",
          "type": "uint256"
        },
        {
          "indexed": false,
          "name": "sanName",
          "type": "string"
        }
      ],
      "name": "SanMinted",
      "type": "event"
    },
    {
      "anonymous": false,
      "inputs": [
        {
          "indexed": false,
          "name": "sanOwner",
          "type": "address"
        },
        {
          "indexed": false,
          "name": "amt",
          "type": "uint256"
        }
      ],
      "name": "SanSlotsPurchase",
      "type": "event"
    },
    {
      "anonymous": false,
      "inputs": [
        {
          "indexed": true,
          "name": "previousOwner",
          "type": "address"
        },
        {
          "indexed": true,
          "name": "newOwner",
          "type": "address"
        }
      ],
      "name": "OwnershipTransferred",
      "type": "event"
    },
    {
      "anonymous": false,
      "inputs": [
        {
          "indexed": true,
          "name": "_from",
          "type": "address"
        },
        {
          "indexed": true,
          "name": "_to",
          "type": "address"
        },
        {
          "indexed": false,
          "name": "_tokenId",
          "type": "uint256"
        }
      ],
      "name": "Transfer",
      "type": "event"
    },
    {
      "anonymous": false,
      "inputs": [
        {
          "indexed": true,
          "name": "_owner",
          "type": "address"
        },
        {
          "indexed": true,
          "name": "_approved",
          "type": "address"
        },
        {
          "indexed": false,
          "name": "_tokenId",
          "type": "uint256"
        }
      ],
      "name": "Approval",
      "type": "event"
    },
    {
      "anonymous": false,
      "inputs": [
        {
          "indexed": true,
          "name": "_owner",
          "type": "address"
        },
        {
          "indexed": true,
          "name": "_operator",
          "type": "address"
        },
        {
          "indexed": false,
          "name": "_approved",
          "type": "bool"
        }
      ],
      "name": "ApprovalForAll",
      "type": "event"
    },
    {
      "constant": false,
      "inputs": [
        {
          "name": "_sanName",
          "type": "string"
        },
        {
          "name": "_sanageUri",
          "type": "string"
        }
      ],
      "name": "sanMint",
      "outputs": [
        {
          "name": "",
          "type": "string"
        }
      ],
      "payable": false,
      "stateMutability": "nonpayable",
      "type": "function"
    },
    {
      "constant": false,
      "inputs": [
        {
          "name": "_sanId",
          "type": "uint256"
        }
      ],
      "name": "getSANOwner",
      "outputs": [
        {
          "name": "",
          "type": "address"
        }
      ],
      "payable": false,
      "stateMutability": "nonpayable",
      "type": "function"
    },
    {
      "constant": true,
      "inputs": [
        {
          "name": "_sanName",
          "type": "string"
        }
      ],
      "name": "getSanIdFromName",
      "outputs": [
        {
          "name": "",
          "type": "uint256"
        }
      ],
      "payable": false,
      "stateMutability": "view",
      "type": "function"
    },
    {
      "constant": true,
      "inputs": [
        {
          "name": "_sanId",
          "type": "uint256"
        }
      ],
      "name": "getSanName",
      "outputs": [
        {
          "name": "",
          "type": "string"
        }
      ],
      "payable": false,
      "stateMutability": "view",
      "type": "function"
    },
    {
      "constant": true,
      "inputs": [
        {
          "name": "_sanId",
          "type": "uint256"
        }
      ],
      "name": "getSanTimeAlive",
      "outputs": [
        {
          "name": "",
          "type": "uint256"
        }
      ],
      "payable": false,
      "stateMutability": "view",
      "type": "function"
    },
    {
      "constant": true,
      "inputs": [
        {
          "name": "_sanId",
          "type": "uint256"
        }
      ],
      "name": "getSanTimeLastMove",
      "outputs": [
        {
          "name": "",
          "type": "uint256"
        }
      ],
      "payable": false,
      "stateMutability": "view",
      "type": "function"
    },
    {
      "constant": true,
      "inputs": [
        {
          "name": "_sanId",
          "type": "uint256"
        }
      ],
      "name": "getSanPrevOwner",
      "outputs": [
        {
          "name": "",
          "type": "address"
        }
      ],
      "payable": false,
      "stateMutability": "view",
      "type": "function"
    },
    {
      "constant": true,
      "inputs": [
        {
          "name": "_sanName",
          "type": "string"
        }
      ],
      "name": "getAddressFromSan",
      "outputs": [
        {
          "name": "",
          "type": "address"
        }
      ],
      "payable": false,
      "stateMutability": "view",
      "type": "function"
    },
    {
      "constant": true,
      "inputs": [
        {
          "name": "_sanOwner",
          "type": "address"
        }
      ],
      "name": "getSanSlots",
      "outputs": [
        {
          "name": "",
          "type": "uint256"
        }
      ],
      "payable": false,
      "stateMutability": "view",
      "type": "function"
    },
    {
      "constant": true,
      "inputs": [
        {
          "name": "_sanName",
          "type": "string"
        }
      ],
      "name": "getSANitized",
      "outputs": [
        {
          "name": "",
          "type": "string"
        }
      ],
      "payable": false,
      "stateMutability": "view",
      "type": "function"
    },
    {
      "constant": false,
      "inputs": [
        {
          "name": "_sanOwner",
          "type": "address"
        },
        {
          "name": "_tip",
          "type": "uint256"
        }
      ],
      "name": "buySanSlot",
      "outputs": [
        {
          "name": "",
          "type": "bool"
        }
      ],
      "payable": false,
      "stateMutability": "nonpayable",
      "type": "function"
    },
    {
      "constant": false,
      "inputs": [
        {
          "name": "_cost",
          "type": "uint256"
        }
      ],
      "name": "setSanTTTCost",
      "outputs": [],
      "payable": false,
      "stateMutability": "nonpayable",
      "type": "function"
    },
    {
      "constant": false,
      "inputs": [
        {
          "name": "_length",
          "type": "uint256"
        },
        {
          "name": "_pos",
          "type": "uint256"
        }
      ],
      "name": "setSanLength",
      "outputs": [],
      "payable": false,
      "stateMutability": "nonpayable",
      "type": "function"
    },
    {
      "constant": false,
      "inputs": [
        {
          "name": "_mask",
          "type": "string"
        }
      ],
      "name": "setSanMask",
      "outputs": [],
      "payable": false,
      "stateMutability": "nonpayable",
      "type": "function"
    },
    {
      "constant": false,
      "inputs": [
        {
          "name": "_sanOwner",
          "type": "address"
        },
        {
          "name": "_slotCount",
          "type": "uint256"
        }
      ],
      "name": "ownerAddSanSlot",
      "outputs": [],
      "payable": false,
      "stateMutability": "nonpayable",
      "type": "function"
    },
    {
      "constant": false,
      "inputs": [
        {
          "name": "_marketAddress",
          "type": "address"
        }
      ],
      "name": "setMarketAddress",
      "outputs": [],
      "payable": false,
      "stateMutability": "nonpayable",
      "type": "function"
    },
    {
      "constant": false,
      "inputs": [
        {
          "name": "_baseUrl",
          "type": "string"
        }
      ],
      "name": "setBaseUrl",
      "outputs": [],
      "payable": false,
      "stateMutability": "nonpayable",
      "type": "function"
    },
    {
      "constant": false,
      "inputs": [
        {
          "name": "_wallet",
          "type": "address"
        }
      ],
      "name": "setOwnerWallet",
      "outputs": [],
      "payable": false,
      "stateMutability": "nonpayable",
      "type": "function"
    },
    {
      "constant": false,
      "inputs": [
        {
          "name": "_sanId",
          "type": "uint256"
        },
        {
          "name": "_newUri",
          "type": "string"
        }
      ],
      "name": "updateTokenUri",
      "outputs": [],
      "payable": false,
      "stateMutability": "nonpayable",
      "type": "function"
    },
    {
      "constant": false,
      "inputs": [],
      "name": "emptyContract",
      "outputs": [],
      "payable": false,
      "stateMutability": "nonpayable",
      "type": "function"
    },
    {
      "constant": false,
      "inputs": [
        {
          "name": "_sanName",
          "type": "string"
        },
        {
          "name": "_sanageUri",
          "type": "string"
        },
        {
          "name": "_address",
          "type": "address"
        }
      ],
      "name": "specialSanMint",
      "outputs": [
        {
          "name": "",
          "type": "string"
        }
      ],
      "payable": false,
      "stateMutability": "nonpayable",
      "type": "function"
    }
  ],
  "bytecode": "0x6060604052735bcfcbde79895d3d6a115baf5386ae5463df2aaf600c60006101000a81548173ffffffffffffffffffffffffffffffffffffffff021916908373ffffffffffffffffffffffffffffffffffffffff160217905550733a518a5f5ac3f3dbf4ecd6b91dfbbb8422832996600d60006101000a81548173ffffffffffffffffffffffffffffffffffffffff021916908373ffffffffffffffffffffffffffffffffffffffff1602179055506040805190810160405280601f81526020017f68747470733a2f2f746865746970746f6b656e2e696f2f6172762f696d672f0081525060129080519060200190620000fb92919062000a37565b5034156200010857600080fd5b6200011262000abe565b60006040805190810160405280600681526020017f54545453414e00000000000000000000000000000000000000000000000000008152506040805190810160405280600481526020017f545454530000000000000000000000000000000000000000000000000000000081525081600490805190602001906200019892919062000a37565b508060059080519060200190620001b192919062000a37565b50505033600b60006101000a81548173ffffffffffffffffffffffffffffffffffffffff021916908373ffffffffffffffffffffffffffffffffffffffff160217905550671bc16d674ec80000600f81905550601080819055506002601181905550600d60009054906101000a900473ffffffffffffffffffffffffffffffffffffffff16601960006101000a81548173ffffffffffffffffffffffffffffffffffffffff021916908373ffffffffffffffffffffffffffffffffffffffff160217905550608060405190810160405280606060405190810160405280602881526020017f4e65766572476f6e6e6147697665596f7555702e4e65766572476f6e6e614c6581526020017f74596f75446f776e00000000000000000000000000000000000000000000000081525081526020014281526020014281526020013373ffffffffffffffffffffffffffffffffffffffff16815250915060016018805480600101828162000324919062000b05565b9160005260206000209060040201600085909190915060008201518160000190805190602001906200035892919062000b3a565b50602082015181600101556040820151816002015560608201518160030160006101000a81548173ffffffffffffffffffffffffffffffffffffffff021916908373ffffffffffffffffffffffffffffffffffffffff1602179055505050039050620003d9338262000690640100000000026200397e176401000000009004565b80601560405180807f4e65766572476f6e6e6147697665596f7555702e4e65766572476f6e6e614c6581526020017f74596f75446f776e000000000000000000000000000000000000000000000000815250602801905090815260200160405180910390208190555033601660405180807f4e65766572476f6e6e6147697665596f7555702e4e65766572476f6e6e614c6581526020017f74596f75446f776e0000000000000000000000000000000000000000000000008152506028019050908152602001604051809103902060006101000a81548173ffffffffffffffffffffffffffffffffffffffff021916908373ffffffffffffffffffffffffffffffffffffffff160217905550601760003373ffffffffffffffffffffffffffffffffffffffff1673ffffffffffffffffffffffffffffffffffffffff168152602001908152602001600020805480600101828162000538919062000bc1565b91600052602060002090016000606060405190810160405280602881526020017f4e65766572476f6e6e6147697665596f7555702e4e65766572476f6e6e614c6581526020017f74596f75446f776e00000000000000000000000000000000000000000000000081525090919091509080519060200190620005bc92919062000a37565b50507fdf5fffc2bd8c53e0c41aa67368817a9fb69561752c912bb1fa2e04d64d564f553382604051808373ffffffffffffffffffffffffffffffffffffffff1673ffffffffffffffffffffffffffffffffffffffff16815260200182815260200180602001828103825260288152602001807f4e65766572476f6e6e6147697665596f7555702e4e65766572476f6e6e614c6581526020017f74596f75446f776e000000000000000000000000000000000000000000000000815250604001935050505060405180910390a1505062000d43565b620006b08282620006fc6401000000000262003fd3176401000000009004565b600880549050600960008381526020019081526020016000208190555060088054806001018281620006e3919062000bf0565b9160005260206000209001600083909190915055505050565b600073ffffffffffffffffffffffffffffffffffffffff168273ffffffffffffffffffffffffffffffffffffffff16141515156200073957600080fd5b620007598282620007c364010000000002620038aa176401000000009004565b8173ffffffffffffffffffffffffffffffffffffffff16600073ffffffffffffffffffffffffffffffffffffffff167fddf252ad1be2c89b69c2b068fc378daa952ba7f163c4a11628f55a4df523b3ef836040518082815260200191505060405180910390a35050565b6000620007e58383620008af6401000000000262003e7b176401000000009004565b600660008473ffffffffffffffffffffffffffffffffffffffff1673ffffffffffffffffffffffffffffffffffffffff168152602001908152602001600020805490509050600660008473ffffffffffffffffffffffffffffffffffffffff1673ffffffffffffffffffffffffffffffffffffffff16815260200190815260200160002080548060010182816200087d919062000bf0565b916000526020600020900160008490919091505550806007600084815260200190815260200160002081905550505050565b600073ffffffffffffffffffffffffffffffffffffffff1660008083815260200190815260200160002060009054906101000a900473ffffffffffffffffffffffffffffffffffffffff1673ffffffffffffffffffffffffffffffffffffffff161415156200091d57600080fd5b8160008083815260200190815260200160002060006101000a81548173ffffffffffffffffffffffffffffffffffffffff021916908373ffffffffffffffffffffffffffffffffffffffff160217905550620009d16001600260008573ffffffffffffffffffffffffffffffffffffffff1673ffffffffffffffffffffffffffffffffffffffff1681526020019081526020016000205462000a186401000000000262003b4d179091906401000000009004565b600260008473ffffffffffffffffffffffffffffffffffffffff1673ffffffffffffffffffffffffffffffffffffffff168152602001908152602001600020819055505050565b600080828401905083811015151562000a2d57fe5b8091505092915050565b828054600181600116156101000203166002900490600052602060002090601f016020900481019282601f1062000a7a57805160ff191683800117855562000aab565b8280016001018555821562000aab579182015b8281111562000aaa57825182559160200191906001019062000a8d565b5b50905062000aba919062000c1f565b5090565b60806040519081016040528062000ad462000c47565b81526020016000815260200160008152602001600073ffffffffffffffffffffffffffffffffffffffff1681525090565b81548183558181151162000b355760040281600402836000526020600020918201910162000b34919062000c5b565b5b505050565b828054600181600116156101000203166002900490600052602060002090601f016020900481019282601f1062000b7d57805160ff191683800117855562000bae565b8280016001018555821562000bae579182015b8281111562000bad57825182559160200191906001019062000b90565b5b50905062000bbd919062000c1f565b5090565b81548183558181151162000beb5781836000526020600020918201910162000bea919062000cc6565b5b505050565b81548183558181151162000c1a5781836000526020600020918201910162000c19919062000c1f565b5b505050565b62000c4491905b8082111562000c4057600081600090555060010162000c26565b5090565b90565b602060405190810160405280600081525090565b62000cc391905b8082111562000cbf576000808201600062000c7e919062000cf7565b600182016000905560028201600090556003820160006101000a81549073ffffffffffffffffffffffffffffffffffffffff02191690555060040162000c62565b5090565b90565b62000cf491905b8082111562000cf0576000818162000ce6919062000cf7565b5060010162000ccd565b5090565b90565b50805460018160011615610100020316600290046000825580601f1062000d1f575062000d40565b601f01602090049060005260206000209081019062000d3f919062000c1f565b5b50565b614bac8062000d536000396000f30060606040526004361061023b576000357c0100000000000000000000000000000000000000000000000000000000900463ffffffff16806306fdde0314610240578063081812fc146102ce578063095ea7b31461033157806310adb0ea1461037357806318160ddd1461039c57806319236b4e146103c557806323b872dd146103fc5780632712d9161461045d5780632f745c59146104805780633289fba6146104d65780633303a9d81461053957806341c838cb1461061357806342842e0e146106ba57806347f5666f1461071b5780634f558e791461078c5780634f6ccce7146107c757806350b79722146107fe578063521eb2731461082a5780635bcabf041461087f5780636352211e1461090d5780636dd6e6731461097057806370a08231146109ca5780638da5cb5b14610a175780639562364114610a6c57806395d89b4114610ac1578063a22cb46514610b4f578063a64ded3114610b93578063a9eeaeee14610be8578063aaf4991014610c35578063ab91154e14610c5e578063b70fadb714610ca0578063b88d4fde14610d3d578063bb542ef014610de1578063be013cce14610e1a578063be9ddfed14610e48578063c294c93b14610e7f578063c30d9a7e14610ee2578063c7c3268b14610fbf578063c87b56dd1461101c578063d31af484146110b8578063d812d9611461111e578063d88905fa146111ba578063e3a8b34514611275578063e985e9c51461128a578063f2fde38b146112fa578063f569626d14611333578063fae926121461135c575b600080fd5b341561024b57600080fd5b610253611395565b6040518080602001828103825283818151815260200191508051906020019080838360005b83811015610293578082015181840152602081019050610278565b50505050905090810190601f1680156102c05780820380516001836020036101000a031916815260200191505b509250505060405180910390f35b34156102d957600080fd5b6102ef600480803590602001909190505061143d565b604051808273ffffffffffffffffffffffffffffffffffffffff1673ffffffffffffffffffffffffffffffffffffffff16815260200191505060405180910390f35b341561033c57600080fd5b610371600480803573ffffffffffffffffffffffffffffffffffffffff1690602001909190803590602001909190505061147a565b005b341561037e57600080fd5b610386611640565b6040518082815260200191505060405180910390f35b34156103a757600080fd5b6103af611646565b6040518082815260200191505060405180910390f35b34156103d057600080fd5b6103e66004808035906020019091905050611653565b6040518082815260200191505060405180910390f35b341561040757600080fd5b61045b600480803573ffffffffffffffffffffffffffffffffffffffff1690602001909190803573ffffffffffffffffffffffffffffffffffffffff1690602001909190803590602001909190505061167d565b005b341561046857600080fd5b61047e6004808035906020019091905050611794565b005b341561048b57600080fd5b6104c0600480803573ffffffffffffffffffffffffffffffffffffffff16906020019091908035906020019091905050611809565b6040518082815260200191505060405180910390f35b34156104e157600080fd5b6104f76004808035906020019091905050611881565b604051808273ffffffffffffffffffffffffffffffffffffffff1673ffffffffffffffffffffffffffffffffffffffff16815260200191505060405180910390f35b341561054457600080fd5b61059860048080359060200190820180359060200191909192908035906020019082018035906020019190919290803573ffffffffffffffffffffffffffffffffffffffff169060200190919050506118cb565b6040518080602001828103825283818151815260200191508051906020019080838360005b838110156105d85780820151818401526020810190506105bd565b50505050905090810190601f1680156106055780820380516001836020036101000a031916815260200191505b509250505060405180910390f35b341561061e57600080fd5b61063f60048080359060200190820180359060200191909192905050611c65565b6040518080602001828103825283818151815260200191508051906020019080838360005b8381101561067f578082015181840152602081019050610664565b50505050905090810190601f1680156106ac5780820380516001836020036101000a031916815260200191505b509250505060405180910390f35b34156106c557600080fd5b610719600480803573ffffffffffffffffffffffffffffffffffffffff1690602001909190803573ffffffffffffffffffffffffffffffffffffffff16906020019091908035906020019091905050611cb0565b005b341561072657600080fd5b610776600480803590602001908201803590602001908080601f01602080910402602001604051908101604052809392919081815260200183838082843782019150505050505091905050611ce8565b6040518082815260200191505060405180910390f35b341561079757600080fd5b6107ad6004808035906020019091905050611d5d565b604051808215151515815260200191505060405180910390f35b34156107d257600080fd5b6107e86004808035906020019091905050611dce565b6040518082815260200191505060405180910390f35b341561080957600080fd5b6108286004808035906020019091908035906020019091905050611e07565b005b341561083557600080fd5b61083d611e93565b604051808273ffffffffffffffffffffffffffffffffffffffff1673ffffffffffffffffffffffffffffffffffffffff16815260200191505060405180910390f35b341561088a57600080fd5b610892611eb9565b6040518080602001828103825283818151815260200191508051906020019080838360005b838110156108d25780820151818401526020810190506108b7565b50505050905090810190601f1680156108ff5780820380516001836020036101000a031916815260200191505b509250505060405180910390f35b341561091857600080fd5b61092e6004808035906020019091905050611f57565b604051808273ffffffffffffffffffffffffffffffffffffffff1673ffffffffffffffffffffffffffffffffffffffff16815260200191505060405180910390f35b341561097b57600080fd5b6109b0600480803573ffffffffffffffffffffffffffffffffffffffff16906020019091908035906020019091905050611fd4565b604051808215151515815260200191505060405180910390f35b34156109d557600080fd5b610a01600480803573ffffffffffffffffffffffffffffffffffffffff16906020019091905050612225565b6040518082815260200191505060405180910390f35b3415610a2257600080fd5b610a2a6122a9565b604051808273ffffffffffffffffffffffffffffffffffffffff1673ffffffffffffffffffffffffffffffffffffffff16815260200191505060405180910390f35b3415610a7757600080fd5b610a7f6122cf565b604051808273ffffffffffffffffffffffffffffffffffffffff1673ffffffffffffffffffffffffffffffffffffffff16815260200191505060405180910390f35b3415610acc57600080fd5b610ad46122f5565b6040518080602001828103825283818151815260200191508051906020019080838360005b83811015610b14578082015181840152602081019050610af9565b50505050905090810190601f168015610b415780820380516001836020036101000a031916815260200191505b509250505060405180910390f35b3415610b5a57600080fd5b610b91600480803573ffffffffffffffffffffffffffffffffffffffff16906020019091908035151590602001909190505061239d565b005b3415610b9e57600080fd5b610ba66124d9565b604051808273ffffffffffffffffffffffffffffffffffffffff1673ffffffffffffffffffffffffffffffffffffffff16815260200191505060405180910390f35b3415610bf357600080fd5b610c1f600480803573ffffffffffffffffffffffffffffffffffffffff169060200190919050506124ff565b6040518082815260200191505060405180910390f35b3415610c4057600080fd5b610c48612548565b6040518082815260200191505060405180910390f35b3415610c6957600080fd5b610c9e600480803573ffffffffffffffffffffffffffffffffffffffff1690602001909190803590602001909190505061254e565b005b3415610cab57600080fd5b610cfb600480803590602001908201803590602001908080601f016020809104026020016040519081016040528093929190818152602001838380828437820191505050505050919050506125ae565b604051808273ffffffffffffffffffffffffffffffffffffffff1673ffffffffffffffffffffffffffffffffffffffff16815260200191505060405180910390f35b3415610d4857600080fd5b610ddf600480803573ffffffffffffffffffffffffffffffffffffffff1690602001909190803573ffffffffffffffffffffffffffffffffffffffff1690602001909190803590602001909190803590602001908201803590602001908080601f01602080910402602001604051908101604052809392919081815260200183838082843782019150505050505091905050612643565b005b3415610dec57600080fd5b610e18600480803573ffffffffffffffffffffffffffffffffffffffff16906020019091905050612682565b005b3415610e2557600080fd5b610e4660048080359060200190820180359060200191909192905050612722565b005b3415610e5357600080fd5b610e696004808035906020019091905050612782565b6040518082815260200191505060405180910390f35b3415610e8a57600080fd5b610ea060048080359060200190919050506127ac565b604051808273ffffffffffffffffffffffffffffffffffffffff1673ffffffffffffffffffffffffffffffffffffffff16815260200191505060405180910390f35b3415610eed57600080fd5b610f0360048080359060200190919050506127be565b60405180806020018581526020018481526020018373ffffffffffffffffffffffffffffffffffffffff1673ffffffffffffffffffffffffffffffffffffffff168152602001828103825286818151815260200191508051906020019080838360005b83811015610f81578082015181840152602081019050610f66565b50505050905090810190601f168015610fae5780820380516001836020036101000a031916815260200191505b509550505050505060405180910390f35b3415610fca57600080fd5b61101a600480803590602001908201803590602001908080601f016020809104026020016040519081016040528093929190818152602001838380828437820191505050505050919050506128b5565b005b341561102757600080fd5b61103d600480803590602001909190505061292b565b6040518080602001828103825283818151815260200191508051906020019080838360005b8381101561107d578082015181840152602081019050611062565b50505050905090810190601f1680156110aa5780820380516001836020036101000a031916815260200191505b509250505060405180910390f35b34156110c357600080fd5b61111c600480803590602001909190803590602001908201803590602001908080601f016020809104026020016040519081016040528093929190818152602001838380828437820191505050505050919050506129fa565b005b341561112957600080fd5b61113f6004808035906020019091905050612a5a565b6040518080602001828103825283818151815260200191508051906020019080838360005b8381101561117f578082015181840152602081019050611164565b50505050905090810190601f1680156111ac5780820380516001836020036101000a031916815260200191505b509250505060405180910390f35b34156111c557600080fd5b6111fa600480803590602001908201803590602001919091929080359060200190820180359060200191909192905050612b22565b6040518080602001828103825283818151815260200191508051906020019080838360005b8381101561123a57808201518184015260208101905061121f565b50505050905090810190601f1680156112675780820380516001836020036101000a031916815260200191505b509250505060405180910390f35b341561128057600080fd5b611288612fed565b005b341561129557600080fd5b6112e0600480803573ffffffffffffffffffffffffffffffffffffffff1690602001909190803573ffffffffffffffffffffffffffffffffffffffff169060200190919050506131ff565b604051808215151515815260200191505060405180910390f35b341561130557600080fd5b611331600480803573ffffffffffffffffffffffffffffffffffffffff16906020019091905050613293565b005b341561133e57600080fd5b6113466133eb565b6040518082815260200191505060405180910390f35b341561136757600080fd5b611393600480803573ffffffffffffffffffffffffffffffffffffffff169060200190919050506133f1565b005b61139d6147ca565b60048054600181600116156101000203166002900480601f0160208091040260200160405190810160405280929190818152602001828054600181600116156101000203166002900480156114335780601f1061140857610100808354040283529160200191611433565b820191906000526020600020905b81548152906001019060200180831161141657829003601f168201915b5050505050905090565b60006001600083815260200190815260200160002060009054906101000a900473ffffffffffffffffffffffffffffffffffffffff169050919050565b600061148582611f57565b90508073ffffffffffffffffffffffffffffffffffffffff168373ffffffffffffffffffffffffffffffffffffffff16141515156114c257600080fd5b8073ffffffffffffffffffffffffffffffffffffffff163373ffffffffffffffffffffffffffffffffffffffff161480611502575061150181336131ff565b5b151561150d57600080fd5b600073ffffffffffffffffffffffffffffffffffffffff1661152e8361143d565b73ffffffffffffffffffffffffffffffffffffffff1614158061157e5750600073ffffffffffffffffffffffffffffffffffffffff168373ffffffffffffffffffffffffffffffffffffffff1614155b1561163b57826001600084815260200190815260200160002060006101000a81548173ffffffffffffffffffffffffffffffffffffffff021916908373ffffffffffffffffffffffffffffffffffffffff1602179055508273ffffffffffffffffffffffffffffffffffffffff168173ffffffffffffffffffffffffffffffffffffffff167f8c5be1e5ebec7d5bd14f71427d1e84f3dd0314c0f7b2291e5b200ac8c7c3b925846040518082815260200191505060405180910390a35b505050565b60105481565b6000600880549050905090565b600060188281548110151561166457fe5b9060005260206000209060040201600101549050919050565b806116883382613491565b151561169357600080fd5b600073ffffffffffffffffffffffffffffffffffffffff168473ffffffffffffffffffffffffffffffffffffffff16141515156116cf57600080fd5b600073ffffffffffffffffffffffffffffffffffffffff168373ffffffffffffffffffffffffffffffffffffffff161415151561170b57600080fd5b6117158483613526565b61171f848361368f565b61172983836138aa565b8273ffffffffffffffffffffffffffffffffffffffff168473ffffffffffffffffffffffffffffffffffffffff167fddf252ad1be2c89b69c2b068fc378daa952ba7f163c4a11628f55a4df523b3ef846040518082815260200191505060405180910390a350505050565b600b60009054906101000a900473ffffffffffffffffffffffffffffffffffffffff1673ffffffffffffffffffffffffffffffffffffffff163373ffffffffffffffffffffffffffffffffffffffff161415156117f057600080fd5b6000811115156117ff57600080fd5b80600f8190555050565b600061181483612225565b8210151561182157600080fd5b600660008473ffffffffffffffffffffffffffffffffffffffff1673ffffffffffffffffffffffffffffffffffffffff1681526020019081526020016000208281548110151561186d57fe5b906000526020600020900154905092915050565b600060188281548110151561189257fe5b906000526020600020906004020160030160009054906101000a900473ffffffffffffffffffffffffffffffffffffffff169050919050565b6118d36147ca565b6118db6147de565b6000600b60009054906101000a900473ffffffffffffffffffffffffffffffffffffffff1673ffffffffffffffffffffffffffffffffffffffff163373ffffffffffffffffffffffffffffffffffffffff1614151561193957600080fd5b60806040519081016040528089898080601f01602080910402602001604051908101604052809392919081815260200183838082843782019150505050505081526020014281526020014281526020018573ffffffffffffffffffffffffffffffffffffffff1681525091506001601880548060010182816119bb9190614823565b9160005260206000209060040201600085909190915060008201518160000190805190602001906119ed929190614855565b50602082015181600101556040820151816002015560608201518160030160006101000a81548173ffffffffffffffffffffffffffffffffffffffff021916908373ffffffffffffffffffffffffffffffffffffffff1602179055505050039050611a58848261397e565b611a948187878080601f0160208091040260200160405190810160405280939291908181526020018383808284378201915050505050506139d2565b806015898960405180838380828437820191505092505050908152602001604051809103902081905550836016898960405180838380828437820191505092505050908152602001604051809103902060006101000a81548173ffffffffffffffffffffffffffffffffffffffff021916908373ffffffffffffffffffffffffffffffffffffffff160217905550601760008573ffffffffffffffffffffffffffffffffffffffff1673ffffffffffffffffffffffffffffffffffffffff1681526020019081526020016000208054806001018281611b7391906148d5565b916000526020600020900160008a8a909192909192509190611b96929190614901565b50507fdf5fffc2bd8c53e0c41aa67368817a9fb69561752c912bb1fa2e04d64d564f5584828a8a604051808573ffffffffffffffffffffffffffffffffffffffff1673ffffffffffffffffffffffffffffffffffffffff16815260200184815260200180602001828103825284848281815260200192508082843782019150509550505050505060405180910390a187878080601f0160208091040260200160405190810160405280939291908181526020018383808284378201915050505050509250505095945050505050565b611c6d6147ca565b611ca883838080601f016020809104026020016040519081016040528093929190818152602001838380828437820191505050505050613a12565b905092915050565b80611cbb3382613491565b1515611cc657600080fd5b611ce28484846020604051908101604052806000815250612643565b50505050565b60006015826040518082805190602001908083835b602083101515611d225780518252602082019150602081019050602083039250611cfd565b6001836020036101000a0380198251168184511680821785525050505050509050019150509081526020016040518091039020549050919050565b60008060008084815260200190815260200160002060009054906101000a900473ffffffffffffffffffffffffffffffffffffffff169050600073ffffffffffffffffffffffffffffffffffffffff168173ffffffffffffffffffffffffffffffffffffffff161415915050919050565b6000611dd8611646565b82101515611de557600080fd5b600882815481101515611df457fe5b9060005260206000209001549050919050565b600b60009054906101000a900473ffffffffffffffffffffffffffffffffffffffff1673ffffffffffffffffffffffffffffffffffffffff163373ffffffffffffffffffffffffffffffffffffffff16141515611e6357600080fd5b600082111515611e7257600080fd5b6000811415611e875781601181905550611e8f565b816010819055505b5050565b600c60009054906101000a900473ffffffffffffffffffffffffffffffffffffffff1681565b60128054600181600116156101000203166002900480601f016020809104026020016040519081016040528092919081815260200182805460018160011615610100020316600290048015611f4f5780601f10611f2457610100808354040283529160200191611f4f565b820191906000526020600020905b815481529060010190602001808311611f3257829003601f168201915b505050505081565b60008060008084815260200190815260200160002060009054906101000a900473ffffffffffffffffffffffffffffffffffffffff169050600073ffffffffffffffffffffffffffffffffffffffff168173ffffffffffffffffffffffffffffffffffffffff1614151515611fcb57600080fd5b80915050919050565b6000600f548210151515611fe757600080fd5b601960009054906101000a900473ffffffffffffffffffffffffffffffffffffffff1673ffffffffffffffffffffffffffffffffffffffff166323b872dd33600c60009054906101000a900473ffffffffffffffffffffffffffffffffffffffff16856040518463ffffffff167c0100000000000000000000000000000000000000000000000000000000028152600401808473ffffffffffffffffffffffffffffffffffffffff1673ffffffffffffffffffffffffffffffffffffffff1681526020018373ffffffffffffffffffffffffffffffffffffffff1673ffffffffffffffffffffffffffffffffffffffff1681526020018281526020019350505050602060405180830381600087803b151561210157600080fd5b5af1151561210e57600080fd5b505050604051805190505061216c6001601460008673ffffffffffffffffffffffffffffffffffffffff1673ffffffffffffffffffffffffffffffffffffffff16815260200190815260200160002054613b4d90919063ffffffff16565b601460008573ffffffffffffffffffffffffffffffffffffffff1673ffffffffffffffffffffffffffffffffffffffff168152602001908152602001600020819055507fb7291109bebadf61b269207c984079ae48cb4bf5f4637cf927f201864b7a72bd836001604051808373ffffffffffffffffffffffffffffffffffffffff1673ffffffffffffffffffffffffffffffffffffffff1681526020018281526020019250505060405180910390a16001905092915050565b60008073ffffffffffffffffffffffffffffffffffffffff168273ffffffffffffffffffffffffffffffffffffffff161415151561226257600080fd5b600260008373ffffffffffffffffffffffffffffffffffffffff1673ffffffffffffffffffffffffffffffffffffffff168152602001908152602001600020549050919050565b600b60009054906101000a900473ffffffffffffffffffffffffffffffffffffffff1681565b600e60009054906101000a900473ffffffffffffffffffffffffffffffffffffffff1681565b6122fd6147ca565b60058054600181600116156101000203166002900480601f0160208091040260200160405190810160405280929190818152602001828054600181600116156101000203166002900480156123935780601f1061236857610100808354040283529160200191612393565b820191906000526020600020905b81548152906001019060200180831161237657829003601f168201915b5050505050905090565b3373ffffffffffffffffffffffffffffffffffffffff168273ffffffffffffffffffffffffffffffffffffffff16141515156123d857600080fd5b80600360003373ffffffffffffffffffffffffffffffffffffffff1673ffffffffffffffffffffffffffffffffffffffff16815260200190815260200160002060008473ffffffffffffffffffffffffffffffffffffffff1673ffffffffffffffffffffffffffffffffffffffff16815260200190815260200160002060006101000a81548160ff0219169083151502179055508173ffffffffffffffffffffffffffffffffffffffff163373ffffffffffffffffffffffffffffffffffffffff167f17307eab39ab6107e8899845ad3d59bd9653f200f220920489ca2b5937696c3183604051808215151515815260200191505060405180910390a35050565b600d60009054906101000a900473ffffffffffffffffffffffffffffffffffffffff1681565b6000601460008373ffffffffffffffffffffffffffffffffffffffff1673ffffffffffffffffffffffffffffffffffffffff168152602001908152602001600020549050919050565b60115481565b600b60009054906101000a900473ffffffffffffffffffffffffffffffffffffffff1673ffffffffffffffffffffffffffffffffffffffff163373ffffffffffffffffffffffffffffffffffffffff161415156125aa57600080fd5b5050565b60006016826040518082805190602001908083835b6020831015156125e857805182526020820191506020810190506020830392506125c3565b6001836020036101000a038019825116818451168082178552505050505050905001915050908152602001604051809103902060009054906101000a900473ffffffffffffffffffffffffffffffffffffffff169050919050565b8161264e3382613491565b151561265957600080fd5b61266485858561167d565b61267085858585613b6b565b151561267b57600080fd5b5050505050565b600b60009054906101000a900473ffffffffffffffffffffffffffffffffffffffff1673ffffffffffffffffffffffffffffffffffffffff163373ffffffffffffffffffffffffffffffffffffffff161415156126de57600080fd5b80600c60006101000a81548173ffffffffffffffffffffffffffffffffffffffff021916908373ffffffffffffffffffffffffffffffffffffffff16021790555050565b600b60009054906101000a900473ffffffffffffffffffffffffffffffffffffffff1673ffffffffffffffffffffffffffffffffffffffff163373ffffffffffffffffffffffffffffffffffffffff1614151561277e57600080fd5b5050565b600060188281548110151561279357fe5b9060005260206000209060040201600201549050919050565b60006127b782611f57565b9050919050565b6018818154811015156127cd57fe5b9060005260206000209060040201600091509050806000018054600181600116156101000203166002900480601f0160208091040260200160405190810160405280929190818152602001828054600181600116156101000203166002900480156128795780601f1061284e57610100808354040283529160200191612879565b820191906000526020600020905b81548152906001019060200180831161285c57829003601f168201915b5050505050908060010154908060020154908060030160009054906101000a900473ffffffffffffffffffffffffffffffffffffffff16905084565b600b60009054906101000a900473ffffffffffffffffffffffffffffffffffffffff1673ffffffffffffffffffffffffffffffffffffffff163373ffffffffffffffffffffffffffffffffffffffff1614151561291157600080fd5b8060129080519060200190612927929190614981565b5050565b6129336147ca565b61293c82611d5d565b151561294757600080fd5b600a60008381526020019081526020016000208054600181600116156101000203166002900480601f0160208091040260200160405190810160405280929190818152602001828054600181600116156101000203166002900480156129ee5780601f106129c3576101008083540402835291602001916129ee565b820191906000526020600020905b8154815290600101906020018083116129d157829003601f168201915b50505050509050919050565b600b60009054906101000a900473ffffffffffffffffffffffffffffffffffffffff1673ffffffffffffffffffffffffffffffffffffffff163373ffffffffffffffffffffffffffffffffffffffff16141515612a5657600080fd5b5050565b612a626147ca565b601882815481101515612a7157fe5b90600052602060002090600402016000018054600181600116156101000203166002900480601f016020809104026020016040519081016040528092919081815260200182805460018160011615610100020316600290048015612b165780601f10612aeb57610100808354040283529160200191612b16565b820191906000526020600020905b815481529060010190602001808311612af957829003601f168201915b50505050509050919050565b612b2a6147ca565b612b326147ca565b612b3a6147de565b60006001601460003373ffffffffffffffffffffffffffffffffffffffff1673ffffffffffffffffffffffffffffffffffffffff1681526020019081526020016000205410151515612b8857fe5b612bc388888080601f016020809104026020016040519081016040528093929190818152602001838380828437820191505050505050613a12565b92506080604051908101604052808481526020014281526020014281526020013373ffffffffffffffffffffffffffffffffffffffff168152509150600160188054806001018281612c159190614823565b916000526020600020906004020160008590919091506000820151816000019080519060200190612c47929190614855565b50602082015181600101556040820151816002015560608201518160030160006101000a81548173ffffffffffffffffffffffffffffffffffffffff021916908373ffffffffffffffffffffffffffffffffffffffff1602179055505050039050612cb2338261397e565b612cee8187878080601f0160208091040260200160405190810160405280939291908181526020018383808284378201915050505050506139d2565b806015846040518082805190602001908083835b602083101515612d275780518252602082019150602081019050602083039250612d02565b6001836020036101000a038019825116818451168082178552505050505050905001915050908152602001604051809103902081905550336016846040518082805190602001908083835b602083101515612d975780518252602082019150602081019050602083039250612d72565b6001836020036101000a038019825116818451168082178552505050505050905001915050908152602001604051809103902060006101000a81548173ffffffffffffffffffffffffffffffffffffffff021916908373ffffffffffffffffffffffffffffffffffffffff160217905550601760003373ffffffffffffffffffffffffffffffffffffffff1673ffffffffffffffffffffffffffffffffffffffff1681526020019081526020016000208054806001018281612e5991906148d5565b916000526020600020900160008590919091509080519060200190612e7f929190614981565b50506001601460003373ffffffffffffffffffffffffffffffffffffffff1673ffffffffffffffffffffffffffffffffffffffff1681526020019081526020016000205403601460003373ffffffffffffffffffffffffffffffffffffffff1673ffffffffffffffffffffffffffffffffffffffff168152602001908152602001600020819055507fdf5fffc2bd8c53e0c41aa67368817a9fb69561752c912bb1fa2e04d64d564f55338285604051808473ffffffffffffffffffffffffffffffffffffffff1673ffffffffffffffffffffffffffffffffffffffff16815260200183815260200180602001828103825283818151815260200191508051906020019080838360005b83811015612fa3578082015181840152602081019050612f88565b50505050905090810190601f168015612fd05780820380516001836020036101000a031916815260200191505b5094505050505060405180910390a1829350505050949350505050565b6000600b60009054906101000a900473ffffffffffffffffffffffffffffffffffffffff1673ffffffffffffffffffffffffffffffffffffffff163373ffffffffffffffffffffffffffffffffffffffff1614151561304b57600080fd5b601960009054906101000a900473ffffffffffffffffffffffffffffffffffffffff1673ffffffffffffffffffffffffffffffffffffffff166370a08231306040518263ffffffff167c0100000000000000000000000000000000000000000000000000000000028152600401808273ffffffffffffffffffffffffffffffffffffffff1673ffffffffffffffffffffffffffffffffffffffff168152602001915050602060405180830381600087803b151561310757600080fd5b5af1151561311457600080fd5b505050604051805190509050601960009054906101000a900473ffffffffffffffffffffffffffffffffffffffff1673ffffffffffffffffffffffffffffffffffffffff1663a9059cbb33836040518363ffffffff167c0100000000000000000000000000000000000000000000000000000000028152600401808373ffffffffffffffffffffffffffffffffffffffff1673ffffffffffffffffffffffffffffffffffffffff16815260200182815260200192505050602060405180830381600087803b15156131e457600080fd5b5af115156131f157600080fd5b505050604051805190505050565b6000600360008473ffffffffffffffffffffffffffffffffffffffff1673ffffffffffffffffffffffffffffffffffffffff16815260200190815260200160002060008373ffffffffffffffffffffffffffffffffffffffff1673ffffffffffffffffffffffffffffffffffffffff16815260200190815260200160002060009054906101000a900460ff16905092915050565b600b60009054906101000a900473ffffffffffffffffffffffffffffffffffffffff1673ffffffffffffffffffffffffffffffffffffffff163373ffffffffffffffffffffffffffffffffffffffff161415156132ef57600080fd5b600073ffffffffffffffffffffffffffffffffffffffff168173ffffffffffffffffffffffffffffffffffffffff161415151561332b57600080fd5b8073ffffffffffffffffffffffffffffffffffffffff16600b60009054906101000a900473ffffffffffffffffffffffffffffffffffffffff1673ffffffffffffffffffffffffffffffffffffffff167f8be0079c531659141344cd1fd0a4f28419497f9722a3daafe3b4186f6b6457e060405160405180910390a380600b60006101000a81548173ffffffffffffffffffffffffffffffffffffffff021916908373ffffffffffffffffffffffffffffffffffffffff16021790555050565b600f5481565b600b60009054906101000a900473ffffffffffffffffffffffffffffffffffffffff1673ffffffffffffffffffffffffffffffffffffffff163373ffffffffffffffffffffffffffffffffffffffff1614151561344d57600080fd5b80600e60006101000a81548173ffffffffffffffffffffffffffffffffffffffff021916908373ffffffffffffffffffffffffffffffffffffffff16021790555050565b60008061349d83611f57565b90508073ffffffffffffffffffffffffffffffffffffffff168473ffffffffffffffffffffffffffffffffffffffff16148061350c57508373ffffffffffffffffffffffffffffffffffffffff166134f48461143d565b73ffffffffffffffffffffffffffffffffffffffff16145b8061351d575061351c81856131ff565b5b91505092915050565b8173ffffffffffffffffffffffffffffffffffffffff1661354682611f57565b73ffffffffffffffffffffffffffffffffffffffff1614151561356857600080fd5b600073ffffffffffffffffffffffffffffffffffffffff166001600083815260200190815260200160002060009054906101000a900473ffffffffffffffffffffffffffffffffffffffff1673ffffffffffffffffffffffffffffffffffffffff1614151561368b5760006001600083815260200190815260200160002060006101000a81548173ffffffffffffffffffffffffffffffffffffffff021916908373ffffffffffffffffffffffffffffffffffffffff160217905550600073ffffffffffffffffffffffffffffffffffffffff168273ffffffffffffffffffffffffffffffffffffffff167f8c5be1e5ebec7d5bd14f71427d1e84f3dd0314c0f7b2291e5b200ac8c7c3b925836040518082815260200191505060405180910390a35b5050565b600080600061369e8585613d34565b6007600085815260200190815260200160002054925061370a6001600660008873ffffffffffffffffffffffffffffffffffffffff1673ffffffffffffffffffffffffffffffffffffffff16815260200190815260200160002080549050613e6290919063ffffffff16565b9150600660008673ffffffffffffffffffffffffffffffffffffffff1673ffffffffffffffffffffffffffffffffffffffff1681526020019081526020016000208281548110151561375857fe5b906000526020600020900154905080600660008773ffffffffffffffffffffffffffffffffffffffff1673ffffffffffffffffffffffffffffffffffffffff168152602001908152602001600020848154811015156137b357fe5b9060005260206000209001819055506000600660008773ffffffffffffffffffffffffffffffffffffffff1673ffffffffffffffffffffffffffffffffffffffff1681526020019081526020016000208381548110151561381057fe5b906000526020600020900181905550600660008673ffffffffffffffffffffffffffffffffffffffff1673ffffffffffffffffffffffffffffffffffffffff1681526020019081526020016000208054809190600190036138719190614a01565b50600060076000868152602001908152602001600020819055508260076000838152602001908152602001600020819055505050505050565b60006138b68383613e7b565b600660008473ffffffffffffffffffffffffffffffffffffffff1673ffffffffffffffffffffffffffffffffffffffff168152602001908152602001600020805490509050600660008473ffffffffffffffffffffffffffffffffffffffff1673ffffffffffffffffffffffffffffffffffffffff168152602001908152602001600020805480600101828161394c9190614a2d565b916000526020600020900160008490919091505550806007600084815260200190815260200160002081905550505050565b6139888282613fd3565b6008805490506009600083815260200190815260200160002081905550600880548060010182816139b99190614a2d565b9160005260206000209001600083909190915055505050565b6139db82611d5d565b15156139e657600080fd5b80600a60008481526020019081526020016000209080519060200190613a0d929190614981565b505050565b613a1a6147ca565b613a226147ca565b613a2b83614083565b9050613a368161415c565b1515613a3e57fe5b6013816040518082805190602001908083835b602083101515613a765780518252602082019150602081019050602083039250613a51565b6001836020036101000a038019825116818451168082178552505050505050905001915050908152602001604051809103902060009054906101000a900460ff16151515613ac057fe5b60016013826040518082805190602001908083835b602083101515613afa5780518252602082019150602081019050602083039250613ad5565b6001836020036101000a038019825116818451168082178552505050505050905001915050908152602001604051809103902060006101000a81548160ff02191690831515021790555080915050919050565b6000808284019050838110151515613b6157fe5b8091505092915050565b600080613b8d8573ffffffffffffffffffffffffffffffffffffffff16614679565b1515613b9c5760019150613d2b565b8473ffffffffffffffffffffffffffffffffffffffff1663f0b9e5ba8786866040518463ffffffff167c0100000000000000000000000000000000000000000000000000000000028152600401808473ffffffffffffffffffffffffffffffffffffffff1673ffffffffffffffffffffffffffffffffffffffff16815260200183815260200180602001828103825283818151815260200191508051906020019080838360005b83811015613c5e578082015181840152602081019050613c43565b50505050905090810190601f168015613c8b5780820380516001836020036101000a031916815260200191505b50945050505050602060405180830381600087803b1515613cab57600080fd5b5af11515613cb857600080fd5b50505060405180519050905063f0b9e5ba7c0100000000000000000000000000000000000000000000000000000000027bffffffffffffffffffffffffffffffffffffffffffffffffffffffff1916817bffffffffffffffffffffffffffffffffffffffffffffffffffffffff19161491505b50949350505050565b8173ffffffffffffffffffffffffffffffffffffffff16613d5482611f57565b73ffffffffffffffffffffffffffffffffffffffff16141515613d7657600080fd5b613dc96001600260008573ffffffffffffffffffffffffffffffffffffffff1673ffffffffffffffffffffffffffffffffffffffff16815260200190815260200160002054613e6290919063ffffffff16565b600260008473ffffffffffffffffffffffffffffffffffffffff1673ffffffffffffffffffffffffffffffffffffffff16815260200190815260200160002081905550600080600083815260200190815260200160002060006101000a81548173ffffffffffffffffffffffffffffffffffffffff021916908373ffffffffffffffffffffffffffffffffffffffff1602179055505050565b6000828211151515613e7057fe5b818303905092915050565b600073ffffffffffffffffffffffffffffffffffffffff1660008083815260200190815260200160002060009054906101000a900473ffffffffffffffffffffffffffffffffffffffff1673ffffffffffffffffffffffffffffffffffffffff16141515613ee857600080fd5b8160008083815260200190815260200160002060006101000a81548173ffffffffffffffffffffffffffffffffffffffff021916908373ffffffffffffffffffffffffffffffffffffffff160217905550613f8c6001600260008573ffffffffffffffffffffffffffffffffffffffff1673ffffffffffffffffffffffffffffffffffffffff16815260200190815260200160002054613b4d90919063ffffffff16565b600260008473ffffffffffffffffffffffffffffffffffffffff1673ffffffffffffffffffffffffffffffffffffffff168152602001908152602001600020819055505050565b600073ffffffffffffffffffffffffffffffffffffffff168273ffffffffffffffffffffffffffffffffffffffff161415151561400f57600080fd5b61401982826138aa565b8173ffffffffffffffffffffffffffffffffffffffff16600073ffffffffffffffffffffffffffffffffffffffff167fddf252ad1be2c89b69c2b068fc378daa952ba7f163c4a11628f55a4df523b3ef836040518082815260200191505060405180910390a35050565b61408b6147ca565b614093614a59565b6000839150600090505b81518110156141525761410782828151811015156140b757fe5b9060200101517f010000000000000000000000000000000000000000000000000000000000000090047f01000000000000000000000000000000000000000000000000000000000000000261468c565b828281518110151561411557fe5b9060200101907effffffffffffffffffffffffffffffffffffffffffffffffffffffffffffff1916908160001a905350808060010191505061409d565b8192505050919050565b6000614166614a59565b6000806000806000806000806000808c9a508a5199506010548a1115801561418f57506011548a115b151561419757fe5b60207f0100000000000000000000000000000000000000000000000000000000000000029850602e7f010000000000000000000000000000000000000000000000000000000000000002975060657f010000000000000000000000000000000000000000000000000000000000000002965060747f010000000000000000000000000000000000000000000000000000000000000002955060687f0100000000000000000000000000000000000000000000000000000000000000029450600093506000925060009150600090505b8981101561462957887effffffffffffffffffffffffffffffffffffffffffffffffffffffffffffff19168b8281518110151561429f57fe5b9060200101517f010000000000000000000000000000000000000000000000000000000000000090047f0100000000000000000000000000000000000000000000000000000000000000027effffffffffffffffffffffffffffffffffffffffffffffffffffffffffffff1916141561431b5760009b50614669565b877effffffffffffffffffffffffffffffffffffffffffffffffffffffffffffff19168b8281518110151561434c57fe5b9060200101517f010000000000000000000000000000000000000000000000000000000000000090047f0100000000000000000000000000000000000000000000000000000000000000027effffffffffffffffffffffffffffffffffffffffffffffffffffffffffffff191614156143e05760018401935060018411156143d75760009b50614669565b6001925061461c565b6000831180156143f05750600583105b1561461b5760018314156144aa57867effffffffffffffffffffffffffffffffffffffffffffffffffffffffffffff19168b8281518110151561442f57fe5b9060200101517f010000000000000000000000000000000000000000000000000000000000000090047f0100000000000000000000000000000000000000000000000000000000000000027effffffffffffffffffffffffffffffffffffffffffffffffffffffffffffff191614156144a9576001820191505b5b600283141561455f57857effffffffffffffffffffffffffffffffffffffffffffffffffffffffffffff19168b828151811015156144e457fe5b9060200101517f010000000000000000000000000000000000000000000000000000000000000090047f0100000000000000000000000000000000000000000000000000000000000000027effffffffffffffffffffffffffffffffffffffffffffffffffffffffffffff1916141561455e576001820191505b5b600383141561461457847effffffffffffffffffffffffffffffffffffffffffffffffffffffffffffff19168b8281518110151561459957fe5b9060200101517f010000000000000000000000000000000000000000000000000000000000000090047f0100000000000000000000000000000000000000000000000000000000000000027effffffffffffffffffffffffffffffffffffffffffffffffffffffffffffff19161415614613576001820191505b5b6001830192505b5b8080600101915050614266565b600084141561463b5760009b50614669565b60038214801561464b5750600483145b806146565750600183145b156146645760009b50614669565b60019b505b5050505050505050505050919050565b600080823b905060008111915050919050565b600060417f0100000000000000000000000000000000000000000000000000000000000000027effffffffffffffffffffffffffffffffffffffffffffffffffffffffffffff1916827effffffffffffffffffffffffffffffffffffffffffffffffffffffffffffff19161015801561476c5750605a7f0100000000000000000000000000000000000000000000000000000000000000027effffffffffffffffffffffffffffffffffffffffffffffffffffffffffffff1916827effffffffffffffffffffffffffffffffffffffffffffffffffffffffffffff191611155b156147c1576020827f01000000000000000000000000000000000000000000000000000000000000009004017f01000000000000000000000000000000000000000000000000000000000000000290506147c5565b8190505b919050565b602060405190810160405280600081525090565b6080604051908101604052806147f2614a6d565b81526020016000815260200160008152602001600073ffffffffffffffffffffffffffffffffffffffff1681525090565b8154818355818115116148505760040281600402836000526020600020918201910161484f9190614a81565b5b505050565b828054600181600116156101000203166002900490600052602060002090601f016020900481019282601f1061489657805160ff19168380011785556148c4565b828001600101855582156148c4579182015b828111156148c35782518255916020019190600101906148a8565b5b5090506148d19190614ae7565b5090565b8154818355818115116148fc578183600052602060002091820191016148fb9190614b0c565b5b505050565b828054600181600116156101000203166002900490600052602060002090601f016020900481019282601f1061494257803560ff1916838001178555614970565b82800160010185558215614970579182015b8281111561496f578235825591602001919060010190614954565b5b50905061497d9190614ae7565b5090565b828054600181600116156101000203166002900490600052602060002090601f016020900481019282601f106149c257805160ff19168380011785556149f0565b828001600101855582156149f0579182015b828111156149ef5782518255916020019190600101906149d4565b5b5090506149fd9190614ae7565b5090565b815481835581811511614a2857818360005260206000209182019101614a279190614ae7565b5b505050565b815481835581811511614a5457818360005260206000209182019101614a539190614ae7565b5b505050565b602060405190810160405280600081525090565b602060405190810160405280600081525090565b614ae491905b80821115614ae05760008082016000614aa09190614b38565b600182016000905560028201600090556003820160006101000a81549073ffffffffffffffffffffffffffffffffffffffff021916905550600401614a87565b5090565b90565b614b0991905b80821115614b05576000816000905550600101614aed565b5090565b90565b614b3591905b80821115614b315760008181614b289190614b38565b50600101614b12565b5090565b90565b50805460018160011615610100020316600290046000825580601f10614b5e5750614b7d565b601f016020900490600052602060002090810190614b7c9190614ae7565b5b505600a165627a7a7230582060b0ddcbd8b0a3181be2eba979e6bb2d115de208b2877c22dd9e6df2864e21360029",
  "source": "/*\r\n\r\n888888888888  88                           888888888888  88                   888888888888               88                                       ad88888ba          db         888b      88\r\n88       88                                88       \"\"                        88                    88                                      d8\"     \"8b        d88b        8888b     88\r\n88       88                                88                                 88                    88                                      Y8,               d8'`8b       88 `8b    88\r\n88       88,dPPYba,    ,adPPYba,           88       88  8b,dPPYba,            88        ,adPPYba,   88   ,d8    ,adPPYba,  8b,dPPYba,       `Y8aaaaa,        d8'  `8b      88  `8b   88\r\n88       88P'    \"8a  a8P_____88           88       88  88P'    \"8a           88       a8\"     \"8a  88 ,a8\"    a8P_____88  88P'   `\"8a        `\"\"\"\"\"8b,     d8YaaaaY8b     88   `8b  88\r\n88       88       88  8PP\"\"\"\"\"\"\"           88       88  88       d8           88       8b       d8  8888[      8PP\"\"\"\"\"\"\"  88       88              `8b    d8\"\"\"\"\"\"\"\"8b    88    `8b 88\r\n88       88       88  \"8b,   ,aa           88       88  88b,   ,a8\"           88       \"8a,   ,a8\"  88`\"Yba,   \"8b,   ,aa  88       88      Y8a     a8P   d8'        `8b   88     `8888\r\n88       88       88   `\"Ybbd8\"'           88       88  88`YbbdP\"'            88        `\"YbbdP\"'   88   `Y8a   `\"Ybbd8\"'  88       88       \"Y88888P\"   d8'          `8b  88      `888\r\n88                                                      88\r\n88                                                      88\r\n\r\n*/\r\npragma solidity ^0.4.21;\r\n\r\nimport \"zeppelin-solidity/contracts/token/ERC721/ERC721Token.sol\";\r\nimport \"zeppelin-solidity/contracts//ownership/Ownable.sol\";\r\n\r\n\r\ncontract TTTToken {\r\n  function transfer(address _to, uint256 _amount) public returns (bool success);\r\n  function transferFrom(address from, address to, uint tokens) public returns (bool success);\r\n  function balanceOf(address tokenOwner) public constant returns (uint balance);\r\n}\r\n\r\ncontract TTTSan is ERC721Token, Ownable {\r\n\r\n  address public wallet = 0x5BcFCbdE79895D3D6A115Baf5386ae5463df2aAF;\r\n  address public tttTokenAddress = 0x3a518A5F5AC3F3dBF4ECd6b91dfBbb8422832996;\r\n  address public marketAddress;\r\n\r\n  uint256 public sanTTTCost;\r\n  uint256 public sanMaxLength;\r\n  uint256 public sanMinLength;\r\n\r\n  string public baseUrl = \"https://thetiptoken.io/arv/img/\";\r\n\r\n  mapping(string=>bool) sanOwnership;\r\n  mapping(address=>uint256) sanSlots;\r\n  mapping(string=>uint256) sanNameToId;\r\n  mapping(string=>address) sanNameToAddress;\r\n  mapping(address=>string[]) ownerToSanName;\r\n\r\n  struct SAN {\r\n    string sanName;\r\n    uint256 timeAlive;\r\n    uint256 timeLastMove;\r\n    address prevOwner;\r\n  }\r\n\r\n  SAN[] public sans;\r\n\r\n  TTTToken ttt;\r\n\r\n  modifier isMarketAddress() {\r\n\t\trequire(msg.sender == marketAddress);\r\n\t\t_;\r\n\t}\r\n\r\n  event SanMinted(address sanOwner, uint256 sanId, string sanName);\r\n  event SanSlotsPurchase(address sanOwner, uint256 amt);\r\n\r\n  function TTTSan() ERC721Token(\"TTTSAN\", \"TTTS\") {\r\n    sanTTTCost = 2 ether;\r\n    sanMaxLength = 16;\r\n    sanMinLength = 2;\r\n    ttt = TTTToken(tttTokenAddress);\r\n    // gen0 san\r\n  /* \"NeverGonnaGiveYouUp.NeverGonnaLetYouDown\" */\r\n    SAN memory s = SAN({\r\n        sanName: \"NeverGonnaGiveYouUp.NeverGonnaLetYouDown\",\r\n        timeAlive: block.timestamp,\r\n        timeLastMove: block.timestamp,\r\n        prevOwner: msg.sender\r\n    });\r\n    uint256 sanId = sans.push(s) - 1;\r\n    _mint(msg.sender, sanId);\r\n    sanNameToId[\"NeverGonnaGiveYouUp.NeverGonnaLetYouDown\"] = sanId;\r\n    sanNameToAddress[\"NeverGonnaGiveYouUp.NeverGonnaLetYouDown\"] = msg.sender;\r\n    ownerToSanName[msg.sender].push(\"NeverGonnaGiveYouUp.NeverGonnaLetYouDown\");\r\n    SanMinted(msg.sender, sanId, \"NeverGonnaGiveYouUp.NeverGonnaLetYouDown\");\r\n  }\r\n\r\n  function sanMint(string _sanName, string _sanageUri) external returns (string) {\r\n    assert(sanSlots[msg.sender] >= 1);\r\n    string memory sn = SANitize(_sanName);\r\n    SAN memory s = SAN({\r\n        sanName: sn,\r\n        timeAlive: block.timestamp,\r\n        timeLastMove: block.timestamp,\r\n        prevOwner: msg.sender\r\n    });\r\n    uint256 sanId = sans.push(s) - 1;\r\n    _mint(msg.sender, sanId);\r\n\r\n    // change this *TEST*\r\n    // _setTokenURI(sanId, strConcat(baseUrl, _sanName));\r\n    _setTokenURI(sanId, _sanageUri);\r\n\r\n    sanNameToId[sn] = sanId;\r\n    sanNameToAddress[sn] = msg.sender;\r\n    ownerToSanName[msg.sender].push(sn);\r\n    sanSlots[msg.sender] = sanSlots[msg.sender] - 1;\r\n    SanMinted(msg.sender, sanId, sn);\r\n    return sn;\r\n  }\r\n\r\n  function getSANOwner(uint256 _sanId) public returns (address) {\r\n    return ownerOf(_sanId);\r\n  }\r\n\r\n  function getSanIdFromName(string _sanName) public view returns (uint256) {\r\n    return sanNameToId[_sanName];\r\n  }\r\n\r\n  function getSanName(uint256 _sanId) public view returns (string) {\r\n    return sans[_sanId].sanName;\r\n  }\r\n\r\n  function getSanTimeAlive(uint256 _sanId) public view returns (uint256) {\r\n    return sans[_sanId].timeAlive;\r\n  }\r\n\r\n  function getSanTimeLastMove(uint256 _sanId) public view returns (uint256) {\r\n    return sans[_sanId].timeLastMove;\r\n  }\r\n\r\n  function getSanPrevOwner(uint256 _sanId) public view returns (address) {\r\n    return sans[_sanId].prevOwner;\r\n  }\r\n\r\n  function getAddressFromSan(string _sanName) public view returns (address) {\r\n    return sanNameToAddress[_sanName];\r\n  }\r\n\r\n  function getSanSlots(address _sanOwner) public view returns(uint256) {\r\n    return sanSlots[_sanOwner];\r\n  }\r\n\r\n  // used for initial check to not waste gas\r\n  function getSANitized(string _sanName) external constant returns (string) {\r\n    return SANitize(_sanName);\r\n  }\r\n\r\n  // TODO: batch buy slots\r\n  function buySanSlot(address _sanOwner,  uint256 _tip) external returns(bool) {\r\n    require(_tip >= sanTTTCost);\r\n    ttt.transferFrom(msg.sender, wallet, _tip);\r\n    sanSlots[_sanOwner] = sanSlots[_sanOwner].add(1);\r\n    emit SanSlotsPurchase(_sanOwner, 1);\r\n    return true;\r\n  }\r\n\r\n\r\n  // OWNER FUNCTIONS\r\n\r\n  function setSanTTTCost(uint256 _cost) external onlyOwner {\r\n    require(_cost > 0);\r\n    sanTTTCost = _cost;\r\n  }\r\n\r\n  function setSanLength(uint256 _length, uint256 _pos) external onlyOwner {\r\n    require(_length > 0);\r\n    if(_pos == 0) sanMinLength = _length;\r\n    else sanMaxLength = _length;\r\n  }\r\n\r\n  function setSanMask(string _mask) external onlyOwner {} // set a mask TODO\r\n\r\n  function ownerAddSanSlot(address _sanOwner, uint256 _slotCount) external onlyOwner {} // TODO\r\n\r\n  function setMarketAddress(address _marketAddress) public onlyOwner {\r\n    marketAddress = _marketAddress;\r\n  }\r\n\r\n  function setBaseUrl(string _baseUrl) public onlyOwner {\r\n    baseUrl = _baseUrl;\r\n  }\r\n\r\n  function setOwnerWallet(address _wallet) public onlyOwner {\r\n    wallet = _wallet;\r\n  }\r\n\r\n  function updateTokenUri(uint256 _sanId, string _newUri) public onlyOwner {\r\n    // TODO\r\n  }\r\n\r\n  function emptyContract() public onlyOwner {\r\n    uint256 b = ttt.balanceOf(this);\r\n    ttt.transfer(msg.sender, b);\r\n  }\r\n\r\n  // owner can mint special sans for an address\r\n  function specialSanMint(string _sanName, string _sanageUri, address _address) external onlyOwner returns (string) {\r\n    SAN memory s = SAN({\r\n        sanName: _sanName,\r\n        timeAlive: block.timestamp,\r\n        timeLastMove: block.timestamp,\r\n        prevOwner: _address\r\n    });\r\n    uint256 sanId = sans.push(s) - 1;\r\n    _mint(_address, sanId);\r\n\r\n    // change this *TEST*\r\n    // _setTokenURI(sanId, strConcat(baseUrl, _sanName));\r\n    _setTokenURI(sanId, _sanageUri);\r\n\r\n    sanNameToId[_sanName] = sanId;\r\n    sanNameToAddress[_sanName] = _address;\r\n    ownerToSanName[_address].push(_sanName);\r\n    SanMinted(_address, sanId, _sanName);\r\n    return _sanName;\r\n  }\r\n\r\n  // INTERNAL FUNCTIONS\r\n\r\n  function SANitize(string _sanName) internal returns(string) {\r\n    string memory sn = sanToLower(_sanName);\r\n    assert(isValidSan(sn));\r\n    assert(!sanOwnership[sn]);\r\n    sanOwnership[sn] = true;\r\n    return sn;\r\n  }\r\n\r\n  function isValidSan(string _sanName) internal returns(bool) {\r\n    bytes memory wb = bytes(_sanName);\r\n    uint slen = wb.length;\r\n    assert(slen <= sanMaxLength && slen > sanMinLength);\r\n    bytes1 space = bytes1(0x20);\r\n    bytes1 period = bytes1(0x2E);\r\n    bytes1 e = bytes1(0x65);\r\n    bytes1 t = bytes1(0x74);\r\n    bytes1 h = bytes1(0x68);\r\n    uint dCount = 0;\r\n    uint eCount = 0;\r\n    uint eth = 0;\r\n    for(uint i = 0; i < slen; i++) {\r\n        if(wb[i] == space) return false;\r\n        else if(wb[i] == period) {\r\n          dCount = dCount + 1;\r\n          // only 1 '.'\r\n          if(dCount > 1) return false;\r\n          eCount = 1;\r\n        } else if(eCount > 0 && eCount < 5) {\r\n          if(eCount == 1) if(wb[i] == e) eth = eth + 1;\r\n          if(eCount == 2) if(wb[i] == t) eth = eth + 1;\r\n          if(eCount == 3) if(wb[i] == h) eth = eth + 1;\r\n          eCount = eCount + 1;\r\n        }\r\n    }\r\n    if(dCount == 0) return false;\r\n    if((eth == 3 && eCount == 4) || eCount == 1) return false;\r\n    return true;\r\n  }\r\n\r\n  function sanToLower(string _sanName) internal returns(string) {\r\n    bytes memory b = bytes(_sanName);\r\n    for(uint i = 0; i < b.length; i++) {\r\n      b[i] = byteToLower(b[i]);\r\n    }\r\n    return string(b);\r\n  }\r\n\r\n  function byteToLower(bytes1 _b) internal constant returns (bytes1) {\r\n    if(_b >= bytes1(0x41) && _b <= bytes1(0x5A))\r\n      return bytes1(uint8(_b) + 32);\r\n    return _b;\r\n  }\r\n\r\n  function strConcat(string _a, string _b) internal pure returns (string) {\r\n    bytes memory _ba = bytes(_a);\r\n    bytes memory _bb = bytes(_b);\r\n    string memory ab = new string(_ba.length + _bb.length);\r\n    bytes memory bab = bytes(ab);\r\n    uint k = 0;\r\n    for (uint i = 0; i < _ba.length; i++) bab[k++] = _ba[i];\r\n    for (i = 0; i < _bb.length; i++) bab[k++] = _bb[i];\r\n    return string(bab);\r\n  }\r\n\r\n}\r\n",
  "sourcePath": "C:\\TTT_Platform\\contracts\\TTTSan.sol",
  "compiler": {
    "name": "solc",
    "version": "0.4.21+commit.dfe3193c.Emscripten.clang"
  },
  "schemaVersion": "2.0.0",
  "updatedAt": "2018-06-23T14:18:22.638Z"
}