{
  "contractName": "TTTSanMarket",
  "abi": [
    {
      "constant": true,
      "inputs": [],
      "name": "owner",
      "outputs": [
        {
          "name": "",
          "type": "address"
        }
      ],
      "payable": false,
      "stateMutability": "view",
      "type": "function"
    },
    {
      "constant": true,
      "inputs": [],
      "name": "tttTokenAddress",
      "outputs": [
        {
          "name": "",
          "type": "address"
        }
      ],
      "payable": false,
      "stateMutability": "view",
      "type": "function"
    },
    {
      "constant": true,
      "inputs": [
        {
          "name": "",
          "type": "uint256"
        }
      ],
      "name": "marketSans",
      "outputs": [
        {
          "name": "sanId",
          "type": "uint256"
        },
        {
          "name": "sanName",
          "type": "string"
        },
        {
          "name": "timeToMarket",
          "type": "uint256"
        },
        {
          "name": "owner",
          "type": "address"
        },
        {
          "name": "bidMin",
          "type": "uint256"
        },
        {
          "name": "currentBid",
          "type": "uint256"
        },
        {
          "name": "bidType",
          "type": "uint8"
        },
        {
          "name": "bidAuctionTime",
          "type": "uint256"
        },
        {
          "name": "claimed",
          "type": "bool"
        }
      ],
      "payable": false,
      "stateMutability": "view",
      "type": "function"
    },
    {
      "constant": false,
      "inputs": [
        {
          "name": "newOwner",
          "type": "address"
        }
      ],
      "name": "transferOwnership",
      "outputs": [],
      "payable": false,
      "stateMutability": "nonpayable",
      "type": "function"
    },
    {
      "inputs": [],
      "payable": false,
      "stateMutability": "nonpayable",
      "type": "constructor"
    },
    {
      "anonymous": false,
      "inputs": [
        {
          "indexed": false,
          "name": "sanId",
          "type": "uint256"
        },
        {
          "indexed": false,
          "name": "price",
          "type": "uint256"
        }
      ],
      "name": "SanAddedToMarket",
      "type": "event"
    },
    {
      "anonymous": false,
      "inputs": [
        {
          "indexed": false,
          "name": "newOwner",
          "type": "address"
        },
        {
          "indexed": false,
          "name": "sanId",
          "type": "uint256"
        },
        {
          "indexed": false,
          "name": "price",
          "type": "uint256"
        },
        {
          "indexed": false,
          "name": "time",
          "type": "uint256"
        }
      ],
      "name": "SanMarketDirectPurchase",
      "type": "event"
    },
    {
      "anonymous": false,
      "inputs": [
        {
          "indexed": false,
          "name": "to",
          "type": "address"
        },
        {
          "indexed": false,
          "name": "sanId",
          "type": "uint256"
        }
      ],
      "name": "MarketBidRefund",
      "type": "event"
    },
    {
      "anonymous": false,
      "inputs": [
        {
          "indexed": true,
          "name": "previousOwner",
          "type": "address"
        },
        {
          "indexed": true,
          "name": "newOwner",
          "type": "address"
        }
      ],
      "name": "OwnershipTransferred",
      "type": "event"
    },
    {
      "constant": true,
      "inputs": [
        {
          "name": "_idx",
          "type": "uint256"
        }
      ],
      "name": "getMarketSanTTM",
      "outputs": [
        {
          "name": "",
          "type": "uint256"
        }
      ],
      "payable": false,
      "stateMutability": "view",
      "type": "function"
    },
    {
      "constant": true,
      "inputs": [
        {
          "name": "_idx",
          "type": "uint256"
        }
      ],
      "name": "getMarketSanOwner",
      "outputs": [
        {
          "name": "",
          "type": "address"
        }
      ],
      "payable": false,
      "stateMutability": "view",
      "type": "function"
    },
    {
      "constant": true,
      "inputs": [
        {
          "name": "_idx",
          "type": "uint256"
        }
      ],
      "name": "getMarketSanBidMin",
      "outputs": [
        {
          "name": "",
          "type": "uint256"
        }
      ],
      "payable": false,
      "stateMutability": "view",
      "type": "function"
    },
    {
      "constant": true,
      "inputs": [
        {
          "name": "_idx",
          "type": "uint256"
        }
      ],
      "name": "getMarketSanBidAuctionTime",
      "outputs": [
        {
          "name": "",
          "type": "uint256"
        }
      ],
      "payable": false,
      "stateMutability": "view",
      "type": "function"
    },
    {
      "constant": true,
      "inputs": [
        {
          "name": "_idx",
          "type": "uint256"
        }
      ],
      "name": "getMarketSanInfo",
      "outputs": [
        {
          "name": "minBid",
          "type": "uint256"
        },
        {
          "name": "sanName",
          "type": "string"
        },
        {
          "name": "sanId",
          "type": "uint256"
        }
      ],
      "payable": false,
      "stateMutability": "view",
      "type": "function"
    },
    {
      "constant": false,
      "inputs": [
        {
          "name": "_sanId",
          "type": "uint256"
        },
        {
          "name": "_sanName",
          "type": "string"
        },
        {
          "name": "_price",
          "type": "uint256"
        }
      ],
      "name": "addSanToMarket",
      "outputs": [],
      "payable": false,
      "stateMutability": "nonpayable",
      "type": "function"
    },
    {
      "constant": false,
      "inputs": [
        {
          "name": "_sanId",
          "type": "uint256"
        },
        {
          "name": "_amount",
          "type": "uint256"
        }
      ],
      "name": "marketDirectPurchase",
      "outputs": [],
      "payable": false,
      "stateMutability": "nonpayable",
      "type": "function"
    },
    {
      "constant": false,
      "inputs": [
        {
          "name": "_sanId",
          "type": "uint256"
        }
      ],
      "name": "refundMarketBid",
      "outputs": [],
      "payable": false,
      "stateMutability": "nonpayable",
      "type": "function"
    },
    {
      "constant": false,
      "inputs": [
        {
          "name": "_sanAddress",
          "type": "address"
        }
      ],
      "name": "setSanAddress",
      "outputs": [],
      "payable": false,
      "stateMutability": "nonpayable",
      "type": "function"
    },
    {
      "constant": true,
      "inputs": [],
      "name": "getMarketSanCount",
      "outputs": [
        {
          "name": "",
          "type": "uint256"
        }
      ],
      "payable": false,
      "stateMutability": "view",
      "type": "function"
    },
    {
      "constant": true,
      "inputs": [
        {
          "name": "_idx",
          "type": "uint256"
        }
      ],
      "name": "getMarketSanIdAt",
      "outputs": [
        {
          "name": "",
          "type": "uint256"
        }
      ],
      "payable": false,
      "stateMutability": "view",
      "type": "function"
    }
  ],
  "bytecode": "0x6060604052733a518a5f5ac3f3dbf4ecd6b91dfbbb8422832996600160006101000a81548173ffffffffffffffffffffffffffffffffffffffff021916908373ffffffffffffffffffffffffffffffffffffffff1602179055507375ffe84fe6cd8511461eba34419a8f52a76982ec600360006101000a81548173ffffffffffffffffffffffffffffffffffffffff021916908373ffffffffffffffffffffffffffffffffffffffff16021790555034156100b957600080fd5b336000806101000a81548173ffffffffffffffffffffffffffffffffffffffff021916908373ffffffffffffffffffffffffffffffffffffffff160217905550600160009054906101000a900473ffffffffffffffffffffffffffffffffffffffff16600260006101000a81548173ffffffffffffffffffffffffffffffffffffffff021916908373ffffffffffffffffffffffffffffffffffffffff160217905550600360009054906101000a900473ffffffffffffffffffffffffffffffffffffffff16600460006101000a81548173ffffffffffffffffffffffffffffffffffffffff021916908373ffffffffffffffffffffffffffffffffffffffff160217905550611e51806101ce6000396000f3006060604052600436106100db576000357c0100000000000000000000000000000000000000000000000000000000900463ffffffff16806301827291146100e05780631bd5977a146101195780637c84db73146101595780637e5485cb14610190578063843e081c146101f35780638da5cb5b1461022a578063a64ded311461027f578063a6bbbffd146102d4578063ab11820f146102fd578063ae63c53914610334578063b9bd65f01461036b578063cf1411621461047d578063f2fde38b146104a9578063fa63c5ab146104e2578063ff7d42581461058c575b600080fd5b34156100eb57600080fd5b610117600480803573ffffffffffffffffffffffffffffffffffffffff169060200190919050506105af565b005b341561012457600080fd5b610157600480803590602001909190803590602001908201803590602001919091929080359060200190919050506106b1565b005b341561016457600080fd5b61017a6004808035906020019091905050610b4c565b6040518082815260200191505060405180910390f35b341561019b57600080fd5b6101b16004808035906020019091905050610b76565b604051808273ffffffffffffffffffffffffffffffffffffffff1673ffffffffffffffffffffffffffffffffffffffff16815260200191505060405180910390f35b34156101fe57600080fd5b6102146004808035906020019091905050610bc0565b6040518082815260200191505060405180910390f35b341561023557600080fd5b61023d610bea565b604051808273ffffffffffffffffffffffffffffffffffffffff1673ffffffffffffffffffffffffffffffffffffffff16815260200191505060405180910390f35b341561028a57600080fd5b610292610c0f565b604051808273ffffffffffffffffffffffffffffffffffffffff1673ffffffffffffffffffffffffffffffffffffffff16815260200191505060405180910390f35b34156102df57600080fd5b6102e7610c35565b6040518082815260200191505060405180910390f35b341561030857600080fd5b61031e6004808035906020019091905050610c42565b6040518082815260200191505060405180910390f35b341561033f57600080fd5b6103556004808035906020019091905050610c6c565b6040518082815260200191505060405180910390f35b341561037657600080fd5b61038c6004808035906020019091905050610c96565b604051808a8152602001806020018981526020018873ffffffffffffffffffffffffffffffffffffffff1673ffffffffffffffffffffffffffffffffffffffff1681526020018781526020018681526020018560018111156103ea57fe5b60ff1681526020018481526020018315151515815260200182810382528a818151815260200191508051906020019080838360005b8381101561043a57808201518184015260208101905061041f565b50505050905090810190601f1680156104675780820380516001836020036101000a031916815260200191505b509a505050505050505050505060405180910390f35b341561048857600080fd5b6104a76004808035906020019091908035906020019091905050610dc5565b005b34156104b457600080fd5b6104e0600480803573ffffffffffffffffffffffffffffffffffffffff169060200190919050506113bf565b005b34156104ed57600080fd5b6105036004808035906020019091905050611514565b6040518084815260200180602001838152602001828103825284818151815260200191508051906020019080838360005b8381101561054f578082015181840152602081019050610534565b50505050905090810190601f16801561057c5780820380516001836020036101000a031916815260200191505b5094505050505060405180910390f35b341561059757600080fd5b6105ad60048080359060200190919050506115f5565b005b6000809054906101000a900473ffffffffffffffffffffffffffffffffffffffff1673ffffffffffffffffffffffffffffffffffffffff163373ffffffffffffffffffffffffffffffffffffffff1614151561060a57600080fd5b80600360006101000a81548173ffffffffffffffffffffffffffffffffffffffff021916908373ffffffffffffffffffffffffffffffffffffffff160217905550600360009054906101000a900473ffffffffffffffffffffffffffffffffffffffff16600460006101000a81548173ffffffffffffffffffffffffffffffffffffffff021916908373ffffffffffffffffffffffffffffffffffffffff16021790555050565b6106b9611b09565b60003373ffffffffffffffffffffffffffffffffffffffff16600460009054906101000a900473ffffffffffffffffffffffffffffffffffffffff1673ffffffffffffffffffffffffffffffffffffffff16636352211e886040518263ffffffff167c010000000000000000000000000000000000000000000000000000000002815260040180828152602001915050602060405180830381600087803b151561076257600080fd5b5af1151561076f57600080fd5b5050506040518051905073ffffffffffffffffffffffffffffffffffffffff1614151561079b57600080fd5b6005600087815260200190815260200160002060009054906101000a900460ff161515156107c857600080fd5b6101206040519081016040528087815260200186868080601f01602080910402602001604051908101604052809392919081815260200183838082843782019150505050505081526020014281526020013373ffffffffffffffffffffffffffffffffffffffff168152602001848152602001600081526020016000600181111561084f57fe5b81526020016000815260200160001515815250915060016008805480600101828161087a9190611b7f565b916000526020600020906009020160008590919091506000820151816000015560208201518160010190805190602001906108b6929190611bb1565b506040820151816002015560608201518160030160006101000a81548173ffffffffffffffffffffffffffffffffffffffff021916908373ffffffffffffffffffffffffffffffffffffffff1602179055506080820151816004015560a0820151816005015560c08201518160060160006101000a81548160ff0219169083600181111561094057fe5b021790555060e082015181600701556101008201518160080160006101000a81548160ff021916908315150217905550505003905060016005600088815260200190815260200160002060006101000a81548160ff02191690831515021790555085600660003373ffffffffffffffffffffffffffffffffffffffff1673ffffffffffffffffffffffffffffffffffffffff16815260200190815260200160002081905550806007600088815260200190815260200160002081905550600460009054906101000a900473ffffffffffffffffffffffffffffffffffffffff1673ffffffffffffffffffffffffffffffffffffffff166323b872dd3330896040518463ffffffff167c0100000000000000000000000000000000000000000000000000000000028152600401808473ffffffffffffffffffffffffffffffffffffffff1673ffffffffffffffffffffffffffffffffffffffff1681526020018373ffffffffffffffffffffffffffffffffffffffff1673ffffffffffffffffffffffffffffffffffffffff1681526020018281526020019350505050600060405180830381600087803b1515610af557600080fd5b5af11515610b0257600080fd5b5050507f3bfac85e641edd3aecabee7c966bac1539a1a5382406effa63696b8fdc8fc6ca8684604051808381526020018281526020019250505060405180910390a1505050505050565b6000600882815481101515610b5d57fe5b9060005260206000209060090201600701549050919050565b6000600882815481101515610b8757fe5b906000526020600020906009020160030160009054906101000a900473ffffffffffffffffffffffffffffffffffffffff169050919050565b6000600882815481101515610bd157fe5b9060005260206000209060090201600001549050919050565b6000809054906101000a900473ffffffffffffffffffffffffffffffffffffffff1681565b600160009054906101000a900473ffffffffffffffffffffffffffffffffffffffff1681565b6000600880549050905090565b6000600882815481101515610c5357fe5b9060005260206000209060090201600201549050919050565b6000600882815481101515610c7d57fe5b9060005260206000209060090201600401549050919050565b600881815481101515610ca557fe5b9060005260206000209060090201600091509050806000015490806001018054600181600116156101000203166002900480601f016020809104026020016040519081016040528092919081815260200182805460018160011615610100020316600290048015610d575780601f10610d2c57610100808354040283529160200191610d57565b820191906000526020600020905b815481529060010190602001808311610d3a57829003601f168201915b5050505050908060020154908060030160009054906101000a900473ffffffffffffffffffffffffffffffffffffffff16908060040154908060050154908060060160009054906101000a900460ff16908060070154908060080160009054906101000a900460ff16905089565b6000806005600085815260200190815260200160002060009054906101000a900460ff161515610df157fe5b82600260009054906101000a900473ffffffffffffffffffffffffffffffffffffffff1673ffffffffffffffffffffffffffffffffffffffff166370a08231336040518263ffffffff167c0100000000000000000000000000000000000000000000000000000000028152600401808273ffffffffffffffffffffffffffffffffffffffff1673ffffffffffffffffffffffffffffffffffffffff168152602001915050602060405180830381600087803b1515610eae57600080fd5b5af11515610ebb57600080fd5b5050506040518051905010151515610ecf57fe5b60076000858152602001908152602001600020549150600882815481101515610ef457fe5b9060005260206000209060090201905080600401548310151515610f1457fe5b60006005600086815260200190815260200160002060006101000a81548160ff021916908315150217905550600460009054906101000a900473ffffffffffffffffffffffffffffffffffffffff1673ffffffffffffffffffffffffffffffffffffffff166332c3535285836001018460030160009054906101000a900473ffffffffffffffffffffffffffffffffffffffff16336040518563ffffffff167c010000000000000000000000000000000000000000000000000000000002815260040180858152602001806020018473ffffffffffffffffffffffffffffffffffffffff1673ffffffffffffffffffffffffffffffffffffffff1681526020018373ffffffffffffffffffffffffffffffffffffffff1673ffffffffffffffffffffffffffffffffffffffff1681526020018281038252858181546001816001161561010002031660029004815260200191508054600181600116156101000203166002900480156110c75780601f1061109c576101008083540402835291602001916110c7565b820191906000526020600020905b8154815290600101906020018083116110aa57829003601f168201915b505095505050505050600060405180830381600087803b15156110e957600080fd5b5af115156110f657600080fd5b505050600260009054906101000a900473ffffffffffffffffffffffffffffffffffffffff1673ffffffffffffffffffffffffffffffffffffffff166323b872dd338360030160009054906101000a900473ffffffffffffffffffffffffffffffffffffffff16866040518463ffffffff167c0100000000000000000000000000000000000000000000000000000000028152600401808473ffffffffffffffffffffffffffffffffffffffff1673ffffffffffffffffffffffffffffffffffffffff1681526020018373ffffffffffffffffffffffffffffffffffffffff1673ffffffffffffffffffffffffffffffffffffffff1681526020018281526020019350505050602060405180830381600087803b151561121557600080fd5b5af1151561122257600080fd5b5050506040518051905050600460009054906101000a900473ffffffffffffffffffffffffffffffffffffffff1673ffffffffffffffffffffffffffffffffffffffff166323b872dd3033876040518463ffffffff167c0100000000000000000000000000000000000000000000000000000000028152600401808473ffffffffffffffffffffffffffffffffffffffff1673ffffffffffffffffffffffffffffffffffffffff1681526020018373ffffffffffffffffffffffffffffffffffffffff1673ffffffffffffffffffffffffffffffffffffffff1681526020018281526020019350505050600060405180830381600087803b151561132557600080fd5b5af1151561133257600080fd5b50505061133e826118a6565b7f377b0207b5e7725997bd896a4430eff1affca6f254450d3b41378d992e81583e33858542604051808573ffffffffffffffffffffffffffffffffffffffff1673ffffffffffffffffffffffffffffffffffffffff16815260200184815260200183815260200182815260200194505050505060405180910390a150505050565b6000809054906101000a900473ffffffffffffffffffffffffffffffffffffffff1673ffffffffffffffffffffffffffffffffffffffff163373ffffffffffffffffffffffffffffffffffffffff1614151561141a57600080fd5b600073ffffffffffffffffffffffffffffffffffffffff168173ffffffffffffffffffffffffffffffffffffffff161415151561145657600080fd5b8073ffffffffffffffffffffffffffffffffffffffff166000809054906101000a900473ffffffffffffffffffffffffffffffffffffffff1673ffffffffffffffffffffffffffffffffffffffff167f8be0079c531659141344cd1fd0a4f28419497f9722a3daafe3b4186f6b6457e060405160405180910390a3806000806101000a81548173ffffffffffffffffffffffffffffffffffffffff021916908373ffffffffffffffffffffffffffffffffffffffff16021790555050565b600061151e611c31565b60008060088581548110151561153057fe5b9060005260206000209060090201905080600401549350806001018054600181600116156101000203166002900480601f0160208091040260200160405190810160405280929190818152602001828054600181600116156101000203166002900480156115df5780601f106115b4576101008083540402835291602001916115df565b820191906000526020600020905b8154815290600101906020018083116115c257829003601f168201915b5050505050925080600001549150509193909250565b6000806000809054906101000a900473ffffffffffffffffffffffffffffffffffffffff1673ffffffffffffffffffffffffffffffffffffffff163373ffffffffffffffffffffffffffffffffffffffff1614151561165357600080fd5b6005600084815260200190815260200160002060009054906101000a900460ff16151561167c57fe5b60006005600085815260200190815260200160002060006101000a81548160ff021916908315150217905550600760008481526020019081526020016000205491506008828154811015156116cd57fe5b90600052602060002090600902019050600460009054906101000a900473ffffffffffffffffffffffffffffffffffffffff1673ffffffffffffffffffffffffffffffffffffffff166323b872dd308360030160009054906101000a900473ffffffffffffffffffffffffffffffffffffffff16866040518463ffffffff167c0100000000000000000000000000000000000000000000000000000000028152600401808473ffffffffffffffffffffffffffffffffffffffff1673ffffffffffffffffffffffffffffffffffffffff1681526020018373ffffffffffffffffffffffffffffffffffffffff1673ffffffffffffffffffffffffffffffffffffffff1681526020018281526020019350505050600060405180830381600087803b15156117f957600080fd5b5af1151561180657600080fd5b5050507ffbb8510bbab44d16a1fbc6454d9a416138b7818c5c901167c90fb8175a3e5beb8160030160009054906101000a900473ffffffffffffffffffffffffffffffffffffffff1684604051808373ffffffffffffffffffffffffffffffffffffffff1673ffffffffffffffffffffffffffffffffffffffff1681526020018281526020019250505060405180910390a16118a1826118a6565b505050565b6000600880549050821015156118bb57600080fd5b8190505b600160088054905003811015611a40576008600182018154811015156118e157fe5b90600052602060002090600902016008828154811015156118fe57fe5b9060005260206000209060090201600082015481600001556001820181600101908054600181600116156101000203166002900461193d929190611c45565b50600282015481600201556003820160009054906101000a900473ffffffffffffffffffffffffffffffffffffffff168160030160006101000a81548173ffffffffffffffffffffffffffffffffffffffff021916908373ffffffffffffffffffffffffffffffffffffffff16021790555060048201548160040155600582015481600501556006820160009054906101000a900460ff168160060160006101000a81548160ff021916908360018111156119f457fe5b0217905550600782015481600701556008820160009054906101000a900460ff168160080160006101000a81548160ff02191690831515021790555090505080806001019150506118bf565b6008600160088054905003815481101515611a5757fe5b9060005260206000209060090201600080820160009055600182016000611a7e9190611ccc565b60028201600090556003820160006101000a81549073ffffffffffffffffffffffffffffffffffffffff0219169055600482016000905560058201600090556006820160006101000a81549060ff021916905560078201600090556008820160006101000a81549060ff021916905550506008805480919060019003611b049190611d14565b505050565b6101206040519081016040528060008152602001611b25611d46565b815260200160008152602001600073ffffffffffffffffffffffffffffffffffffffff168152602001600081526020016000815260200160006001811115611b6957fe5b8152602001600081526020016000151581525090565b815481835581811511611bac57600902816009028360005260206000209182019101611bab9190611d5a565b5b505050565b828054600181600116156101000203166002900490600052602060002090601f016020900481019282601f10611bf257805160ff1916838001178555611c20565b82800160010185558215611c20579182015b82811115611c1f578251825591602001919060010190611c04565b5b509050611c2d9190611e00565b5090565b602060405190810160405280600081525090565b828054600181600116156101000203166002900490600052602060002090601f016020900481019282601f10611c7e5780548555611cbb565b82800160010185558215611cbb57600052602060002091601f016020900482015b82811115611cba578254825591600101919060010190611c9f565b5b509050611cc89190611e00565b5090565b50805460018160011615610100020316600290046000825580601f10611cf25750611d11565b601f016020900490600052602060002090810190611d109190611e00565b5b50565b815481835581811511611d4157600902816009028360005260206000209182019101611d409190611d5a565b5b505050565b602060405190810160405280600081525090565b611dfd91905b80821115611df957600080820160009055600182016000611d819190611ccc565b60028201600090556003820160006101000a81549073ffffffffffffffffffffffffffffffffffffffff0219169055600482016000905560058201600090556006820160006101000a81549060ff021916905560078201600090556008820160006101000a81549060ff021916905550600901611d60565b5090565b90565b611e2291905b80821115611e1e576000816000905550600101611e06565b5090565b905600a165627a7a72305820567d936881ce96e0575113dd4640f42d799be93ffb529e2985b6926ac84fd7fc0029",
  "source": "pragma solidity ^0.4.21;\r\n\r\nimport \"./TTTSan.sol\";\r\n\r\ncontract TTTSanMarket is Ownable {\r\n\r\n  address public tttTokenAddress = 0x3a518A5F5AC3F3dBF4ECd6b91dfBbb8422832996;\r\n  TTTToken ttt;\r\n  address sanAddress = 0x75ffe84fe6cd8511461eba34419a8f52a76982ec;\r\n  TTTSan tttSan;\r\n\r\n  mapping(uint256=>bool) isSanIdOnMarket;\r\n  mapping(address=>uint256) marketSanAddresOwnerToId;\r\n  mapping(uint256=>uint256) sanIdToMarketIdx;\r\n\r\n  enum MarketSANType {Direct, Auction}\r\n  struct MarketSAN {\r\n    uint256 sanId;\r\n    string sanName;\r\n    uint256 timeToMarket;\r\n    address owner;\r\n    uint256 bidMin;\r\n    uint256 currentBid;\r\n    MarketSANType bidType;\r\n    uint256 bidAuctionTime;\r\n    bool claimed;\r\n  }\r\n  MarketSAN[] public marketSans;\r\n\r\n  event SanAddedToMarket(uint256 sanId, uint256 price);\r\n  event SanMarketDirectPurchase(address newOwner, uint256 sanId, uint256 price, uint256 time);\r\n  event MarketBidRefund(address to, uint256 sanId);\r\n\r\n  function TTTSanMarket() {\r\n    ttt = TTTToken(tttTokenAddress);\r\n    tttSan = TTTSan(sanAddress);\r\n  }\r\n\r\n  function getMarketSanTTM(uint256 _idx) public view returns(uint256) {\r\n    return marketSans[_idx].timeToMarket;\r\n  }\r\n\r\n  function getMarketSanOwner(uint256 _idx) public view returns(address) {\r\n    return marketSans[_idx].owner;\r\n  }\r\n\r\n  function getMarketSanBidMin(uint256 _idx) public view returns(uint256) {\r\n    return marketSans[_idx].bidMin;\r\n  }\r\n\r\n  function getMarketSanBidAuctionTime(uint256 _idx) public view returns(uint256) {\r\n    return marketSans[_idx].bidAuctionTime;\r\n  }\r\n\r\n  function getMarketSanInfo(uint256 _idx) public view returns(\r\n      uint256 minBid, string sanName, uint256 sanId\r\n    ) {\r\n    MarketSAN storage ms = marketSans[_idx];\r\n    minBid = ms.bidMin;\r\n    sanName = ms.sanName;\r\n    sanId = ms.sanId;\r\n  }\r\n\r\n  function addSanToMarket(uint256 _sanId, string _sanName, uint256 _price) external {\r\n    require(tttSan.ownerOf(_sanId) == msg.sender);\r\n    require(!isSanIdOnMarket[_sanId]);\r\n    MarketSAN memory ms = MarketSAN({\r\n        sanId: _sanId,\r\n        sanName: _sanName,\r\n        timeToMarket: block.timestamp,\r\n        owner: msg.sender,\r\n        bidMin: _price,\r\n        currentBid: 0,\r\n        bidType: MarketSANType.Direct,\r\n        bidAuctionTime: 0,\r\n        claimed: false\r\n    });\r\n\r\n    uint256 marketId = marketSans.push(ms) - 1;\r\n    isSanIdOnMarket[_sanId] = true;\r\n    marketSanAddresOwnerToId[msg.sender] = _sanId;\r\n    sanIdToMarketIdx[_sanId] = marketId;\r\n    tttSan.transferFrom(msg.sender, this, _sanId);\r\n    emit SanAddedToMarket(_sanId, _price);\r\n  }\r\n\r\n  function owns(uint256 _sanId, address _owner) internal view returns (bool) {\r\n    return (tttSan.ownerOf(_sanId) == _owner);\r\n  }\r\n\r\n  function marketDirectPurchase(uint256 _sanId, uint256 _amount) external {\r\n    assert(isSanIdOnMarket[_sanId]);\r\n    assert(ttt.balanceOf(msg.sender) >= _amount);\r\n    uint256 idxOfSan = sanIdToMarketIdx[_sanId];\r\n    MarketSAN storage ms = marketSans[idxOfSan];\r\n    assert(_amount >= ms.bidMin);\r\n    isSanIdOnMarket[_sanId] = false;\r\n    tttSan.marketSale(_sanId, ms.sanName, ms.owner, msg.sender);\r\n    ttt.transferFrom(msg.sender, ms.owner, _amount);\r\n    tttSan.transferFrom(this, msg.sender, _sanId);\r\n    removeFromMarketSAN(idxOfSan);\r\n    emit SanMarketDirectPurchase(msg.sender, _sanId, _amount, block.timestamp);\r\n  }\r\n\r\n  // TODO\r\n  /*\r\n  function acceptBid(uint256 _sanId, address _bidder) external {\r\n    require(marketSanAddresOwnerToId[msg.sender] == _sanId);\r\n    ttt.transferFrom(msg.sender, ms.owner, _amount);\r\n    tttSan.transferFrom(this, msg.sender, _sanId);\r\n    uint256 idxOfSan = sanIdToMarketIdx[_sanId];\r\n    removeFromMarketSAN(idxOfSan);\r\n\r\n  }\r\n\r\n  function bidForSan(uint256 _sanId, address _bidder) external {\r\n    // only add a bid if it's higher than the current one\r\n  }\r\n\r\n  */\r\n\r\n  function refundMarketBid(uint256 _sanId) external onlyOwner {\r\n    assert(isSanIdOnMarket[_sanId]);\r\n    isSanIdOnMarket[_sanId] = false;\r\n    uint256 idxOfSan = sanIdToMarketIdx[_sanId];\r\n    MarketSAN storage ms = marketSans[idxOfSan];\r\n    tttSan.transferFrom(this, ms.owner, _sanId);\r\n    emit MarketBidRefund(ms.owner, _sanId);\r\n    removeFromMarketSAN(idxOfSan);\r\n  }\r\n\r\n  function setSanAddress(address _sanAddress) external onlyOwner {\r\n    sanAddress = _sanAddress;\r\n    tttSan = TTTSan(sanAddress);\r\n  }\r\n\r\n  function getMarketSanCount() external view returns(uint256) {\r\n    return marketSans.length;\r\n  }\r\n\r\n  function getMarketSanIdAt(uint256 _idx) external view returns(uint256) {\r\n    return marketSans[_idx].sanId;\r\n  }\r\n\r\n  function removeFromMarketSAN(uint256 _idx) internal {\r\n    require(_idx < marketSans.length);\r\n    for (uint256 i = _idx; i < marketSans.length - 1; i++){\r\n        marketSans[i] = marketSans[i+1];\r\n    }\r\n    delete marketSans[marketSans.length-1];\r\n    marketSans.length--;\r\n  }\r\n\r\n}\r\n",
  "sourcePath": "C:\\TTT_Platform\\contracts\\TTTSanMarket.sol",
  "compiler": {
    "name": "solc",
    "version": "0.4.21+commit.dfe3193c.Emscripten.clang"
  },
  "schemaVersion": "2.0.0",
  "updatedAt": "2018-07-11T23:39:01.965Z"
}