{
  "contractName": "TTTSanMarket",
  "abi": [
    {
      "constant": true,
      "inputs": [],
      "name": "sanAddress",
      "outputs": [
        {
          "name": "",
          "type": "address"
        }
      ],
      "payable": false,
      "stateMutability": "view",
      "type": "function"
    },
    {
      "constant": true,
      "inputs": [],
      "name": "owner",
      "outputs": [
        {
          "name": "",
          "type": "address"
        }
      ],
      "payable": false,
      "stateMutability": "view",
      "type": "function"
    },
    {
      "constant": true,
      "inputs": [],
      "name": "tttTokenAddress",
      "outputs": [
        {
          "name": "",
          "type": "address"
        }
      ],
      "payable": false,
      "stateMutability": "view",
      "type": "function"
    },
    {
      "constant": true,
      "inputs": [
        {
          "name": "",
          "type": "uint256"
        }
      ],
      "name": "marketSans",
      "outputs": [
        {
          "name": "sanId",
          "type": "uint256"
        },
        {
          "name": "sanName",
          "type": "string"
        },
        {
          "name": "timeToMarket",
          "type": "uint256"
        },
        {
          "name": "owner",
          "type": "address"
        },
        {
          "name": "bidMin",
          "type": "uint256"
        },
        {
          "name": "currentBid",
          "type": "uint256"
        },
        {
          "name": "bidType",
          "type": "uint8"
        },
        {
          "name": "bidAuctionTime",
          "type": "uint256"
        },
        {
          "name": "claimed",
          "type": "bool"
        }
      ],
      "payable": false,
      "stateMutability": "view",
      "type": "function"
    },
    {
      "constant": false,
      "inputs": [
        {
          "name": "newOwner",
          "type": "address"
        }
      ],
      "name": "transferOwnership",
      "outputs": [],
      "payable": false,
      "stateMutability": "nonpayable",
      "type": "function"
    },
    {
      "inputs": [],
      "payable": false,
      "stateMutability": "nonpayable",
      "type": "constructor"
    },
    {
      "anonymous": false,
      "inputs": [
        {
          "indexed": false,
          "name": "sanId",
          "type": "uint256"
        },
        {
          "indexed": false,
          "name": "price",
          "type": "uint256"
        }
      ],
      "name": "SanAddedToMarket",
      "type": "event"
    },
    {
      "anonymous": false,
      "inputs": [
        {
          "indexed": false,
          "name": "newOwner",
          "type": "address"
        },
        {
          "indexed": false,
          "name": "sanId",
          "type": "uint256"
        },
        {
          "indexed": false,
          "name": "price",
          "type": "uint256"
        },
        {
          "indexed": false,
          "name": "time",
          "type": "uint256"
        }
      ],
      "name": "SanMarketDirectPurchase",
      "type": "event"
    },
    {
      "anonymous": false,
      "inputs": [
        {
          "indexed": false,
          "name": "to",
          "type": "address"
        },
        {
          "indexed": false,
          "name": "sanId",
          "type": "uint256"
        }
      ],
      "name": "MarketBidRefund",
      "type": "event"
    },
    {
      "anonymous": false,
      "inputs": [
        {
          "indexed": true,
          "name": "previousOwner",
          "type": "address"
        },
        {
          "indexed": true,
          "name": "newOwner",
          "type": "address"
        }
      ],
      "name": "OwnershipTransferred",
      "type": "event"
    },
    {
      "constant": true,
      "inputs": [
        {
          "name": "_idx",
          "type": "uint256"
        }
      ],
      "name": "getMarketSanTTM",
      "outputs": [
        {
          "name": "",
          "type": "uint256"
        }
      ],
      "payable": false,
      "stateMutability": "view",
      "type": "function"
    },
    {
      "constant": true,
      "inputs": [
        {
          "name": "_idx",
          "type": "uint256"
        }
      ],
      "name": "getMarketSanOwner",
      "outputs": [
        {
          "name": "",
          "type": "address"
        }
      ],
      "payable": false,
      "stateMutability": "view",
      "type": "function"
    },
    {
      "constant": true,
      "inputs": [
        {
          "name": "_idx",
          "type": "uint256"
        }
      ],
      "name": "getMarketSanBidMin",
      "outputs": [
        {
          "name": "",
          "type": "uint256"
        }
      ],
      "payable": false,
      "stateMutability": "view",
      "type": "function"
    },
    {
      "constant": true,
      "inputs": [
        {
          "name": "_idx",
          "type": "uint256"
        }
      ],
      "name": "getMarketSanBidAuctionTime",
      "outputs": [
        {
          "name": "",
          "type": "uint256"
        }
      ],
      "payable": false,
      "stateMutability": "view",
      "type": "function"
    },
    {
      "constant": true,
      "inputs": [
        {
          "name": "_idx",
          "type": "uint256"
        }
      ],
      "name": "getMarketSanInfo",
      "outputs": [
        {
          "name": "minBid",
          "type": "uint256"
        },
        {
          "name": "sanName",
          "type": "string"
        },
        {
          "name": "sanId",
          "type": "uint256"
        }
      ],
      "payable": false,
      "stateMutability": "view",
      "type": "function"
    },
    {
      "constant": false,
      "inputs": [
        {
          "name": "_sanId",
          "type": "uint256"
        },
        {
          "name": "_sanName",
          "type": "string"
        },
        {
          "name": "_price",
          "type": "uint256"
        }
      ],
      "name": "addSanToMarket",
      "outputs": [],
      "payable": false,
      "stateMutability": "nonpayable",
      "type": "function"
    },
    {
      "constant": false,
      "inputs": [
        {
          "name": "_sanId",
          "type": "uint256"
        },
        {
          "name": "_amount",
          "type": "uint256"
        }
      ],
      "name": "marketDirectPurchase",
      "outputs": [],
      "payable": false,
      "stateMutability": "nonpayable",
      "type": "function"
    },
    {
      "constant": false,
      "inputs": [
        {
          "name": "_sanId",
          "type": "uint256"
        }
      ],
      "name": "refundMarketBid",
      "outputs": [],
      "payable": false,
      "stateMutability": "nonpayable",
      "type": "function"
    },
    {
      "constant": false,
      "inputs": [
        {
          "name": "_sanAddress",
          "type": "address"
        }
      ],
      "name": "setSanAddress",
      "outputs": [],
      "payable": false,
      "stateMutability": "nonpayable",
      "type": "function"
    },
    {
      "constant": true,
      "inputs": [],
      "name": "getMarketSanCount",
      "outputs": [
        {
          "name": "",
          "type": "uint256"
        }
      ],
      "payable": false,
      "stateMutability": "view",
      "type": "function"
    },
    {
      "constant": true,
      "inputs": [
        {
          "name": "_idx",
          "type": "uint256"
        }
      ],
      "name": "getMarketSanIdAt",
      "outputs": [
        {
          "name": "",
          "type": "uint256"
        }
      ],
      "payable": false,
      "stateMutability": "view",
      "type": "function"
    }
  ],
  "bytecode": "0x6080604052733a518a5f5ac3f3dbf4ecd6b91dfbbb8422832996600160006101000a81548173ffffffffffffffffffffffffffffffffffffffff021916908373ffffffffffffffffffffffffffffffffffffffff160217905550736fa333ac2e2737a522b5d28bf1a1ea88d2a76f3a600360006101000a81548173ffffffffffffffffffffffffffffffffffffffff021916908373ffffffffffffffffffffffffffffffffffffffff1602179055503480156100ba57600080fd5b50336000806101000a81548173ffffffffffffffffffffffffffffffffffffffff021916908373ffffffffffffffffffffffffffffffffffffffff160217905550600160009054906101000a900473ffffffffffffffffffffffffffffffffffffffff16600260006101000a81548173ffffffffffffffffffffffffffffffffffffffff021916908373ffffffffffffffffffffffffffffffffffffffff160217905550600360009054906101000a900473ffffffffffffffffffffffffffffffffffffffff16600460006101000a81548173ffffffffffffffffffffffffffffffffffffffff021916908373ffffffffffffffffffffffffffffffffffffffff1602179055506121a4806101d06000396000f3006080604052600436106100e6576000357c0100000000000000000000000000000000000000000000000000000000900463ffffffff16806301827291146100eb5780630344cfb91461012e5780631bd5977a146101855780637c84db73146101d45780637e5485cb14610215578063843e081c146102825780638da5cb5b146102c3578063a64ded311461031a578063a6bbbffd14610371578063ab11820f1461039c578063ae63c539146103dd578063b9bd65f01461041e578063cf1411621461053a578063f2fde38b14610571578063fa63c5ab146105b4578063ff7d425814610668575b600080fd5b3480156100f757600080fd5b5061012c600480360381019080803573ffffffffffffffffffffffffffffffffffffffff169060200190929190505050610695565b005b34801561013a57600080fd5b50610143610797565b604051808273ffffffffffffffffffffffffffffffffffffffff1673ffffffffffffffffffffffffffffffffffffffff16815260200191505060405180910390f35b34801561019157600080fd5b506101d260048036038101908080359060200190929190803590602001908201803590602001919091929391929390803590602001909291905050506107bd565b005b3480156101e057600080fd5b506101ff60048036038101908080359060200190929190505050610d5c565b6040518082815260200191505060405180910390f35b34801561022157600080fd5b5061024060048036038101908080359060200190929190505050610d86565b604051808273ffffffffffffffffffffffffffffffffffffffff1673ffffffffffffffffffffffffffffffffffffffff16815260200191505060405180910390f35b34801561028e57600080fd5b506102ad60048036038101908080359060200190929190505050610dd0565b6040518082815260200191505060405180910390f35b3480156102cf57600080fd5b506102d8610dfa565b604051808273ffffffffffffffffffffffffffffffffffffffff1673ffffffffffffffffffffffffffffffffffffffff16815260200191505060405180910390f35b34801561032657600080fd5b5061032f610e1f565b604051808273ffffffffffffffffffffffffffffffffffffffff1673ffffffffffffffffffffffffffffffffffffffff16815260200191505060405180910390f35b34801561037d57600080fd5b50610386610e45565b6040518082815260200191505060405180910390f35b3480156103a857600080fd5b506103c760048036038101908080359060200190929190505050610e52565b6040518082815260200191505060405180910390f35b3480156103e957600080fd5b5061040860048036038101908080359060200190929190505050610e7c565b6040518082815260200191505060405180910390f35b34801561042a57600080fd5b5061044960048036038101908080359060200190929190505050610ea6565b604051808a8152602001806020018981526020018873ffffffffffffffffffffffffffffffffffffffff1673ffffffffffffffffffffffffffffffffffffffff1681526020018781526020018681526020018560018111156104a757fe5b60ff1681526020018481526020018315151515815260200182810382528a818151815260200191508051906020019080838360005b838110156104f75780820151818401526020810190506104dc565b50505050905090810190601f1680156105245780820380516001836020036101000a031916815260200191505b509a505050505050505050505060405180910390f35b34801561054657600080fd5b5061056f6004803603810190808035906020019092919080359060200190929190505050610fd5565b005b34801561057d57600080fd5b506105b2600480360381019080803573ffffffffffffffffffffffffffffffffffffffff169060200190929190505050611703565b005b3480156105c057600080fd5b506105df60048036038101908080359060200190929190505050611858565b6040518084815260200180602001838152602001828103825284818151815260200191508051906020019080838360005b8381101561062b578082015181840152602081019050610610565b50505050905090810190601f1680156106585780820380516001836020036101000a031916815260200191505b5094505050505060405180910390f35b34801561067457600080fd5b5061069360048036038101908080359060200190929190505050611933565b005b6000809054906101000a900473ffffffffffffffffffffffffffffffffffffffff1673ffffffffffffffffffffffffffffffffffffffff163373ffffffffffffffffffffffffffffffffffffffff161415156106f057600080fd5b80600360006101000a81548173ffffffffffffffffffffffffffffffffffffffff021916908373ffffffffffffffffffffffffffffffffffffffff160217905550600360009054906101000a900473ffffffffffffffffffffffffffffffffffffffff16600460006101000a81548173ffffffffffffffffffffffffffffffffffffffff021916908373ffffffffffffffffffffffffffffffffffffffff16021790555050565b600360009054906101000a900473ffffffffffffffffffffffffffffffffffffffff1681565b6107c5611ebc565b60003373ffffffffffffffffffffffffffffffffffffffff16600460009054906101000a900473ffffffffffffffffffffffffffffffffffffffff1673ffffffffffffffffffffffffffffffffffffffff16636352211e886040518263ffffffff167c010000000000000000000000000000000000000000000000000000000002815260040180828152602001915050602060405180830381600087803b15801561086f57600080fd5b505af1158015610883573d6000803e3d6000fd5b505050506040513d602081101561089957600080fd5b810190808051906020019092919050505073ffffffffffffffffffffffffffffffffffffffff16141515610935576040517f08c379a000000000000000000000000000000000000000000000000000000000815260040180806020018281038252601b8152602001807f6d73672e73656e646572206973206e6f742073616e206f776e6572000000000081525060200191505060405180910390fd5b6005600087815260200190815260200160002060009054906101000a900460ff161515156109cb576040517f08c379a00000000000000000000000000000000000000000000000000000000081526004018080602001828103825260188152602001807f73616e206973206f6e206d61726b657420616c7265616479000000000000000081525060200191505060405180910390fd5b6101206040519081016040528087815260200186868080601f01602080910402602001604051908101604052809392919081815260200183838082843782019150505050505081526020014281526020013373ffffffffffffffffffffffffffffffffffffffff1681526020018481526020016000815260200160006001811115610a5257fe5b815260200160008152602001600015158152509150600160088390806001815401808255809150509060018203906000526020600020906009020160009091929091909150600082015181600001556020820151816001019080519060200190610abd929190611f2c565b506040820151816002015560608201518160030160006101000a81548173ffffffffffffffffffffffffffffffffffffffff021916908373ffffffffffffffffffffffffffffffffffffffff1602179055506080820151816004015560a0820151816005015560c08201518160060160006101000a81548160ff02191690836001811115610b4757fe5b021790555060e082015181600701556101008201518160080160006101000a81548160ff021916908315150217905550505003905060016005600088815260200190815260200160002060006101000a81548160ff02191690831515021790555085600660003373ffffffffffffffffffffffffffffffffffffffff1673ffffffffffffffffffffffffffffffffffffffff16815260200190815260200160002081905550806007600088815260200190815260200160002081905550600460009054906101000a900473ffffffffffffffffffffffffffffffffffffffff1673ffffffffffffffffffffffffffffffffffffffff166323b872dd3330896040518463ffffffff167c0100000000000000000000000000000000000000000000000000000000028152600401808473ffffffffffffffffffffffffffffffffffffffff1673ffffffffffffffffffffffffffffffffffffffff1681526020018373ffffffffffffffffffffffffffffffffffffffff1673ffffffffffffffffffffffffffffffffffffffff1681526020018281526020019350505050600060405180830381600087803b158015610cfd57600080fd5b505af1158015610d11573d6000803e3d6000fd5b505050507f3bfac85e641edd3aecabee7c966bac1539a1a5382406effa63696b8fdc8fc6ca8684604051808381526020018281526020019250505060405180910390a1505050505050565b6000600882815481101515610d6d57fe5b9060005260206000209060090201600701549050919050565b6000600882815481101515610d9757fe5b906000526020600020906009020160030160009054906101000a900473ffffffffffffffffffffffffffffffffffffffff169050919050565b6000600882815481101515610de157fe5b9060005260206000209060090201600001549050919050565b6000809054906101000a900473ffffffffffffffffffffffffffffffffffffffff1681565b600160009054906101000a900473ffffffffffffffffffffffffffffffffffffffff1681565b6000600880549050905090565b6000600882815481101515610e6357fe5b9060005260206000209060090201600201549050919050565b6000600882815481101515610e8d57fe5b9060005260206000209060090201600401549050919050565b600881815481101515610eb557fe5b9060005260206000209060090201600091509050806000015490806001018054600181600116156101000203166002900480601f016020809104026020016040519081016040528092919081815260200182805460018160011615610100020316600290048015610f675780601f10610f3c57610100808354040283529160200191610f67565b820191906000526020600020905b815481529060010190602001808311610f4a57829003601f168201915b5050505050908060020154908060030160009054906101000a900473ffffffffffffffffffffffffffffffffffffffff16908060040154908060050154908060060160009054906101000a900460ff16908060070154908060080160009054906101000a900460ff16905089565b6000806005600085815260200190815260200160002060009054906101000a900460ff16151561106d576040517f08c379a00000000000000000000000000000000000000000000000000000000081526004018080602001828103825260148152602001807f73616e206973206e6f74206f6e206d61726b657400000000000000000000000081525060200191505060405180910390fd5b82600260009054906101000a900473ffffffffffffffffffffffffffffffffffffffff1673ffffffffffffffffffffffffffffffffffffffff166370a08231336040518263ffffffff167c0100000000000000000000000000000000000000000000000000000000028152600401808273ffffffffffffffffffffffffffffffffffffffff1673ffffffffffffffffffffffffffffffffffffffff168152602001915050602060405180830381600087803b15801561112b57600080fd5b505af115801561113f573d6000803e3d6000fd5b505050506040513d602081101561115557600080fd5b8101908080519060200190929190505050101515156111dc576040517f08c379a00000000000000000000000000000000000000000000000000000000081526004018080602001828103825260138152602001807f6d696e2062616c616e6365206e6f74206d65740000000000000000000000000081525060200191505060405180910390fd5b6007600085815260200190815260200160002054915060088281548110151561120157fe5b906000526020600020906009020190508060040154831015151561122157fe5b60006005600086815260200190815260200160002060006101000a81548160ff021916908315150217905550600460009054906101000a900473ffffffffffffffffffffffffffffffffffffffff1673ffffffffffffffffffffffffffffffffffffffff166332c3535285836001018460030160009054906101000a900473ffffffffffffffffffffffffffffffffffffffff16336040518563ffffffff167c010000000000000000000000000000000000000000000000000000000002815260040180858152602001806020018473ffffffffffffffffffffffffffffffffffffffff1673ffffffffffffffffffffffffffffffffffffffff1681526020018373ffffffffffffffffffffffffffffffffffffffff1673ffffffffffffffffffffffffffffffffffffffff1681526020018281038252858181546001816001161561010002031660029004815260200191508054600181600116156101000203166002900480156113d45780601f106113a9576101008083540402835291602001916113d4565b820191906000526020600020905b8154815290600101906020018083116113b757829003601f168201915b505095505050505050600060405180830381600087803b1580156113f757600080fd5b505af115801561140b573d6000803e3d6000fd5b50505050600260009054906101000a900473ffffffffffffffffffffffffffffffffffffffff1673ffffffffffffffffffffffffffffffffffffffff166323b872dd338360030160009054906101000a900473ffffffffffffffffffffffffffffffffffffffff16866040518463ffffffff167c0100000000000000000000000000000000000000000000000000000000028152600401808473ffffffffffffffffffffffffffffffffffffffff1673ffffffffffffffffffffffffffffffffffffffff1681526020018373ffffffffffffffffffffffffffffffffffffffff1673ffffffffffffffffffffffffffffffffffffffff1681526020018281526020019350505050602060405180830381600087803b15801561152c57600080fd5b505af1158015611540573d6000803e3d6000fd5b505050506040513d602081101561155657600080fd5b810190808051906020019092919050505050600460009054906101000a900473ffffffffffffffffffffffffffffffffffffffff1673ffffffffffffffffffffffffffffffffffffffff166323b872dd3033876040518463ffffffff167c0100000000000000000000000000000000000000000000000000000000028152600401808473ffffffffffffffffffffffffffffffffffffffff1673ffffffffffffffffffffffffffffffffffffffff1681526020018373ffffffffffffffffffffffffffffffffffffffff1673ffffffffffffffffffffffffffffffffffffffff1681526020018281526020019350505050600060405180830381600087803b15801561166157600080fd5b505af1158015611675573d6000803e3d6000fd5b5050505061168282611c59565b7f377b0207b5e7725997bd896a4430eff1affca6f254450d3b41378d992e81583e33858542604051808573ffffffffffffffffffffffffffffffffffffffff1673ffffffffffffffffffffffffffffffffffffffff16815260200184815260200183815260200182815260200194505050505060405180910390a150505050565b6000809054906101000a900473ffffffffffffffffffffffffffffffffffffffff1673ffffffffffffffffffffffffffffffffffffffff163373ffffffffffffffffffffffffffffffffffffffff1614151561175e57600080fd5b600073ffffffffffffffffffffffffffffffffffffffff168173ffffffffffffffffffffffffffffffffffffffff161415151561179a57600080fd5b8073ffffffffffffffffffffffffffffffffffffffff166000809054906101000a900473ffffffffffffffffffffffffffffffffffffffff1673ffffffffffffffffffffffffffffffffffffffff167f8be0079c531659141344cd1fd0a4f28419497f9722a3daafe3b4186f6b6457e060405160405180910390a3806000806101000a81548173ffffffffffffffffffffffffffffffffffffffff021916908373ffffffffffffffffffffffffffffffffffffffff16021790555050565b6000606060008060088581548110151561186e57fe5b9060005260206000209060090201905080600401549350806001018054600181600116156101000203166002900480601f01602080910402602001604051908101604052809291908181526020018280546001816001161561010002031660029004801561191d5780601f106118f25761010080835404028352916020019161191d565b820191906000526020600020905b81548152906001019060200180831161190057829003601f168201915b5050505050925080600001549150509193909250565b6000806000809054906101000a900473ffffffffffffffffffffffffffffffffffffffff1673ffffffffffffffffffffffffffffffffffffffff163373ffffffffffffffffffffffffffffffffffffffff1614151561199157600080fd5b6005600084815260200190815260200160002060009054906101000a900460ff161515611a26576040517f08c379a00000000000000000000000000000000000000000000000000000000081526004018080602001828103825260148152602001807f73616e206973206e6f74206f6e206d61726b657400000000000000000000000081525060200191505060405180910390fd5b60006005600085815260200190815260200160002060006101000a81548160ff02191690831515021790555060076000848152602001908152602001600020549150600882815481101515611a7757fe5b90600052602060002090600902019050600460009054906101000a900473ffffffffffffffffffffffffffffffffffffffff1673ffffffffffffffffffffffffffffffffffffffff166323b872dd308360030160009054906101000a900473ffffffffffffffffffffffffffffffffffffffff16866040518463ffffffff167c0100000000000000000000000000000000000000000000000000000000028152600401808473ffffffffffffffffffffffffffffffffffffffff1673ffffffffffffffffffffffffffffffffffffffff1681526020018373ffffffffffffffffffffffffffffffffffffffff1673ffffffffffffffffffffffffffffffffffffffff1681526020018281526020019350505050600060405180830381600087803b158015611ba457600080fd5b505af1158015611bb8573d6000803e3d6000fd5b505050507ffbb8510bbab44d16a1fbc6454d9a416138b7818c5c901167c90fb8175a3e5beb8160030160009054906101000a900473ffffffffffffffffffffffffffffffffffffffff1684604051808373ffffffffffffffffffffffffffffffffffffffff1673ffffffffffffffffffffffffffffffffffffffff1681526020018281526020019250505060405180910390a1611c5482611c59565b505050565b600060088054905082101515611c6e57600080fd5b8190505b600160088054905003811015611df357600860018201815481101515611c9457fe5b9060005260206000209060090201600882815481101515611cb157fe5b90600052602060002090600902016000820154816000015560018201816001019080546001816001161561010002031660029004611cf0929190611fac565b50600282015481600201556003820160009054906101000a900473ffffffffffffffffffffffffffffffffffffffff168160030160006101000a81548173ffffffffffffffffffffffffffffffffffffffff021916908373ffffffffffffffffffffffffffffffffffffffff16021790555060048201548160040155600582015481600501556006820160009054906101000a900460ff168160060160006101000a81548160ff02191690836001811115611da757fe5b0217905550600782015481600701556008820160009054906101000a900460ff168160080160006101000a81548160ff0219169083151502179055509050508080600101915050611c72565b6008600160088054905003815481101515611e0a57fe5b9060005260206000209060090201600080820160009055600182016000611e319190612033565b60028201600090556003820160006101000a81549073ffffffffffffffffffffffffffffffffffffffff0219169055600482016000905560058201600090556006820160006101000a81549060ff021916905560078201600090556008820160006101000a81549060ff021916905550506008805480919060019003611eb7919061207b565b505050565b61012060405190810160405280600081526020016060815260200160008152602001600073ffffffffffffffffffffffffffffffffffffffff168152602001600081526020016000815260200160006001811115611f1657fe5b8152602001600081526020016000151581525090565b828054600181600116156101000203166002900490600052602060002090601f016020900481019282601f10611f6d57805160ff1916838001178555611f9b565b82800160010185558215611f9b579182015b82811115611f9a578251825591602001919060010190611f7f565b5b509050611fa891906120ad565b5090565b828054600181600116156101000203166002900490600052602060002090601f016020900481019282601f10611fe55780548555612022565b8280016001018555821561202257600052602060002091601f016020900482015b82811115612021578254825591600101919060010190612006565b5b50905061202f91906120ad565b5090565b50805460018160011615610100020316600290046000825580601f106120595750612078565b601f01602090049060005260206000209081019061207791906120ad565b5b50565b8154818355818111156120a8576009028160090283600052602060002091820191016120a791906120d2565b5b505050565b6120cf91905b808211156120cb5760008160009055506001016120b3565b5090565b90565b61217591905b80821115612171576000808201600090556001820160006120f99190612033565b60028201600090556003820160006101000a81549073ffffffffffffffffffffffffffffffffffffffff0219169055600482016000905560058201600090556006820160006101000a81549060ff021916905560078201600090556008820160006101000a81549060ff0219169055506009016120d8565b5090565b905600a165627a7a72305820835ac5c8c98b7645d97e31f72a3e339c2d3f18bc5cd2e4302f4272a786861eb70029",
  "source": "/// @title The Tip Tokn SAN marketplace\r\n/// @author Jonathan Teel (jonathan.teel@thetiptoken.io)\r\n/// @dev Marketplace for trading TTTSan tokens\r\n\r\npragma solidity ^0.4.24;\r\n\r\nimport \"./TTTSan.sol\";\r\n\r\ncontract TTTSanMarket is Ownable {\r\n\r\n  address public tttTokenAddress = 0x3a518A5F5AC3F3dBF4ECd6b91dfBbb8422832996; // TESTNET\r\n  TTTToken ttt;\r\n  address public sanAddress = 0x6fa333ac2e2737a522b5d28bf1a1ea88d2a76f3a; // TESTNET\r\n  TTTSan tttSan;\r\n\r\n  mapping(uint256=>bool) isSanIdOnMarket;\r\n  mapping(address=>uint256) marketSanAddresOwnerToId;\r\n  mapping(uint256=>uint256) sanIdToMarketIdx;\r\n\r\n  enum MarketSANType {Direct, Auction}\r\n  struct MarketSAN {\r\n    uint256 sanId;\r\n    string sanName;\r\n    uint256 timeToMarket;\r\n    address owner;\r\n    uint256 bidMin;\r\n    uint256 currentBid;\r\n    MarketSANType bidType;\r\n    uint256 bidAuctionTime;\r\n    bool claimed;\r\n  }\r\n  MarketSAN[] public marketSans;\r\n\r\n  event SanAddedToMarket(uint256 sanId, uint256 price);\r\n  event SanMarketDirectPurchase(address newOwner, uint256 sanId, uint256 price, uint256 time);\r\n  event MarketBidRefund(address to, uint256 sanId);\r\n\r\n  constructor() {\r\n    ttt = TTTToken(tttTokenAddress);\r\n    tttSan = TTTSan(sanAddress);\r\n  }\r\n\r\n  function getMarketSanTTM(uint256 _idx) public view returns(uint256) {\r\n    return marketSans[_idx].timeToMarket;\r\n  }\r\n\r\n  function getMarketSanOwner(uint256 _idx) public view returns(address) {\r\n    return marketSans[_idx].owner;\r\n  }\r\n\r\n  function getMarketSanBidMin(uint256 _idx) public view returns(uint256) {\r\n    return marketSans[_idx].bidMin;\r\n  }\r\n\r\n  function getMarketSanBidAuctionTime(uint256 _idx) public view returns(uint256) {\r\n    return marketSans[_idx].bidAuctionTime;\r\n  }\r\n\r\n  function getMarketSanInfo(uint256 _idx) public view returns(\r\n      uint256 minBid, string sanName, uint256 sanId\r\n    ) {\r\n    MarketSAN storage ms = marketSans[_idx];\r\n    minBid = ms.bidMin;\r\n    sanName = ms.sanName;\r\n    sanId = ms.sanId;\r\n  }\r\n\r\n  function addSanToMarket(uint256 _sanId, string _sanName, uint256 _price) external {\r\n    require(tttSan.ownerOf(_sanId) == msg.sender, \"msg.sender is not san owner\");\r\n    require(!isSanIdOnMarket[_sanId], \"san is on market already\");\r\n    MarketSAN memory ms = MarketSAN({\r\n        sanId: _sanId,\r\n        sanName: _sanName,\r\n        timeToMarket: block.timestamp,\r\n        owner: msg.sender,\r\n        bidMin: _price,\r\n        currentBid: 0,\r\n        bidType: MarketSANType.Direct,\r\n        bidAuctionTime: 0,\r\n        claimed: false\r\n    });\r\n\r\n    uint256 marketId = marketSans.push(ms) - 1;\r\n    isSanIdOnMarket[_sanId] = true;\r\n    marketSanAddresOwnerToId[msg.sender] = _sanId;\r\n    sanIdToMarketIdx[_sanId] = marketId;\r\n    tttSan.transferFrom(msg.sender, this, _sanId);\r\n    emit SanAddedToMarket(_sanId, _price);\r\n  }\r\n\r\n  function owns(uint256 _sanId, address _owner) internal view returns (bool) {\r\n    return (tttSan.ownerOf(_sanId) == _owner);\r\n  }\r\n\r\n  function marketDirectPurchase(uint256 _sanId, uint256 _amount) external {\r\n    require(isSanIdOnMarket[_sanId], \"san is not on market\");\r\n    require(ttt.balanceOf(msg.sender) >= _amount, \"min balance not met\");\r\n    uint256 idxOfSan = sanIdToMarketIdx[_sanId];\r\n    MarketSAN storage ms = marketSans[idxOfSan];\r\n    assert(_amount >= ms.bidMin);\r\n    isSanIdOnMarket[_sanId] = false;\r\n    tttSan.marketSale(_sanId, ms.sanName, ms.owner, msg.sender);\r\n    ttt.transferFrom(msg.sender, ms.owner, _amount);\r\n    tttSan.transferFrom(this, msg.sender, _sanId);\r\n    removeFromMarketSAN(idxOfSan);\r\n    emit SanMarketDirectPurchase(msg.sender, _sanId, _amount, block.timestamp);\r\n  }\r\n\r\n  function refundMarketBid(uint256 _sanId) external onlyOwner {\r\n    require(isSanIdOnMarket[_sanId], \"san is not on market\");\r\n    isSanIdOnMarket[_sanId] = false;\r\n    uint256 idxOfSan = sanIdToMarketIdx[_sanId];\r\n    MarketSAN storage ms = marketSans[idxOfSan];\r\n    tttSan.transferFrom(this, ms.owner, _sanId);\r\n    emit MarketBidRefund(ms.owner, _sanId);\r\n    removeFromMarketSAN(idxOfSan);\r\n  }\r\n\r\n  function setSanAddress(address _sanAddress) external onlyOwner {\r\n    sanAddress = _sanAddress;\r\n    tttSan = TTTSan(sanAddress);\r\n  }\r\n\r\n  function getMarketSanCount() external view returns(uint256) {\r\n    return marketSans.length;\r\n  }\r\n\r\n  function getMarketSanIdAt(uint256 _idx) external view returns(uint256) {\r\n    return marketSans[_idx].sanId;\r\n  }\r\n\r\n  function removeFromMarketSAN(uint256 _idx) internal {\r\n    require(_idx < marketSans.length);\r\n    for (uint256 i = _idx; i < marketSans.length - 1; i++){\r\n        marketSans[i] = marketSans[i+1];\r\n    }\r\n    delete marketSans[marketSans.length-1];\r\n    marketSans.length--;\r\n  }\r\n\r\n}\r\n",
  "sourcePath": "C:\\TTT_Platform\\contracts\\TTTSanMarket.sol",
  "compiler": {
    "name": "solc",
    "version": "0.4.24+commit.e67f0147.Emscripten.clang"
  },
  "schemaVersion": "2.0.1",
  "updatedAt": "2018-07-30T04:11:57.838Z"
}