{
  "contractName": "TTTSan",
  "abi": [
    {
      "constant": true,
      "inputs": [],
      "name": "name",
      "outputs": [
        {
          "name": "",
          "type": "string"
        }
      ],
      "payable": false,
      "stateMutability": "view",
      "type": "function"
    },
    {
      "constant": true,
      "inputs": [
        {
          "name": "_tokenId",
          "type": "uint256"
        }
      ],
      "name": "getApproved",
      "outputs": [
        {
          "name": "",
          "type": "address"
        }
      ],
      "payable": false,
      "stateMutability": "view",
      "type": "function"
    },
    {
      "constant": false,
      "inputs": [
        {
          "name": "_to",
          "type": "address"
        },
        {
          "name": "_tokenId",
          "type": "uint256"
        }
      ],
      "name": "approve",
      "outputs": [],
      "payable": false,
      "stateMutability": "nonpayable",
      "type": "function"
    },
    {
      "constant": true,
      "inputs": [],
      "name": "sanMaxLength",
      "outputs": [
        {
          "name": "",
          "type": "uint256"
        }
      ],
      "payable": false,
      "stateMutability": "view",
      "type": "function"
    },
    {
      "constant": true,
      "inputs": [],
      "name": "totalSupply",
      "outputs": [
        {
          "name": "",
          "type": "uint256"
        }
      ],
      "payable": false,
      "stateMutability": "view",
      "type": "function"
    },
    {
      "constant": false,
      "inputs": [
        {
          "name": "_from",
          "type": "address"
        },
        {
          "name": "_to",
          "type": "address"
        },
        {
          "name": "_tokenId",
          "type": "uint256"
        }
      ],
      "name": "transferFrom",
      "outputs": [],
      "payable": false,
      "stateMutability": "nonpayable",
      "type": "function"
    },
    {
      "constant": true,
      "inputs": [
        {
          "name": "_owner",
          "type": "address"
        },
        {
          "name": "_index",
          "type": "uint256"
        }
      ],
      "name": "tokenOfOwnerByIndex",
      "outputs": [
        {
          "name": "",
          "type": "uint256"
        }
      ],
      "payable": false,
      "stateMutability": "view",
      "type": "function"
    },
    {
      "constant": false,
      "inputs": [
        {
          "name": "_from",
          "type": "address"
        },
        {
          "name": "_to",
          "type": "address"
        },
        {
          "name": "_tokenId",
          "type": "uint256"
        }
      ],
      "name": "safeTransferFrom",
      "outputs": [],
      "payable": false,
      "stateMutability": "nonpayable",
      "type": "function"
    },
    {
      "constant": true,
      "inputs": [
        {
          "name": "_tokenId",
          "type": "uint256"
        }
      ],
      "name": "exists",
      "outputs": [
        {
          "name": "",
          "type": "bool"
        }
      ],
      "payable": false,
      "stateMutability": "view",
      "type": "function"
    },
    {
      "constant": true,
      "inputs": [
        {
          "name": "_index",
          "type": "uint256"
        }
      ],
      "name": "tokenByIndex",
      "outputs": [
        {
          "name": "",
          "type": "uint256"
        }
      ],
      "payable": false,
      "stateMutability": "view",
      "type": "function"
    },
    {
      "constant": true,
      "inputs": [],
      "name": "wallet",
      "outputs": [
        {
          "name": "",
          "type": "address"
        }
      ],
      "payable": false,
      "stateMutability": "view",
      "type": "function"
    },
    {
      "constant": true,
      "inputs": [],
      "name": "baseUrl",
      "outputs": [
        {
          "name": "",
          "type": "string"
        }
      ],
      "payable": false,
      "stateMutability": "view",
      "type": "function"
    },
    {
      "constant": true,
      "inputs": [
        {
          "name": "_tokenId",
          "type": "uint256"
        }
      ],
      "name": "ownerOf",
      "outputs": [
        {
          "name": "",
          "type": "address"
        }
      ],
      "payable": false,
      "stateMutability": "view",
      "type": "function"
    },
    {
      "constant": true,
      "inputs": [],
      "name": "sanMaxAmount",
      "outputs": [
        {
          "name": "",
          "type": "uint256"
        }
      ],
      "payable": false,
      "stateMutability": "view",
      "type": "function"
    },
    {
      "constant": true,
      "inputs": [
        {
          "name": "_owner",
          "type": "address"
        }
      ],
      "name": "balanceOf",
      "outputs": [
        {
          "name": "",
          "type": "uint256"
        }
      ],
      "payable": false,
      "stateMutability": "view",
      "type": "function"
    },
    {
      "constant": true,
      "inputs": [],
      "name": "owner",
      "outputs": [
        {
          "name": "",
          "type": "address"
        }
      ],
      "payable": false,
      "stateMutability": "view",
      "type": "function"
    },
    {
      "constant": true,
      "inputs": [],
      "name": "marketAddress",
      "outputs": [
        {
          "name": "",
          "type": "address"
        }
      ],
      "payable": false,
      "stateMutability": "view",
      "type": "function"
    },
    {
      "constant": true,
      "inputs": [],
      "name": "symbol",
      "outputs": [
        {
          "name": "",
          "type": "string"
        }
      ],
      "payable": false,
      "stateMutability": "view",
      "type": "function"
    },
    {
      "constant": false,
      "inputs": [
        {
          "name": "_to",
          "type": "address"
        },
        {
          "name": "_approved",
          "type": "bool"
        }
      ],
      "name": "setApprovalForAll",
      "outputs": [],
      "payable": false,
      "stateMutability": "nonpayable",
      "type": "function"
    },
    {
      "constant": true,
      "inputs": [],
      "name": "tttTokenAddress",
      "outputs": [
        {
          "name": "",
          "type": "address"
        }
      ],
      "payable": false,
      "stateMutability": "view",
      "type": "function"
    },
    {
      "constant": true,
      "inputs": [],
      "name": "sanMinLength",
      "outputs": [
        {
          "name": "",
          "type": "uint256"
        }
      ],
      "payable": false,
      "stateMutability": "view",
      "type": "function"
    },
    {
      "constant": false,
      "inputs": [
        {
          "name": "_from",
          "type": "address"
        },
        {
          "name": "_to",
          "type": "address"
        },
        {
          "name": "_tokenId",
          "type": "uint256"
        },
        {
          "name": "_data",
          "type": "bytes"
        }
      ],
      "name": "safeTransferFrom",
      "outputs": [],
      "payable": false,
      "stateMutability": "nonpayable",
      "type": "function"
    },
    {
      "constant": true,
      "inputs": [
        {
          "name": "",
          "type": "uint256"
        }
      ],
      "name": "sans",
      "outputs": [
        {
          "name": "sanName",
          "type": "string"
        },
        {
          "name": "timeAlive",
          "type": "uint256"
        },
        {
          "name": "timeLastMove",
          "type": "uint256"
        },
        {
          "name": "prevOwner",
          "type": "address"
        }
      ],
      "payable": false,
      "stateMutability": "view",
      "type": "function"
    },
    {
      "constant": true,
      "inputs": [
        {
          "name": "_tokenId",
          "type": "uint256"
        }
      ],
      "name": "tokenURI",
      "outputs": [
        {
          "name": "",
          "type": "string"
        }
      ],
      "payable": false,
      "stateMutability": "view",
      "type": "function"
    },
    {
      "constant": true,
      "inputs": [
        {
          "name": "_owner",
          "type": "address"
        },
        {
          "name": "_operator",
          "type": "address"
        }
      ],
      "name": "isApprovedForAll",
      "outputs": [
        {
          "name": "",
          "type": "bool"
        }
      ],
      "payable": false,
      "stateMutability": "view",
      "type": "function"
    },
    {
      "constant": false,
      "inputs": [
        {
          "name": "newOwner",
          "type": "address"
        }
      ],
      "name": "transferOwnership",
      "outputs": [],
      "payable": false,
      "stateMutability": "nonpayable",
      "type": "function"
    },
    {
      "constant": true,
      "inputs": [],
      "name": "sanTTTCost",
      "outputs": [
        {
          "name": "",
          "type": "uint256"
        }
      ],
      "payable": false,
      "stateMutability": "view",
      "type": "function"
    },
    {
      "inputs": [],
      "payable": false,
      "stateMutability": "nonpayable",
      "type": "constructor"
    },
    {
      "anonymous": false,
      "inputs": [
        {
          "indexed": false,
          "name": "sanOwner",
          "type": "address"
        },
        {
          "indexed": false,
          "name": "sanId",
          "type": "uint256"
        },
        {
          "indexed": false,
          "name": "sanName",
          "type": "string"
        }
      ],
      "name": "SanMinted",
      "type": "event"
    },
    {
      "anonymous": false,
      "inputs": [
        {
          "indexed": false,
          "name": "sanOwner",
          "type": "address"
        },
        {
          "indexed": false,
          "name": "amt",
          "type": "uint256"
        }
      ],
      "name": "SanSlotsPurchase",
      "type": "event"
    },
    {
      "anonymous": false,
      "inputs": [
        {
          "indexed": true,
          "name": "previousOwner",
          "type": "address"
        },
        {
          "indexed": true,
          "name": "newOwner",
          "type": "address"
        }
      ],
      "name": "OwnershipTransferred",
      "type": "event"
    },
    {
      "anonymous": false,
      "inputs": [
        {
          "indexed": true,
          "name": "_from",
          "type": "address"
        },
        {
          "indexed": true,
          "name": "_to",
          "type": "address"
        },
        {
          "indexed": false,
          "name": "_tokenId",
          "type": "uint256"
        }
      ],
      "name": "Transfer",
      "type": "event"
    },
    {
      "anonymous": false,
      "inputs": [
        {
          "indexed": true,
          "name": "_owner",
          "type": "address"
        },
        {
          "indexed": true,
          "name": "_approved",
          "type": "address"
        },
        {
          "indexed": false,
          "name": "_tokenId",
          "type": "uint256"
        }
      ],
      "name": "Approval",
      "type": "event"
    },
    {
      "anonymous": false,
      "inputs": [
        {
          "indexed": true,
          "name": "_owner",
          "type": "address"
        },
        {
          "indexed": true,
          "name": "_operator",
          "type": "address"
        },
        {
          "indexed": false,
          "name": "_approved",
          "type": "bool"
        }
      ],
      "name": "ApprovalForAll",
      "type": "event"
    },
    {
      "constant": false,
      "inputs": [
        {
          "name": "_sanName",
          "type": "string"
        },
        {
          "name": "_sanageUri",
          "type": "string"
        }
      ],
      "name": "sanMint",
      "outputs": [
        {
          "name": "",
          "type": "string"
        }
      ],
      "payable": false,
      "stateMutability": "nonpayable",
      "type": "function"
    },
    {
      "constant": true,
      "inputs": [
        {
          "name": "_sanId",
          "type": "uint256"
        }
      ],
      "name": "getSANOwner",
      "outputs": [
        {
          "name": "",
          "type": "address"
        }
      ],
      "payable": false,
      "stateMutability": "view",
      "type": "function"
    },
    {
      "constant": true,
      "inputs": [
        {
          "name": "_sanName",
          "type": "string"
        }
      ],
      "name": "getSanIdFromName",
      "outputs": [
        {
          "name": "",
          "type": "uint256"
        }
      ],
      "payable": false,
      "stateMutability": "view",
      "type": "function"
    },
    {
      "constant": true,
      "inputs": [
        {
          "name": "_sanId",
          "type": "uint256"
        }
      ],
      "name": "getSanName",
      "outputs": [
        {
          "name": "",
          "type": "string"
        }
      ],
      "payable": false,
      "stateMutability": "view",
      "type": "function"
    },
    {
      "constant": true,
      "inputs": [
        {
          "name": "_sanId",
          "type": "uint256"
        }
      ],
      "name": "getSanTimeAlive",
      "outputs": [
        {
          "name": "",
          "type": "uint256"
        }
      ],
      "payable": false,
      "stateMutability": "view",
      "type": "function"
    },
    {
      "constant": true,
      "inputs": [
        {
          "name": "_sanId",
          "type": "uint256"
        }
      ],
      "name": "getSanTimeLastMove",
      "outputs": [
        {
          "name": "",
          "type": "uint256"
        }
      ],
      "payable": false,
      "stateMutability": "view",
      "type": "function"
    },
    {
      "constant": true,
      "inputs": [
        {
          "name": "_sanId",
          "type": "uint256"
        }
      ],
      "name": "getSanPrevOwner",
      "outputs": [
        {
          "name": "",
          "type": "address"
        }
      ],
      "payable": false,
      "stateMutability": "view",
      "type": "function"
    },
    {
      "constant": true,
      "inputs": [
        {
          "name": "_sanName",
          "type": "string"
        }
      ],
      "name": "getAddressFromSan",
      "outputs": [
        {
          "name": "",
          "type": "address"
        }
      ],
      "payable": false,
      "stateMutability": "view",
      "type": "function"
    },
    {
      "constant": true,
      "inputs": [
        {
          "name": "_sanOwner",
          "type": "address"
        }
      ],
      "name": "getSanSlots",
      "outputs": [
        {
          "name": "",
          "type": "uint256"
        }
      ],
      "payable": false,
      "stateMutability": "view",
      "type": "function"
    },
    {
      "constant": true,
      "inputs": [
        {
          "name": "_sanName",
          "type": "string"
        }
      ],
      "name": "getSANitized",
      "outputs": [
        {
          "name": "",
          "type": "string"
        }
      ],
      "payable": false,
      "stateMutability": "view",
      "type": "function"
    },
    {
      "constant": false,
      "inputs": [
        {
          "name": "_sanOwner",
          "type": "address"
        },
        {
          "name": "_tip",
          "type": "uint256"
        }
      ],
      "name": "buySanSlot",
      "outputs": [
        {
          "name": "",
          "type": "bool"
        }
      ],
      "payable": false,
      "stateMutability": "nonpayable",
      "type": "function"
    },
    {
      "constant": false,
      "inputs": [
        {
          "name": "_sanId",
          "type": "uint256"
        },
        {
          "name": "_sanName",
          "type": "string"
        },
        {
          "name": "_prevOwner",
          "type": "address"
        },
        {
          "name": "_newOwner",
          "type": "address"
        }
      ],
      "name": "marketSale",
      "outputs": [],
      "payable": false,
      "stateMutability": "nonpayable",
      "type": "function"
    },
    {
      "constant": false,
      "inputs": [
        {
          "name": "_cost",
          "type": "uint256"
        }
      ],
      "name": "setSanTTTCost",
      "outputs": [],
      "payable": false,
      "stateMutability": "nonpayable",
      "type": "function"
    },
    {
      "constant": false,
      "inputs": [
        {
          "name": "_length",
          "type": "uint256"
        },
        {
          "name": "_pos",
          "type": "uint256"
        }
      ],
      "name": "setSanLength",
      "outputs": [],
      "payable": false,
      "stateMutability": "nonpayable",
      "type": "function"
    },
    {
      "constant": false,
      "inputs": [
        {
          "name": "_amount",
          "type": "uint256"
        }
      ],
      "name": "setSanMaxAmount",
      "outputs": [],
      "payable": false,
      "stateMutability": "nonpayable",
      "type": "function"
    },
    {
      "constant": false,
      "inputs": [
        {
          "name": "_sanOwner",
          "type": "address"
        },
        {
          "name": "_slotCount",
          "type": "uint256"
        }
      ],
      "name": "ownerAddSanSlot",
      "outputs": [],
      "payable": false,
      "stateMutability": "nonpayable",
      "type": "function"
    },
    {
      "constant": false,
      "inputs": [
        {
          "name": "_marketAddress",
          "type": "address"
        }
      ],
      "name": "setMarketAddress",
      "outputs": [],
      "payable": false,
      "stateMutability": "nonpayable",
      "type": "function"
    },
    {
      "constant": false,
      "inputs": [
        {
          "name": "_baseUrl",
          "type": "string"
        }
      ],
      "name": "setBaseUrl",
      "outputs": [],
      "payable": false,
      "stateMutability": "nonpayable",
      "type": "function"
    },
    {
      "constant": false,
      "inputs": [
        {
          "name": "_wallet",
          "type": "address"
        }
      ],
      "name": "setOwnerWallet",
      "outputs": [],
      "payable": false,
      "stateMutability": "nonpayable",
      "type": "function"
    },
    {
      "constant": false,
      "inputs": [
        {
          "name": "_sanId",
          "type": "uint256"
        },
        {
          "name": "_newUri",
          "type": "string"
        }
      ],
      "name": "updateTokenUri",
      "outputs": [],
      "payable": false,
      "stateMutability": "nonpayable",
      "type": "function"
    },
    {
      "constant": false,
      "inputs": [],
      "name": "emptyContract",
      "outputs": [],
      "payable": false,
      "stateMutability": "nonpayable",
      "type": "function"
    },
    {
      "constant": false,
      "inputs": [
        {
          "name": "_sanName",
          "type": "string"
        },
        {
          "name": "_sanageUri",
          "type": "string"
        },
        {
          "name": "_address",
          "type": "address"
        }
      ],
      "name": "specialSanMint",
      "outputs": [
        {
          "name": "",
          "type": "string"
        }
      ],
      "payable": false,
      "stateMutability": "nonpayable",
      "type": "function"
    }
  ],
  "bytecode": "0x6060604052735bcfcbde79895d3d6a115baf5386ae5463df2aaf600c60006101000a81548173ffffffffffffffffffffffffffffffffffffffff021916908373ffffffffffffffffffffffffffffffffffffffff160217905550733a518a5f5ac3f3dbf4ecd6b91dfbbb8422832996600d60006101000a81548173ffffffffffffffffffffffffffffffffffffffff021916908373ffffffffffffffffffffffffffffffffffffffff1602179055506040805190810160405280601f81526020017f68747470733a2f2f746865746970746f6b656e2e696f2f6172762f696d672f0081525060139080519060200190620000fb92919062000f85565b5034156200010857600080fd5b620001126200100c565b6200011c62001020565b60006040805190810160405280600681526020017f54545453414e00000000000000000000000000000000000000000000000000008152506040805190810160405280600481526020017f54545453000000000000000000000000000000000000000000000000000000008152508160049080519060200190620001a292919062000f85565b508060059080519060200190620001bb92919062000f85565b50505033600b60006101000a81548173ffffffffffffffffffffffffffffffffffffffff021916908373ffffffffffffffffffffffffffffffffffffffff160217905550671bc16d674ec80000600f819055506010808190555060026011819055506101f4601281905550600d60009054906101000a900473ffffffffffffffffffffffffffffffffffffffff16601b60006101000a81548173ffffffffffffffffffffffffffffffffffffffff021916908373ffffffffffffffffffffffffffffffffffffffff160217905550606060405190810160405280602881526020017f4e65766572476f6e6e6147697665596f7555702e4e65766572476f6e6e614c6581526020017f74596f75446f776e00000000000000000000000000000000000000000000000081525092506080604051908101604052808481526020014281526020014281526020013373ffffffffffffffffffffffffffffffffffffffff1681525091506001601a80548060010182816200033a919062001067565b9160005260206000209060040201600085909190915060008201518160000190805190602001906200036e9291906200109c565b50602082015181600101556040820151816002015560608201518160030160006101000a81548173ffffffffffffffffffffffffffffffffffffffff021916908373ffffffffffffffffffffffffffffffffffffffff16021790555050500390506200042681336040805190810160405280600981526020017f67656e302e6a706567000000000000000000000000000000000000000000000081525086620004b5640100000000026200395c176401000000009004565b60016014846040518082805190602001908083835b6020831015156200046257805182526020820191506020810190506020830392506200043b565b6001836020036101000a038019825116818451168082178552505050505050905001915050908152602001604051809103902060006101000a81548160ff021916908315150217905550505050620012b9565b601254601660008573ffffffffffffffffffffffffffffffffffffffff1673ffffffffffffffffffffffffffffffffffffffff168152602001908152602001600020541015156200050257fe5b620005228385620009216401000000000262004899176401000000009004565b620005ff84620005e560138054600181600116156101000203166002900480601f016020809104026020016040519081016040528092919081815260200182805460018160011615610100020316600290048015620005c55780601f106200059957610100808354040283529160200191620005c5565b820191906000526020600020905b815481529060010190602001808311620005a757829003601f168201915b5050505050856200098d64010000000002620048ed176401000000009004565b62000b806401000000000262004acd176401000000009004565b836017826040518082805190602001908083835b6020831015156200063a578051825260208201915060208101905060208303925062000613565b6001836020036101000a038019825116818451168082178552505050505050905001915050908152602001604051809103902081905550826018826040518082805190602001908083835b602083101515620006ac578051825260208201915060208101905060208303925062000685565b6001836020036101000a038019825116818451168082178552505050505050905001915050908152602001604051809103902060006101000a81548173ffffffffffffffffffffffffffffffffffffffff021916908373ffffffffffffffffffffffffffffffffffffffff160217905550601960008473ffffffffffffffffffffffffffffffffffffffff1673ffffffffffffffffffffffffffffffffffffffff168152602001908152602001600020805480600101828162000770919062001123565b9160005260206000209001600083909190915090805190602001906200079892919062000f85565b5050620007fd6001601660008673ffffffffffffffffffffffffffffffffffffffff1673ffffffffffffffffffffffffffffffffffffffff1681526020019081526020016000205462000bd9640100000000026200435c179091906401000000009004565b601660008573ffffffffffffffffffffffffffffffffffffffff1673ffffffffffffffffffffffffffffffffffffffff168152602001908152602001600020819055507fdf5fffc2bd8c53e0c41aa67368817a9fb69561752c912bb1fa2e04d64d564f55838583604051808473ffffffffffffffffffffffffffffffffffffffff1673ffffffffffffffffffffffffffffffffffffffff16815260200183815260200180602001828103825283818151815260200191508051906020019080838360005b83811015620008de578082015181840152602081019050620008c1565b50505050905090810190601f1680156200090c5780820380516001836020036101000a031916815260200191505b5094505050505060405180910390a150505050565b62000941828262000bf86401000000000262004c5e176401000000009004565b60088054905060096000838152602001908152602001600020819055506008805480600101828162000974919062001152565b9160005260206000209001600083909190915055505050565b620009976200100c565b620009a162001181565b620009ab62001181565b620009b56200100c565b620009bf62001181565b6000808895508794508451865101604051805910620009db5750595b9080825280601f01601f1916602001820160405250935083925060009150600090505b855181101562000ab557858181518110151562000a1757fe5b9060200101517f010000000000000000000000000000000000000000000000000000000000000090047f010000000000000000000000000000000000000000000000000000000000000002838380600101945081518110151562000a7757fe5b9060200101907effffffffffffffffffffffffffffffffffffffffffffffffffffffffffffff1916908160001a9053508080600101915050620009fe565b600090505b845181101562000b7157848181518110151562000ad357fe5b9060200101517f010000000000000000000000000000000000000000000000000000000000000090047f010000000000000000000000000000000000000000000000000000000000000002838380600101945081518110151562000b3357fe5b9060200101907effffffffffffffffffffffffffffffffffffffffffffffffffffffffffffff1916908160001a905350808060010191505062000aba565b82965050505050505092915050565b62000b9f8262000cbf6401000000000262001ed0176401000000009004565b151562000bab57600080fd5b80600a6000848152602001908152602001600020908051906020019062000bd492919062000f85565b505050565b600080828401905083811015151562000bee57fe5b8091505092915050565b600073ffffffffffffffffffffffffffffffffffffffff168273ffffffffffffffffffffffffffffffffffffffff161415151562000c3557600080fd5b62000c55828262000d306401000000000262003888176401000000009004565b8173ffffffffffffffffffffffffffffffffffffffff16600073ffffffffffffffffffffffffffffffffffffffff167fddf252ad1be2c89b69c2b068fc378daa952ba7f163c4a11628f55a4df523b3ef836040518082815260200191505060405180910390a35050565b60008060008084815260200190815260200160002060009054906101000a900473ffffffffffffffffffffffffffffffffffffffff169050600073ffffffffffffffffffffffffffffffffffffffff168173ffffffffffffffffffffffffffffffffffffffff161415915050919050565b600062000d52838362000e1c6401000000000262004741176401000000009004565b600660008473ffffffffffffffffffffffffffffffffffffffff1673ffffffffffffffffffffffffffffffffffffffff168152602001908152602001600020805490509050600660008473ffffffffffffffffffffffffffffffffffffffff1673ffffffffffffffffffffffffffffffffffffffff168152602001908152602001600020805480600101828162000dea919062001152565b916000526020600020900160008490919091505550806007600084815260200190815260200160002081905550505050565b600073ffffffffffffffffffffffffffffffffffffffff1660008083815260200190815260200160002060009054906101000a900473ffffffffffffffffffffffffffffffffffffffff1673ffffffffffffffffffffffffffffffffffffffff1614151562000e8a57600080fd5b8160008083815260200190815260200160002060006101000a81548173ffffffffffffffffffffffffffffffffffffffff021916908373ffffffffffffffffffffffffffffffffffffffff16021790555062000f3e6001600260008573ffffffffffffffffffffffffffffffffffffffff1673ffffffffffffffffffffffffffffffffffffffff1681526020019081526020016000205462000bd9640100000000026200435c179091906401000000009004565b600260008473ffffffffffffffffffffffffffffffffffffffff1673ffffffffffffffffffffffffffffffffffffffff168152602001908152602001600020819055505050565b828054600181600116156101000203166002900490600052602060002090601f016020900481019282601f1062000fc857805160ff191683800117855562000ff9565b8280016001018555821562000ff9579182015b8281111562000ff857825182559160200191906001019062000fdb565b5b50905062001008919062001195565b5090565b602060405190810160405280600081525090565b60806040519081016040528062001036620011bd565b81526020016000815260200160008152602001600073ffffffffffffffffffffffffffffffffffffffff1681525090565b8154818355818115116200109757600402816004028360005260206000209182019101620010969190620011d1565b5b505050565b828054600181600116156101000203166002900490600052602060002090601f016020900481019282601f10620010df57805160ff191683800117855562001110565b8280016001018555821562001110579182015b828111156200110f578251825591602001919060010190620010f2565b5b5090506200111f919062001195565b5090565b8154818355818115116200114d578183600052602060002091820191016200114c91906200123c565b5b505050565b8154818355818115116200117c578183600052602060002091820191016200117b919062001195565b5b505050565b602060405190810160405280600081525090565b620011ba91905b80821115620011b65760008160009055506001016200119c565b5090565b90565b602060405190810160405280600081525090565b6200123991905b80821115620012355760008082016000620011f491906200126d565b600182016000905560028201600090556003820160006101000a81549073ffffffffffffffffffffffffffffffffffffffff021916905550600401620011d8565b5090565b90565b6200126a91905b808211156200126657600081816200125c91906200126d565b5060010162001243565b5090565b90565b50805460018160011615610100020316600290046000825580601f10620012955750620012b6565b601f016020900490600052602060002090810190620012b5919062001195565b5b50565b61507080620012c96000396000f300606060405260043610610251576000357c0100000000000000000000000000000000000000000000000000000000900463ffffffff16806306fdde0314610256578063081812fc146102e4578063095ea7b31461034757806310adb0ea1461038957806318160ddd146103b257806319236b4e146103db5780632317f9f31461041257806323b872dd146104355780632712d916146104965780632f745c59146104b95780633289fba61461050f57806332c35352146105725780633303a9d8146105e757806341c838cb146106c157806342842e0e1461076857806347f5666f146107c95780634f558e791461083a5780634f6ccce71461087557806350b79722146108ac578063521eb273146108d85780635bcabf041461092d5780636352211e146109bb578063682ed9ea14610a1e5780636dd6e67314610a4757806370a0823114610aa15780638da5cb5b14610aee5780639562364114610b4357806395d89b4114610b98578063a22cb46514610c26578063a64ded3114610c6a578063a9eeaeee14610cbf578063aaf4991014610d0c578063ab91154e14610d35578063b70fadb714610d77578063b88d4fde14610e14578063bb542ef014610eb8578063be9ddfed14610ef1578063c294c93b14610f28578063c30d9a7e14610f8b578063c7c3268b14611068578063c87b56dd146110c5578063d31af48414611161578063d812d961146111c7578063d88905fa14611263578063e3a8b3451461131e578063e985e9c514611333578063f2fde38b146113a3578063f569626d146113dc578063fae9261214611405575b600080fd5b341561026157600080fd5b61026961143e565b6040518080602001828103825283818151815260200191508051906020019080838360005b838110156102a957808201518184015260208101905061028e565b50505050905090810190601f1680156102d65780820380516001836020036101000a031916815260200191505b509250505060405180910390f35b34156102ef57600080fd5b61030560048080359060200190919050506114e6565b604051808273ffffffffffffffffffffffffffffffffffffffff1673ffffffffffffffffffffffffffffffffffffffff16815260200191505060405180910390f35b341561035257600080fd5b610387600480803573ffffffffffffffffffffffffffffffffffffffff16906020019091908035906020019091905050611523565b005b341561039457600080fd5b61039c6116e9565b6040518082815260200191505060405180910390f35b34156103bd57600080fd5b6103c56116ef565b6040518082815260200191505060405180910390f35b34156103e657600080fd5b6103fc60048080359060200190919050506116fc565b6040518082815260200191505060405180910390f35b341561041d57600080fd5b6104336004808035906020019091905050611726565b005b341561044057600080fd5b610494600480803573ffffffffffffffffffffffffffffffffffffffff1690602001909190803573ffffffffffffffffffffffffffffffffffffffff1690602001909190803590602001909190505061178c565b005b34156104a157600080fd5b6104b760048080359060200190919050506118a3565b005b34156104c457600080fd5b6104f9600480803573ffffffffffffffffffffffffffffffffffffffff16906020019091908035906020019091905050611918565b6040518082815260200191505060405180910390f35b341561051a57600080fd5b6105306004808035906020019091905050611990565b604051808273ffffffffffffffffffffffffffffffffffffffff1673ffffffffffffffffffffffffffffffffffffffff16815260200191505060405180910390f35b341561057d57600080fd5b6105e56004808035906020019091908035906020019082018035906020019190919290803573ffffffffffffffffffffffffffffffffffffffff1690602001909190803573ffffffffffffffffffffffffffffffffffffffff169060200190919050506119da565b005b34156105f257600080fd5b61064660048080359060200190820180359060200191909192908035906020019082018035906020019190919290803573ffffffffffffffffffffffffffffffffffffffff16906020019091905050611b06565b6040518080602001828103825283818151815260200191508051906020019080838360005b8381101561068657808201518184015260208101905061066b565b50505050905090810190601f1680156106b35780820380516001836020036101000a031916815260200191505b509250505060405180910390f35b34156106cc57600080fd5b6106ed60048080359060200190820180359060200191909192905050611d39565b6040518080602001828103825283818151815260200191508051906020019080838360005b8381101561072d578082015181840152602081019050610712565b50505050905090810190601f16801561075a5780820380516001836020036101000a031916815260200191505b509250505060405180910390f35b341561077357600080fd5b6107c7600480803573ffffffffffffffffffffffffffffffffffffffff1690602001909190803573ffffffffffffffffffffffffffffffffffffffff16906020019091908035906020019091905050611e23565b005b34156107d457600080fd5b610824600480803590602001908201803590602001908080601f01602080910402602001604051908101604052809392919081815260200183838082843782019150505050505091905050611e5b565b6040518082815260200191505060405180910390f35b341561084557600080fd5b61085b6004808035906020019091905050611ed0565b604051808215151515815260200191505060405180910390f35b341561088057600080fd5b6108966004808035906020019091905050611f41565b6040518082815260200191505060405180910390f35b34156108b757600080fd5b6108d66004808035906020019091908035906020019091905050611f7a565b005b34156108e357600080fd5b6108eb612006565b604051808273ffffffffffffffffffffffffffffffffffffffff1673ffffffffffffffffffffffffffffffffffffffff16815260200191505060405180910390f35b341561093857600080fd5b61094061202c565b6040518080602001828103825283818151815260200191508051906020019080838360005b83811015610980578082015181840152602081019050610965565b50505050905090810190601f1680156109ad5780820380516001836020036101000a031916815260200191505b509250505060405180910390f35b34156109c657600080fd5b6109dc60048080359060200190919050506120ca565b604051808273ffffffffffffffffffffffffffffffffffffffff1673ffffffffffffffffffffffffffffffffffffffff16815260200191505060405180910390f35b3415610a2957600080fd5b610a31612147565b6040518082815260200191505060405180910390f35b3415610a5257600080fd5b610a87600480803573ffffffffffffffffffffffffffffffffffffffff1690602001909190803590602001909190505061214d565b604051808215151515815260200191505060405180910390f35b3415610aac57600080fd5b610ad8600480803573ffffffffffffffffffffffffffffffffffffffff1690602001909190505061239e565b6040518082815260200191505060405180910390f35b3415610af957600080fd5b610b01612422565b604051808273ffffffffffffffffffffffffffffffffffffffff1673ffffffffffffffffffffffffffffffffffffffff16815260200191505060405180910390f35b3415610b4e57600080fd5b610b56612448565b604051808273ffffffffffffffffffffffffffffffffffffffff1673ffffffffffffffffffffffffffffffffffffffff16815260200191505060405180910390f35b3415610ba357600080fd5b610bab61246e565b6040518080602001828103825283818151815260200191508051906020019080838360005b83811015610beb578082015181840152602081019050610bd0565b50505050905090810190601f168015610c185780820380516001836020036101000a031916815260200191505b509250505060405180910390f35b3415610c3157600080fd5b610c68600480803573ffffffffffffffffffffffffffffffffffffffff169060200190919080351515906020019091905050612516565b005b3415610c7557600080fd5b610c7d612652565b604051808273ffffffffffffffffffffffffffffffffffffffff1673ffffffffffffffffffffffffffffffffffffffff16815260200191505060405180910390f35b3415610cca57600080fd5b610cf6600480803573ffffffffffffffffffffffffffffffffffffffff16906020019091905050612678565b6040518082815260200191505060405180910390f35b3415610d1757600080fd5b610d1f6126c1565b6040518082815260200191505060405180910390f35b3415610d4057600080fd5b610d75600480803573ffffffffffffffffffffffffffffffffffffffff169060200190919080359060200190919050506126c7565b005b3415610d8257600080fd5b610dd2600480803590602001908201803590602001908080601f016020809104026020016040519081016040528093929190818152602001838380828437820191505050505050919050506127cb565b604051808273ffffffffffffffffffffffffffffffffffffffff1673ffffffffffffffffffffffffffffffffffffffff16815260200191505060405180910390f35b3415610e1f57600080fd5b610eb6600480803573ffffffffffffffffffffffffffffffffffffffff1690602001909190803573ffffffffffffffffffffffffffffffffffffffff1690602001909190803590602001909190803590602001908201803590602001908080601f01602080910402602001604051908101604052809392919081815260200183838082843782019150505050505091905050612860565b005b3415610ec357600080fd5b610eef600480803573ffffffffffffffffffffffffffffffffffffffff1690602001909190505061289f565b005b3415610efc57600080fd5b610f12600480803590602001909190505061293f565b6040518082815260200191505060405180910390f35b3415610f3357600080fd5b610f496004808035906020019091905050612969565b604051808273ffffffffffffffffffffffffffffffffffffffff1673ffffffffffffffffffffffffffffffffffffffff16815260200191505060405180910390f35b3415610f9657600080fd5b610fac600480803590602001909190505061297b565b60405180806020018581526020018481526020018373ffffffffffffffffffffffffffffffffffffffff1673ffffffffffffffffffffffffffffffffffffffff168152602001828103825286818151815260200191508051906020019080838360005b8381101561102a57808201518184015260208101905061100f565b50505050905090810190601f1680156110575780820380516001836020036101000a031916815260200191505b509550505050505060405180910390f35b341561107357600080fd5b6110c3600480803590602001908201803590602001908080601f01602080910402602001604051908101604052809392919081815260200183838082843782019150505050505091905050612a72565b005b34156110d057600080fd5b6110e66004808035906020019091905050612ae8565b6040518080602001828103825283818151815260200191508051906020019080838360005b8381101561112657808201518184015260208101905061110b565b50505050905090810190601f1680156111535780820380516001836020036101000a031916815260200191505b509250505060405180910390f35b341561116c57600080fd5b6111c5600480803590602001909190803590602001908201803590602001908080601f01602080910402602001604051908101604052809392919081815260200183838082843782019150505050505091905050612bb7565b005b34156111d257600080fd5b6111e86004808035906020019091905050612c17565b6040518080602001828103825283818151815260200191508051906020019080838360005b8381101561122857808201518184015260208101905061120d565b50505050905090810190601f1680156112555780820380516001836020036101000a031916815260200191505b509250505060405180910390f35b341561126e57600080fd5b6112a3600480803590602001908201803590602001919091929080359060200190820180359060200191909192905050612cdf565b6040518080602001828103825283818151815260200191508051906020019080838360005b838110156112e35780820151818401526020810190506112c8565b50505050905090810190601f1680156113105780820380516001836020036101000a031916815260200191505b509250505060405180910390f35b341561132957600080fd5b611331612fcb565b005b341561133e57600080fd5b611389600480803573ffffffffffffffffffffffffffffffffffffffff1690602001909190803573ffffffffffffffffffffffffffffffffffffffff169060200190919050506131dd565b604051808215151515815260200191505060405180910390f35b34156113ae57600080fd5b6113da600480803573ffffffffffffffffffffffffffffffffffffffff16906020019091905050613271565b005b34156113e757600080fd5b6113ef6133c9565b6040518082815260200191505060405180910390f35b341561141057600080fd5b61143c600480803573ffffffffffffffffffffffffffffffffffffffff169060200190919050506133cf565b005b611446614d0e565b60048054600181600116156101000203166002900480601f0160208091040260200160405190810160405280929190818152602001828054600181600116156101000203166002900480156114dc5780601f106114b1576101008083540402835291602001916114dc565b820191906000526020600020905b8154815290600101906020018083116114bf57829003601f168201915b5050505050905090565b60006001600083815260200190815260200160002060009054906101000a900473ffffffffffffffffffffffffffffffffffffffff169050919050565b600061152e826120ca565b90508073ffffffffffffffffffffffffffffffffffffffff168373ffffffffffffffffffffffffffffffffffffffff161415151561156b57600080fd5b8073ffffffffffffffffffffffffffffffffffffffff163373ffffffffffffffffffffffffffffffffffffffff1614806115ab57506115aa81336131dd565b5b15156115b657600080fd5b600073ffffffffffffffffffffffffffffffffffffffff166115d7836114e6565b73ffffffffffffffffffffffffffffffffffffffff161415806116275750600073ffffffffffffffffffffffffffffffffffffffff168373ffffffffffffffffffffffffffffffffffffffff1614155b156116e457826001600084815260200190815260200160002060006101000a81548173ffffffffffffffffffffffffffffffffffffffff021916908373ffffffffffffffffffffffffffffffffffffffff1602179055508273ffffffffffffffffffffffffffffffffffffffff168173ffffffffffffffffffffffffffffffffffffffff167f8c5be1e5ebec7d5bd14f71427d1e84f3dd0314c0f7b2291e5b200ac8c7c3b925846040518082815260200191505060405180910390a35b505050565b60105481565b6000600880549050905090565b6000601a8281548110151561170d57fe5b9060005260206000209060040201600101549050919050565b600b60009054906101000a900473ffffffffffffffffffffffffffffffffffffffff1673ffffffffffffffffffffffffffffffffffffffff163373ffffffffffffffffffffffffffffffffffffffff1614151561178257600080fd5b8060128190555050565b80611797338261346f565b15156117a257600080fd5b600073ffffffffffffffffffffffffffffffffffffffff168473ffffffffffffffffffffffffffffffffffffffff16141515156117de57600080fd5b600073ffffffffffffffffffffffffffffffffffffffff168373ffffffffffffffffffffffffffffffffffffffff161415151561181a57600080fd5b6118248483613504565b61182e848361366d565b6118388383613888565b8273ffffffffffffffffffffffffffffffffffffffff168473ffffffffffffffffffffffffffffffffffffffff167fddf252ad1be2c89b69c2b068fc378daa952ba7f163c4a11628f55a4df523b3ef846040518082815260200191505060405180910390a350505050565b600b60009054906101000a900473ffffffffffffffffffffffffffffffffffffffff1673ffffffffffffffffffffffffffffffffffffffff163373ffffffffffffffffffffffffffffffffffffffff161415156118ff57600080fd5b60008111151561190e57600080fd5b80600f8190555050565b60006119238361239e565b8210151561193057600080fd5b600660008473ffffffffffffffffffffffffffffffffffffffff1673ffffffffffffffffffffffffffffffffffffffff1681526020019081526020016000208281548110151561197c57fe5b906000526020600020900154905092915050565b6000601a828154811015156119a157fe5b906000526020600020906004020160030160009054906101000a900473ffffffffffffffffffffffffffffffffffffffff169050919050565b6000600e60009054906101000a900473ffffffffffffffffffffffffffffffffffffffff1673ffffffffffffffffffffffffffffffffffffffff163373ffffffffffffffffffffffffffffffffffffffff16141515611a3857600080fd5b601a86815481101515611a4757fe5b90600052602060002090600402019050828160030160006101000a81548173ffffffffffffffffffffffffffffffffffffffff021916908373ffffffffffffffffffffffffffffffffffffffff160217905550816018868660405180838380828437820191505092505050908152602001604051809103902060006101000a81548173ffffffffffffffffffffffffffffffffffffffff021916908373ffffffffffffffffffffffffffffffffffffffff160217905550505050505050565b611b0e614d0e565b611b16614d22565b6000600b60009054906101000a900473ffffffffffffffffffffffffffffffffffffffff1673ffffffffffffffffffffffffffffffffffffffff163373ffffffffffffffffffffffffffffffffffffffff16141515611b7457600080fd5b60806040519081016040528089898080601f01602080910402602001604051908101604052809392919081815260200183838082843782019150505050505081526020014281526020014281526020018573ffffffffffffffffffffffffffffffffffffffff1681525091506001601a8054806001018281611bf69190614d67565b916000526020600020906004020160008590919091506000820151816000019080519060200190611c28929190614d99565b50602082015181600101556040820151816002015560608201518160030160006101000a81548173ffffffffffffffffffffffffffffffffffffffff021916908373ffffffffffffffffffffffffffffffffffffffff1602179055505050039050611cf9818588888080601f0160208091040260200160405190810160405280939291908181526020018383808284378201915050505050508b8b8080601f01602080910402602001604051908101604052809392919081815260200183838082843782019150505050505061395c565b87878080601f0160208091040260200160405190810160405280939291908181526020018383808284378201915050505050509250505095945050505050565b611d41614d0e565b611d49614d0e565b611d8484848080601f016020809104026020016040519081016040528093929190818152602001838380828437820191505050505050613d66565b9050611d8f81613e3f565b1515611d9757fe5b6014816040518082805190602001908083835b602083101515611dcf5780518252602082019150602081019050602083039250611daa565b6001836020036101000a038019825116818451168082178552505050505050905001915050908152602001604051809103902060009054906101000a900460ff16151515611e1957fe5b8091505092915050565b80611e2e338261346f565b1515611e3957600080fd5b611e558484846020604051908101604052806000815250612860565b50505050565b60006017826040518082805190602001908083835b602083101515611e955780518252602082019150602081019050602083039250611e70565b6001836020036101000a0380198251168184511680821785525050505050509050019150509081526020016040518091039020549050919050565b60008060008084815260200190815260200160002060009054906101000a900473ffffffffffffffffffffffffffffffffffffffff169050600073ffffffffffffffffffffffffffffffffffffffff168173ffffffffffffffffffffffffffffffffffffffff161415915050919050565b6000611f4b6116ef565b82101515611f5857600080fd5b600882815481101515611f6757fe5b9060005260206000209001549050919050565b600b60009054906101000a900473ffffffffffffffffffffffffffffffffffffffff1673ffffffffffffffffffffffffffffffffffffffff163373ffffffffffffffffffffffffffffffffffffffff16141515611fd657600080fd5b600082111515611fe557600080fd5b6000811415611ffa5781601181905550612002565b816010819055505b5050565b600c60009054906101000a900473ffffffffffffffffffffffffffffffffffffffff1681565b60138054600181600116156101000203166002900480601f0160208091040260200160405190810160405280929190818152602001828054600181600116156101000203166002900480156120c25780601f10612097576101008083540402835291602001916120c2565b820191906000526020600020905b8154815290600101906020018083116120a557829003601f168201915b505050505081565b60008060008084815260200190815260200160002060009054906101000a900473ffffffffffffffffffffffffffffffffffffffff169050600073ffffffffffffffffffffffffffffffffffffffff168173ffffffffffffffffffffffffffffffffffffffff161415151561213e57600080fd5b80915050919050565b60125481565b6000600f54821015151561216057600080fd5b6121b36001601560008673ffffffffffffffffffffffffffffffffffffffff1673ffffffffffffffffffffffffffffffffffffffff1681526020019081526020016000205461435c90919063ffffffff16565b601560008573ffffffffffffffffffffffffffffffffffffffff1673ffffffffffffffffffffffffffffffffffffffff16815260200190815260200160002081905550601b60009054906101000a900473ffffffffffffffffffffffffffffffffffffffff1673ffffffffffffffffffffffffffffffffffffffff166323b872dd33600c60009054906101000a900473ffffffffffffffffffffffffffffffffffffffff16856040518463ffffffff167c0100000000000000000000000000000000000000000000000000000000028152600401808473ffffffffffffffffffffffffffffffffffffffff1673ffffffffffffffffffffffffffffffffffffffff1681526020018373ffffffffffffffffffffffffffffffffffffffff1673ffffffffffffffffffffffffffffffffffffffff1681526020018281526020019350505050602060405180830381600087803b151561231057600080fd5b5af1151561231d57600080fd5b50505060405180519050507fb7291109bebadf61b269207c984079ae48cb4bf5f4637cf927f201864b7a72bd836001604051808373ffffffffffffffffffffffffffffffffffffffff1673ffffffffffffffffffffffffffffffffffffffff1681526020018281526020019250505060405180910390a16001905092915050565b60008073ffffffffffffffffffffffffffffffffffffffff168273ffffffffffffffffffffffffffffffffffffffff16141515156123db57600080fd5b600260008373ffffffffffffffffffffffffffffffffffffffff1673ffffffffffffffffffffffffffffffffffffffff168152602001908152602001600020549050919050565b600b60009054906101000a900473ffffffffffffffffffffffffffffffffffffffff1681565b600e60009054906101000a900473ffffffffffffffffffffffffffffffffffffffff1681565b612476614d0e565b60058054600181600116156101000203166002900480601f01602080910402602001604051908101604052809291908181526020018280546001816001161561010002031660029004801561250c5780601f106124e15761010080835404028352916020019161250c565b820191906000526020600020905b8154815290600101906020018083116124ef57829003601f168201915b5050505050905090565b3373ffffffffffffffffffffffffffffffffffffffff168273ffffffffffffffffffffffffffffffffffffffff161415151561255157600080fd5b80600360003373ffffffffffffffffffffffffffffffffffffffff1673ffffffffffffffffffffffffffffffffffffffff16815260200190815260200160002060008473ffffffffffffffffffffffffffffffffffffffff1673ffffffffffffffffffffffffffffffffffffffff16815260200190815260200160002060006101000a81548160ff0219169083151502179055508173ffffffffffffffffffffffffffffffffffffffff163373ffffffffffffffffffffffffffffffffffffffff167f17307eab39ab6107e8899845ad3d59bd9653f200f220920489ca2b5937696c3183604051808215151515815260200191505060405180910390a35050565b600d60009054906101000a900473ffffffffffffffffffffffffffffffffffffffff1681565b6000601560008373ffffffffffffffffffffffffffffffffffffffff1673ffffffffffffffffffffffffffffffffffffffff168152602001908152602001600020549050919050565b60115481565b600b60009054906101000a900473ffffffffffffffffffffffffffffffffffffffff1673ffffffffffffffffffffffffffffffffffffffff163373ffffffffffffffffffffffffffffffffffffffff1614151561272357600080fd5b60008111151561273257600080fd5b61278481601560008573ffffffffffffffffffffffffffffffffffffffff1673ffffffffffffffffffffffffffffffffffffffff1681526020019081526020016000205461435c90919063ffffffff16565b601560008473ffffffffffffffffffffffffffffffffffffffff1673ffffffffffffffffffffffffffffffffffffffff168152602001908152602001600020819055505050565b60006018826040518082805190602001908083835b60208310151561280557805182526020820191506020810190506020830392506127e0565b6001836020036101000a038019825116818451168082178552505050505050905001915050908152602001604051809103902060009054906101000a900473ffffffffffffffffffffffffffffffffffffffff169050919050565b8161286b338261346f565b151561287657600080fd5b61288185858561178c565b61288d8585858561437a565b151561289857600080fd5b5050505050565b600b60009054906101000a900473ffffffffffffffffffffffffffffffffffffffff1673ffffffffffffffffffffffffffffffffffffffff163373ffffffffffffffffffffffffffffffffffffffff161415156128fb57600080fd5b80600c60006101000a81548173ffffffffffffffffffffffffffffffffffffffff021916908373ffffffffffffffffffffffffffffffffffffffff16021790555050565b6000601a8281548110151561295057fe5b9060005260206000209060040201600201549050919050565b6000612974826120ca565b9050919050565b601a8181548110151561298a57fe5b9060005260206000209060040201600091509050806000018054600181600116156101000203166002900480601f016020809104026020016040519081016040528092919081815260200182805460018160011615610100020316600290048015612a365780601f10612a0b57610100808354040283529160200191612a36565b820191906000526020600020905b815481529060010190602001808311612a1957829003601f168201915b5050505050908060010154908060020154908060030160009054906101000a900473ffffffffffffffffffffffffffffffffffffffff16905084565b600b60009054906101000a900473ffffffffffffffffffffffffffffffffffffffff1673ffffffffffffffffffffffffffffffffffffffff163373ffffffffffffffffffffffffffffffffffffffff16141515612ace57600080fd5b8060139080519060200190612ae4929190614e19565b5050565b612af0614d0e565b612af982611ed0565b1515612b0457600080fd5b600a60008381526020019081526020016000208054600181600116156101000203166002900480601f016020809104026020016040519081016040528092919081815260200182805460018160011615610100020316600290048015612bab5780601f10612b8057610100808354040283529160200191612bab565b820191906000526020600020905b815481529060010190602001808311612b8e57829003601f168201915b50505050509050919050565b600b60009054906101000a900473ffffffffffffffffffffffffffffffffffffffff1673ffffffffffffffffffffffffffffffffffffffff163373ffffffffffffffffffffffffffffffffffffffff16141515612c1357600080fd5b5050565b612c1f614d0e565b601a82815481101515612c2e57fe5b90600052602060002090600402016000018054600181600116156101000203166002900480601f016020809104026020016040519081016040528092919081815260200182805460018160011615610100020316600290048015612cd35780601f10612ca857610100808354040283529160200191612cd3565b820191906000526020600020905b815481529060010190602001808311612cb657829003601f168201915b50505050509050919050565b612ce7614d0e565b612cef614d0e565b612cf7614d22565b60006001601560003373ffffffffffffffffffffffffffffffffffffffff1673ffffffffffffffffffffffffffffffffffffffff1681526020019081526020016000205410151515612d4557fe5b612d8088888080601f016020809104026020016040519081016040528093929190818152602001838380828437820191505050505050614543565b92506080604051908101604052808481526020014281526020014281526020013373ffffffffffffffffffffffffffffffffffffffff1681525091506001601a8054806001018281612dd29190614d67565b916000526020600020906004020160008590919091506000820151816000019080519060200190612e04929190614d99565b50602082015181600101556040820151816002015560608201518160030160006101000a81548173ffffffffffffffffffffffffffffffffffffffff021916908373ffffffffffffffffffffffffffffffffffffffff1602179055505050039050612ea3813388888080601f0160208091040260200160405190810160405280939291908181526020018383808284378201915050505050508661395c565b60016014846040518082805190602001908083835b602083101515612edd5780518252602082019150602081019050602083039250612eb8565b6001836020036101000a038019825116818451168082178552505050505050905001915050908152602001604051809103902060006101000a81548160ff021916908315150217905550612f7a6001601560003373ffffffffffffffffffffffffffffffffffffffff1673ffffffffffffffffffffffffffffffffffffffff168152602001908152602001600020546145fa90919063ffffffff16565b601560003373ffffffffffffffffffffffffffffffffffffffff1673ffffffffffffffffffffffffffffffffffffffff16815260200190815260200160002081905550829350505050949350505050565b6000600b60009054906101000a900473ffffffffffffffffffffffffffffffffffffffff1673ffffffffffffffffffffffffffffffffffffffff163373ffffffffffffffffffffffffffffffffffffffff1614151561302957600080fd5b601b60009054906101000a900473ffffffffffffffffffffffffffffffffffffffff1673ffffffffffffffffffffffffffffffffffffffff166370a08231306040518263ffffffff167c0100000000000000000000000000000000000000000000000000000000028152600401808273ffffffffffffffffffffffffffffffffffffffff1673ffffffffffffffffffffffffffffffffffffffff168152602001915050602060405180830381600087803b15156130e557600080fd5b5af115156130f257600080fd5b505050604051805190509050601b60009054906101000a900473ffffffffffffffffffffffffffffffffffffffff1673ffffffffffffffffffffffffffffffffffffffff1663a9059cbb33836040518363ffffffff167c0100000000000000000000000000000000000000000000000000000000028152600401808373ffffffffffffffffffffffffffffffffffffffff1673ffffffffffffffffffffffffffffffffffffffff16815260200182815260200192505050602060405180830381600087803b15156131c257600080fd5b5af115156131cf57600080fd5b505050604051805190505050565b6000600360008473ffffffffffffffffffffffffffffffffffffffff1673ffffffffffffffffffffffffffffffffffffffff16815260200190815260200160002060008373ffffffffffffffffffffffffffffffffffffffff1673ffffffffffffffffffffffffffffffffffffffff16815260200190815260200160002060009054906101000a900460ff16905092915050565b600b60009054906101000a900473ffffffffffffffffffffffffffffffffffffffff1673ffffffffffffffffffffffffffffffffffffffff163373ffffffffffffffffffffffffffffffffffffffff161415156132cd57600080fd5b600073ffffffffffffffffffffffffffffffffffffffff168173ffffffffffffffffffffffffffffffffffffffff161415151561330957600080fd5b8073ffffffffffffffffffffffffffffffffffffffff16600b60009054906101000a900473ffffffffffffffffffffffffffffffffffffffff1673ffffffffffffffffffffffffffffffffffffffff167f8be0079c531659141344cd1fd0a4f28419497f9722a3daafe3b4186f6b6457e060405160405180910390a380600b60006101000a81548173ffffffffffffffffffffffffffffffffffffffff021916908373ffffffffffffffffffffffffffffffffffffffff16021790555050565b600f5481565b600b60009054906101000a900473ffffffffffffffffffffffffffffffffffffffff1673ffffffffffffffffffffffffffffffffffffffff163373ffffffffffffffffffffffffffffffffffffffff1614151561342b57600080fd5b80600e60006101000a81548173ffffffffffffffffffffffffffffffffffffffff021916908373ffffffffffffffffffffffffffffffffffffffff16021790555050565b60008061347b836120ca565b90508073ffffffffffffffffffffffffffffffffffffffff168473ffffffffffffffffffffffffffffffffffffffff1614806134ea57508373ffffffffffffffffffffffffffffffffffffffff166134d2846114e6565b73ffffffffffffffffffffffffffffffffffffffff16145b806134fb57506134fa81856131dd565b5b91505092915050565b8173ffffffffffffffffffffffffffffffffffffffff16613524826120ca565b73ffffffffffffffffffffffffffffffffffffffff1614151561354657600080fd5b600073ffffffffffffffffffffffffffffffffffffffff166001600083815260200190815260200160002060009054906101000a900473ffffffffffffffffffffffffffffffffffffffff1673ffffffffffffffffffffffffffffffffffffffff161415156136695760006001600083815260200190815260200160002060006101000a81548173ffffffffffffffffffffffffffffffffffffffff021916908373ffffffffffffffffffffffffffffffffffffffff160217905550600073ffffffffffffffffffffffffffffffffffffffff168273ffffffffffffffffffffffffffffffffffffffff167f8c5be1e5ebec7d5bd14f71427d1e84f3dd0314c0f7b2291e5b200ac8c7c3b925836040518082815260200191505060405180910390a35b5050565b600080600061367c8585614613565b600760008581526020019081526020016000205492506136e86001600660008873ffffffffffffffffffffffffffffffffffffffff1673ffffffffffffffffffffffffffffffffffffffff168152602001908152602001600020805490506145fa90919063ffffffff16565b9150600660008673ffffffffffffffffffffffffffffffffffffffff1673ffffffffffffffffffffffffffffffffffffffff1681526020019081526020016000208281548110151561373657fe5b906000526020600020900154905080600660008773ffffffffffffffffffffffffffffffffffffffff1673ffffffffffffffffffffffffffffffffffffffff1681526020019081526020016000208481548110151561379157fe5b9060005260206000209001819055506000600660008773ffffffffffffffffffffffffffffffffffffffff1673ffffffffffffffffffffffffffffffffffffffff168152602001908152602001600020838154811015156137ee57fe5b906000526020600020900181905550600660008673ffffffffffffffffffffffffffffffffffffffff1673ffffffffffffffffffffffffffffffffffffffff16815260200190815260200160002080548091906001900361384f9190614e99565b50600060076000868152602001908152602001600020819055508260076000838152602001908152602001600020819055505050505050565b60006138948383614741565b600660008473ffffffffffffffffffffffffffffffffffffffff1673ffffffffffffffffffffffffffffffffffffffff168152602001908152602001600020805490509050600660008473ffffffffffffffffffffffffffffffffffffffff1673ffffffffffffffffffffffffffffffffffffffff168152602001908152602001600020805480600101828161392a9190614ec5565b916000526020600020900160008490919091505550806007600084815260200190815260200160002081905550505050565b601254601660008573ffffffffffffffffffffffffffffffffffffffff1673ffffffffffffffffffffffffffffffffffffffff168152602001908152602001600020541015156139a857fe5b6139b28385614899565b613a5f84613a5a60138054600181600116156101000203166002900480601f016020809104026020016040519081016040528092919081815260200182805460018160011615610100020316600290048015613a4f5780601f10613a2457610100808354040283529160200191613a4f565b820191906000526020600020905b815481529060010190602001808311613a3257829003601f168201915b5050505050856148ed565b614acd565b836017826040518082805190602001908083835b602083101515613a985780518252602082019150602081019050602083039250613a73565b6001836020036101000a038019825116818451168082178552505050505050905001915050908152602001604051809103902081905550826018826040518082805190602001908083835b602083101515613b085780518252602082019150602081019050602083039250613ae3565b6001836020036101000a038019825116818451168082178552505050505050905001915050908152602001604051809103902060006101000a81548173ffffffffffffffffffffffffffffffffffffffff021916908373ffffffffffffffffffffffffffffffffffffffff160217905550601960008473ffffffffffffffffffffffffffffffffffffffff1673ffffffffffffffffffffffffffffffffffffffff1681526020019081526020016000208054806001018281613bca9190614ef1565b916000526020600020900160008390919091509080519060200190613bf0929190614e19565b5050613c456001601660008673ffffffffffffffffffffffffffffffffffffffff1673ffffffffffffffffffffffffffffffffffffffff1681526020019081526020016000205461435c90919063ffffffff16565b601660008573ffffffffffffffffffffffffffffffffffffffff1673ffffffffffffffffffffffffffffffffffffffff168152602001908152602001600020819055507fdf5fffc2bd8c53e0c41aa67368817a9fb69561752c912bb1fa2e04d64d564f55838583604051808473ffffffffffffffffffffffffffffffffffffffff1673ffffffffffffffffffffffffffffffffffffffff16815260200183815260200180602001828103825283818151815260200191508051906020019080838360005b83811015613d24578082015181840152602081019050613d09565b50505050905090810190601f168015613d515780820380516001836020036101000a031916815260200191505b5094505050505060405180910390a150505050565b613d6e614d0e565b613d76614f1d565b6000839150600090505b8151811015613e3557613dea8282815181101515613d9a57fe5b9060200101517f010000000000000000000000000000000000000000000000000000000000000090047f010000000000000000000000000000000000000000000000000000000000000002614b0d565b8282815181101515613df857fe5b9060200101907effffffffffffffffffffffffffffffffffffffffffffffffffffffffffffff1916908160001a9053508080600101915050613d80565b8192505050919050565b6000613e49614f1d565b6000806000806000806000806000808c9a508a5199506010548a11158015613e7257506011548a115b1515613e7a57fe5b60207f0100000000000000000000000000000000000000000000000000000000000000029850602e7f010000000000000000000000000000000000000000000000000000000000000002975060657f010000000000000000000000000000000000000000000000000000000000000002965060747f010000000000000000000000000000000000000000000000000000000000000002955060687f0100000000000000000000000000000000000000000000000000000000000000029450600093506000925060009150600090505b8981101561430c57887effffffffffffffffffffffffffffffffffffffffffffffffffffffffffffff19168b82815181101515613f8257fe5b9060200101517f010000000000000000000000000000000000000000000000000000000000000090047f0100000000000000000000000000000000000000000000000000000000000000027effffffffffffffffffffffffffffffffffffffffffffffffffffffffffffff19161415613ffe5760009b5061434c565b877effffffffffffffffffffffffffffffffffffffffffffffffffffffffffffff19168b8281518110151561402f57fe5b9060200101517f010000000000000000000000000000000000000000000000000000000000000090047f0100000000000000000000000000000000000000000000000000000000000000027effffffffffffffffffffffffffffffffffffffffffffffffffffffffffffff191614156140c35760018401935060018411156140ba5760009b5061434c565b600192506142ff565b6000831180156140d35750600583105b156142fe57600183141561418d57867effffffffffffffffffffffffffffffffffffffffffffffffffffffffffffff19168b8281518110151561411257fe5b9060200101517f010000000000000000000000000000000000000000000000000000000000000090047f0100000000000000000000000000000000000000000000000000000000000000027effffffffffffffffffffffffffffffffffffffffffffffffffffffffffffff1916141561418c576001820191505b5b600283141561424257857effffffffffffffffffffffffffffffffffffffffffffffffffffffffffffff19168b828151811015156141c757fe5b9060200101517f010000000000000000000000000000000000000000000000000000000000000090047f0100000000000000000000000000000000000000000000000000000000000000027effffffffffffffffffffffffffffffffffffffffffffffffffffffffffffff19161415614241576001820191505b5b60038314156142f757847effffffffffffffffffffffffffffffffffffffffffffffffffffffffffffff19168b8281518110151561427c57fe5b9060200101517f010000000000000000000000000000000000000000000000000000000000000090047f0100000000000000000000000000000000000000000000000000000000000000027effffffffffffffffffffffffffffffffffffffffffffffffffffffffffffff191614156142f6576001820191505b5b6001830192505b5b8080600101915050613f49565b600084141561431e5760009b5061434c565b60038214801561432e5750600483145b806143395750600183145b156143475760009b5061434c565b60019b505b5050505050505050505050919050565b600080828401905083811015151561437057fe5b8091505092915050565b60008061439c8573ffffffffffffffffffffffffffffffffffffffff16614c4b565b15156143ab576001915061453a565b8473ffffffffffffffffffffffffffffffffffffffff1663f0b9e5ba8786866040518463ffffffff167c0100000000000000000000000000000000000000000000000000000000028152600401808473ffffffffffffffffffffffffffffffffffffffff1673ffffffffffffffffffffffffffffffffffffffff16815260200183815260200180602001828103825283818151815260200191508051906020019080838360005b8381101561446d578082015181840152602081019050614452565b50505050905090810190601f16801561449a5780820380516001836020036101000a031916815260200191505b50945050505050602060405180830381600087803b15156144ba57600080fd5b5af115156144c757600080fd5b50505060405180519050905063f0b9e5ba7c0100000000000000000000000000000000000000000000000000000000027bffffffffffffffffffffffffffffffffffffffffffffffffffffffff1916817bffffffffffffffffffffffffffffffffffffffffffffffffffffffff19161491505b50949350505050565b61454b614d0e565b614553614d0e565b61455c83613d66565b905061456781613e3f565b151561456f57fe5b6014816040518082805190602001908083835b6020831015156145a75780518252602082019150602081019050602083039250614582565b6001836020036101000a038019825116818451168082178552505050505050905001915050908152602001604051809103902060009054906101000a900460ff161515156145f157fe5b80915050919050565b600082821115151561460857fe5b818303905092915050565b8173ffffffffffffffffffffffffffffffffffffffff16614633826120ca565b73ffffffffffffffffffffffffffffffffffffffff1614151561465557600080fd5b6146a86001600260008573ffffffffffffffffffffffffffffffffffffffff1673ffffffffffffffffffffffffffffffffffffffff168152602001908152602001600020546145fa90919063ffffffff16565b600260008473ffffffffffffffffffffffffffffffffffffffff1673ffffffffffffffffffffffffffffffffffffffff16815260200190815260200160002081905550600080600083815260200190815260200160002060006101000a81548173ffffffffffffffffffffffffffffffffffffffff021916908373ffffffffffffffffffffffffffffffffffffffff1602179055505050565b600073ffffffffffffffffffffffffffffffffffffffff1660008083815260200190815260200160002060009054906101000a900473ffffffffffffffffffffffffffffffffffffffff1673ffffffffffffffffffffffffffffffffffffffff161415156147ae57600080fd5b8160008083815260200190815260200160002060006101000a81548173ffffffffffffffffffffffffffffffffffffffff021916908373ffffffffffffffffffffffffffffffffffffffff1602179055506148526001600260008573ffffffffffffffffffffffffffffffffffffffff1673ffffffffffffffffffffffffffffffffffffffff1681526020019081526020016000205461435c90919063ffffffff16565b600260008473ffffffffffffffffffffffffffffffffffffffff1673ffffffffffffffffffffffffffffffffffffffff168152602001908152602001600020819055505050565b6148a38282614c5e565b6008805490506009600083815260200190815260200160002081905550600880548060010182816148d49190614ec5565b9160005260206000209001600083909190915055505050565b6148f5614d0e565b6148fd614f1d565b614905614f1d565b61490d614d0e565b614915614f1d565b60008088955087945084518651016040518059106149305750595b9080825280601f01601f1916602001820160405250935083925060009150600090505b8551811015614a0657858181518110151561496a57fe5b9060200101517f010000000000000000000000000000000000000000000000000000000000000090047f01000000000000000000000000000000000000000000000000000000000000000283838060010194508151811015156149c957fe5b9060200101907effffffffffffffffffffffffffffffffffffffffffffffffffffffffffffff1916908160001a9053508080600101915050614953565b600090505b8451811015614abe578481815181101515614a2257fe5b9060200101517f010000000000000000000000000000000000000000000000000000000000000090047f0100000000000000000000000000000000000000000000000000000000000000028383806001019450815181101515614a8157fe5b9060200101907effffffffffffffffffffffffffffffffffffffffffffffffffffffffffffff1916908160001a9053508080600101915050614a0b565b82965050505050505092915050565b614ad682611ed0565b1515614ae157600080fd5b80600a60008481526020019081526020016000209080519060200190614b08929190614e19565b505050565b600060417f0100000000000000000000000000000000000000000000000000000000000000027effffffffffffffffffffffffffffffffffffffffffffffffffffffffffffff1916827effffffffffffffffffffffffffffffffffffffffffffffffffffffffffffff191610158015614bed5750605a7f0100000000000000000000000000000000000000000000000000000000000000027effffffffffffffffffffffffffffffffffffffffffffffffffffffffffffff1916827effffffffffffffffffffffffffffffffffffffffffffffffffffffffffffff191611155b15614c42576020827f01000000000000000000000000000000000000000000000000000000000000009004017f0100000000000000000000000000000000000000000000000000000000000000029050614c46565b8190505b919050565b600080823b905060008111915050919050565b600073ffffffffffffffffffffffffffffffffffffffff168273ffffffffffffffffffffffffffffffffffffffff1614151515614c9a57600080fd5b614ca48282613888565b8173ffffffffffffffffffffffffffffffffffffffff16600073ffffffffffffffffffffffffffffffffffffffff167fddf252ad1be2c89b69c2b068fc378daa952ba7f163c4a11628f55a4df523b3ef836040518082815260200191505060405180910390a35050565b602060405190810160405280600081525090565b608060405190810160405280614d36614f31565b81526020016000815260200160008152602001600073ffffffffffffffffffffffffffffffffffffffff1681525090565b815481835581811511614d9457600402816004028360005260206000209182019101614d939190614f45565b5b505050565b828054600181600116156101000203166002900490600052602060002090601f016020900481019282601f10614dda57805160ff1916838001178555614e08565b82800160010185558215614e08579182015b82811115614e07578251825591602001919060010190614dec565b5b509050614e159190614fab565b5090565b828054600181600116156101000203166002900490600052602060002090601f016020900481019282601f10614e5a57805160ff1916838001178555614e88565b82800160010185558215614e88579182015b82811115614e87578251825591602001919060010190614e6c565b5b509050614e959190614fab565b5090565b815481835581811511614ec057818360005260206000209182019101614ebf9190614fab565b5b505050565b815481835581811511614eec57818360005260206000209182019101614eeb9190614fab565b5b505050565b815481835581811511614f1857818360005260206000209182019101614f179190614fd0565b5b505050565b602060405190810160405280600081525090565b602060405190810160405280600081525090565b614fa891905b80821115614fa45760008082016000614f649190614ffc565b600182016000905560028201600090556003820160006101000a81549073ffffffffffffffffffffffffffffffffffffffff021916905550600401614f4b565b5090565b90565b614fcd91905b80821115614fc9576000816000905550600101614fb1565b5090565b90565b614ff991905b80821115614ff55760008181614fec9190614ffc565b50600101614fd6565b5090565b90565b50805460018160011615610100020316600290046000825580601f106150225750615041565b601f0160209004906000526020600020908101906150409190614fab565b5b505600a165627a7a72305820c049b8306abe339c1c9587e55beb2599b60b540f6826481046ce6b2f24edd1150029",
  "source": "pragma solidity ^0.4.21;\r\n\r\nimport \"zeppelin-solidity/contracts/token/ERC721/ERC721Token.sol\";\r\nimport \"zeppelin-solidity/contracts//ownership/Ownable.sol\";\r\n\r\n\r\ncontract TTTToken {\r\n  function transfer(address _to, uint256 _amount) public returns (bool success);\r\n  function transferFrom(address from, address to, uint tokens) public returns (bool success);\r\n  function balanceOf(address tokenOwner) public constant returns (uint balance);\r\n}\r\n\r\ncontract TTTSan is ERC721Token, Ownable {\r\n\r\n  address public wallet = 0x5BcFCbdE79895D3D6A115Baf5386ae5463df2aAF;\r\n  address public tttTokenAddress = 0x3a518A5F5AC3F3dBF4ECd6b91dfBbb8422832996;\r\n  address public marketAddress;\r\n\r\n  uint256 public sanTTTCost;\r\n  uint256 public sanMaxLength;\r\n  uint256 public sanMinLength;\r\n  uint256 public sanMaxAmount;\r\n\r\n  string public baseUrl = \"https://thetiptoken.io/arv/img/\";\r\n\r\n  mapping(string=>bool) sanOwnership;\r\n  mapping(address=>uint256) sanSlots;\r\n  mapping(address=>uint256) sanOwnerAmount;\r\n  mapping(string=>uint256) sanNameToId;\r\n  mapping(string=>address) sanNameToAddress;\r\n  mapping(address=>string[]) ownerToSanName;\r\n\r\n  struct SAN {\r\n    string sanName;\r\n    uint256 timeAlive;\r\n    uint256 timeLastMove;\r\n    address prevOwner;\r\n  }\r\n\r\n  SAN[] public sans;\r\n\r\n  TTTToken ttt;\r\n\r\n  modifier isMarketAddress() {\r\n\t\trequire(msg.sender == marketAddress);\r\n\t\t_;\r\n\t}\r\n\r\n  event SanMinted(address sanOwner, uint256 sanId, string sanName);\r\n  event SanSlotsPurchase(address sanOwner, uint256 amt);\r\n\r\n  function TTTSan() ERC721Token(\"TTTSAN\", \"TTTS\") {\r\n    sanTTTCost = 2 ether;\r\n    sanMaxLength = 16;\r\n    sanMinLength = 2;\r\n    sanMaxAmount = 500;\r\n    ttt = TTTToken(tttTokenAddress);\r\n    // gen0 san\r\n  /* \"NeverGonnaGiveYouUp.NeverGonnaLetYouDown\" */\r\n    string memory gen0 = \"NeverGonnaGiveYouUp.NeverGonnaLetYouDown\";\r\n    SAN memory s = SAN({\r\n        sanName: gen0,\r\n        timeAlive: block.timestamp,\r\n        timeLastMove: block.timestamp,\r\n        prevOwner: msg.sender\r\n    });\r\n    uint256 sanId = sans.push(s) - 1;\r\n    _sanMint(sanId, msg.sender, \"gen0.jpeg\", gen0);\r\n    sanOwnership[gen0] = true;\r\n  }\r\n\r\n  function sanMint(string _sanName, string _sanageUri) external returns (string) {\r\n    assert(sanSlots[msg.sender] >= 1);\r\n    string memory sn = sanitize(_sanName);\r\n    SAN memory s = SAN({\r\n        sanName: sn,\r\n        timeAlive: block.timestamp,\r\n        timeLastMove: block.timestamp,\r\n        prevOwner: msg.sender\r\n    });\r\n    uint256 sanId = sans.push(s) - 1;\r\n    _sanMint(sanId, msg.sender, _sanageUri, sn);\r\n    sanOwnership[sn] = true;\r\n    sanSlots[msg.sender] = sanSlots[msg.sender].sub(1);\r\n    return sn;\r\n  }\r\n\r\n\r\n  function getSANOwner(uint256 _sanId) public view returns (address) {\r\n    return ownerOf(_sanId);\r\n  }\r\n\r\n  function getSanIdFromName(string _sanName) public view returns (uint256) {\r\n    return sanNameToId[_sanName];\r\n  }\r\n\r\n  function getSanName(uint256 _sanId) public view returns (string) {\r\n    return sans[_sanId].sanName;\r\n  }\r\n\r\n  function getSanTimeAlive(uint256 _sanId) public view returns (uint256) {\r\n    return sans[_sanId].timeAlive;\r\n  }\r\n\r\n  function getSanTimeLastMove(uint256 _sanId) public view returns (uint256) {\r\n    return sans[_sanId].timeLastMove;\r\n  }\r\n\r\n  function getSanPrevOwner(uint256 _sanId) public view returns (address) {\r\n    return sans[_sanId].prevOwner;\r\n  }\r\n\r\n  function getAddressFromSan(string _sanName) public view returns (address) {\r\n    return sanNameToAddress[_sanName];\r\n  }\r\n\r\n  function getSanSlots(address _sanOwner) public view returns(uint256) {\r\n    return sanSlots[_sanOwner];\r\n  }\r\n\r\n  // used for initial check to not waste gas\r\n  function getSANitized(string _sanName) external view returns (string) {\r\n    string memory sn = sanToLower(_sanName);\r\n    assert(isValidSan(sn));\r\n    assert(!sanOwnership[sn]);\r\n    return sn;\r\n  }\r\n\r\n  function buySanSlot(address _sanOwner,  uint256 _tip) external returns(bool) {\r\n    require(_tip >= sanTTTCost);\r\n    sanSlots[_sanOwner] = sanSlots[_sanOwner].add(1);\r\n    ttt.transferFrom(msg.sender, wallet, _tip);\r\n    emit SanSlotsPurchase(_sanOwner, 1);\r\n    return true;\r\n  }\r\n\r\n  function marketSale(uint256 _sanId, string _sanName, address _prevOwner, address _newOwner) external isMarketAddress {\r\n    SAN storage s = sans[_sanId];\r\n    s.prevOwner = _prevOwner;\r\n    sanNameToAddress[_sanName] = _newOwner;\r\n  }\r\n\r\n\r\n  // OWNER FUNCTIONS\r\n\r\n  function setSanTTTCost(uint256 _cost) external onlyOwner {\r\n    require(_cost > 0);\r\n    sanTTTCost = _cost;\r\n  }\r\n\r\n  function setSanLength(uint256 _length, uint256 _pos) external onlyOwner {\r\n    require(_length > 0);\r\n    if(_pos == 0) sanMinLength = _length;\r\n    else sanMaxLength = _length;\r\n  }\r\n\r\n  function setSanMaxAmount(uint256 _amount) external onlyOwner {\r\n    sanMaxAmount = _amount;\r\n  }\r\n\r\n  function ownerAddSanSlot(address _sanOwner, uint256 _slotCount) external onlyOwner {\r\n    require(_slotCount > 0);\r\n    sanSlots[_sanOwner] = sanSlots[_sanOwner].add(_slotCount);\r\n  }\r\n\r\n  function setMarketAddress(address _marketAddress) public onlyOwner {\r\n    marketAddress = _marketAddress;\r\n  }\r\n\r\n  function setBaseUrl(string _baseUrl) public onlyOwner {\r\n    baseUrl = _baseUrl;\r\n  }\r\n\r\n  function setOwnerWallet(address _wallet) public onlyOwner {\r\n    wallet = _wallet;\r\n  }\r\n\r\n  function updateTokenUri(uint256 _sanId, string _newUri) public onlyOwner {\r\n    // TODO\r\n  }\r\n\r\n  function emptyContract() public onlyOwner {\r\n    uint256 b = ttt.balanceOf(this);\r\n    ttt.transfer(msg.sender, b);\r\n  }\r\n\r\n  // owner can mint special sans for an address\r\n  function specialSanMint(string _sanName, string _sanageUri, address _address) external onlyOwner returns (string) {\r\n    SAN memory s = SAN({\r\n        sanName: _sanName,\r\n        timeAlive: block.timestamp,\r\n        timeLastMove: block.timestamp,\r\n        prevOwner: _address\r\n    });\r\n    uint256 sanId = sans.push(s) - 1;\r\n    _sanMint(sanId, _address, _sanageUri, _sanName);\r\n    return _sanName;\r\n  }\r\n\r\n  // INTERNAL FUNCTIONS\r\n\r\n  function sanitize(string _sanName) internal returns(string) {\r\n    string memory sn = sanToLower(_sanName);\r\n    assert(isValidSan(sn));\r\n    assert(!sanOwnership[sn]);\r\n    return sn;\r\n  }\r\n\r\n  function _sanMint(uint256 _sanId, address _owner, string _sanageUri, string _sanName) internal {\r\n    assert(sanOwnerAmount[_owner] < sanMaxAmount);\r\n    _mint(_owner, _sanId);\r\n    _setTokenURI(_sanId, strConcat(baseUrl, _sanageUri));\r\n    sanNameToId[_sanName] = _sanId;\r\n    sanNameToAddress[_sanName] = _owner;\r\n    ownerToSanName[_owner].push(_sanName);\r\n    sanOwnerAmount[_owner] = sanOwnerAmount[_owner].add(1);\r\n    emit SanMinted(_owner, _sanId, _sanName);\r\n  }\r\n\r\n  function isValidSan(string _sanName) internal view returns(bool) {\r\n    bytes memory wb = bytes(_sanName);\r\n    uint slen = wb.length;\r\n    assert(slen <= sanMaxLength && slen > sanMinLength);\r\n    bytes1 space = bytes1(0x20);\r\n    bytes1 period = bytes1(0x2E);\r\n    bytes1 e = bytes1(0x65);\r\n    bytes1 t = bytes1(0x74);\r\n    bytes1 h = bytes1(0x68);\r\n    uint dCount = 0;\r\n    uint eCount = 0;\r\n    uint eth = 0;\r\n    for(uint i = 0; i < slen; i++) {\r\n        if(wb[i] == space) return false;\r\n        else if(wb[i] == period) {\r\n          dCount = dCount + 1;\r\n          // only 1 '.'\r\n          if(dCount > 1) return false;\r\n          eCount = 1;\r\n        } else if(eCount > 0 && eCount < 5) {\r\n          if(eCount == 1) if(wb[i] == e) eth = eth + 1;\r\n          if(eCount == 2) if(wb[i] == t) eth = eth + 1;\r\n          if(eCount == 3) if(wb[i] == h) eth = eth + 1;\r\n          eCount = eCount + 1;\r\n        }\r\n    }\r\n    if(dCount == 0) return false;\r\n    if((eth == 3 && eCount == 4) || eCount == 1) return false;\r\n    return true;\r\n  }\r\n\r\n  function sanToLower(string _sanName) internal returns(string) {\r\n    bytes memory b = bytes(_sanName);\r\n    for(uint i = 0; i < b.length; i++) {\r\n      b[i] = byteToLower(b[i]);\r\n    }\r\n    return string(b);\r\n  }\r\n\r\n  function byteToLower(bytes1 _b) internal pure returns (bytes1) {\r\n    if(_b >= bytes1(0x41) && _b <= bytes1(0x5A))\r\n      return bytes1(uint8(_b) + 32);\r\n    return _b;\r\n  }\r\n\r\n  function strConcat(string _a, string _b) internal pure returns (string) {\r\n    bytes memory _ba = bytes(_a);\r\n    bytes memory _bb = bytes(_b);\r\n    string memory ab = new string(_ba.length + _bb.length);\r\n    bytes memory bab = bytes(ab);\r\n    uint k = 0;\r\n    for (uint i = 0; i < _ba.length; i++) bab[k++] = _ba[i];\r\n    for (i = 0; i < _bb.length; i++) bab[k++] = _bb[i];\r\n    return string(bab);\r\n  }\r\n\r\n}\r\n",
  "sourcePath": "C:\\TTT_Platform\\contracts\\TTTSan.sol",
  "compiler": {
    "name": "solc",
    "version": "0.4.21+commit.dfe3193c.Emscripten.clang"
  },
  "schemaVersion": "2.0.0",
  "updatedAt": "2018-07-11T23:39:02.002Z"
}